{
  "_format": "hh-sol-artifact-1",
  "contractName": "MaraScan",
  "sourceName": "contracts/MaraScan.sol",
  "abi": [
    {
      "anonymous": false,
      "inputs": [
        {
          "indexed": true,
          "internalType": "address",
          "name": "contractAddress",
          "type": "address"
        }
      ],
      "name": "ApproveToken",
      "type": "event"
    },
    {
      "anonymous": false,
      "inputs": [
        {
          "indexed": true,
          "internalType": "address",
          "name": "newContract",
          "type": "address"
        }
      ],
      "name": "ChangedBadgeContract",
      "type": "event"
    },
    {
      "anonymous": false,
      "inputs": [
        {
          "indexed": true,
          "internalType": "address",
          "name": "newContract",
          "type": "address"
        }
      ],
      "name": "ChangedUSDCContract",
      "type": "event"
    },
    {
      "anonymous": false,
      "inputs": [
        {
          "indexed": false,
          "internalType": "uint256",
          "name": "amount",
          "type": "uint256"
        },
        {
          "components": [
            {
              "internalType": "address",
              "name": "donor",
              "type": "address"
            },
            {
              "internalType": "uint256",
              "name": "donationRequestId",
              "type": "uint256"
            },
            {
              "internalType": "uint256",
              "name": "amount",
              "type": "uint256"
            },
            {
              "internalType": "uint256[]",
              "name": "categories",
              "type": "uint256[]"
            }
          ],
          "indexed": false,
          "internalType": "struct MaraScan.Donation[]",
          "name": "donations",
          "type": "tuple[]"
        }
      ],
      "name": "Disbursed",
      "type": "event"
    },
    {
      "anonymous": false,
      "inputs": [
        {
          "indexed": true,
          "internalType": "address",
          "name": "donor",
          "type": "address"
        },
        {
          "indexed": true,
          "internalType": "uint256",
          "name": "amount",
          "type": "uint256"
        },
        {
          "indexed": false,
          "internalType": "uint256",
          "name": "donationRequestId",
          "type": "uint256"
        },
        {
          "indexed": false,
          "internalType": "uint256",
          "name": "previousUndisbursedBalance",
          "type": "uint256"
        },
        {
          "indexed": false,
          "internalType": "uint256",
          "name": "currentUndisbursedBalance",
          "type": "uint256"
        },
        {
          "indexed": true,
          "internalType": "uint256[]",
          "name": "categories",
          "type": "uint256[]"
        },
        {
          "indexed": false,
          "internalType": "uint256",
          "name": "minimumAmountToDisburse",
          "type": "uint256"
        }
      ],
      "name": "Donated",
      "type": "event"
    },
    {
      "anonymous": false,
      "inputs": [
        {
          "indexed": false,
          "internalType": "uint8",
          "name": "version",
          "type": "uint8"
        }
      ],
      "name": "Initialized",
      "type": "event"
    },
    {
      "anonymous": false,
      "inputs": [
        {
          "indexed": true,
          "internalType": "bytes32",
          "name": "role",
          "type": "bytes32"
        },
        {
          "indexed": true,
          "internalType": "bytes32",
          "name": "previousAdminRole",
          "type": "bytes32"
        },
        {
          "indexed": true,
          "internalType": "bytes32",
          "name": "newAdminRole",
          "type": "bytes32"
        }
      ],
      "name": "RoleAdminChanged",
      "type": "event"
    },
    {
      "anonymous": false,
      "inputs": [
        {
          "indexed": true,
          "internalType": "bytes32",
          "name": "role",
          "type": "bytes32"
        },
        {
          "indexed": true,
          "internalType": "address",
          "name": "account",
          "type": "address"
        },
        {
          "indexed": true,
          "internalType": "address",
          "name": "sender",
          "type": "address"
        }
      ],
      "name": "RoleGranted",
      "type": "event"
    },
    {
      "anonymous": false,
      "inputs": [
        {
          "indexed": true,
          "internalType": "bytes32",
          "name": "role",
          "type": "bytes32"
        },
        {
          "indexed": true,
          "internalType": "address",
          "name": "account",
          "type": "address"
        },
        {
          "indexed": true,
          "internalType": "address",
          "name": "sender",
          "type": "address"
        }
      ],
      "name": "RoleRevoked",
      "type": "event"
    },
    {
      "inputs": [],
      "name": "ADMIN_ROLE",
      "outputs": [
        {
          "internalType": "bytes32",
          "name": "",
          "type": "bytes32"
        }
      ],
      "stateMutability": "view",
      "type": "function"
    },
    {
      "inputs": [],
      "name": "BADGE",
      "outputs": [
        {
          "internalType": "address",
          "name": "",
          "type": "address"
        }
      ],
      "stateMutability": "view",
      "type": "function"
    },
    {
      "inputs": [],
      "name": "DEFAULT_ADMIN_ROLE",
      "outputs": [
        {
          "internalType": "bytes32",
          "name": "",
          "type": "bytes32"
        }
      ],
      "stateMutability": "view",
      "type": "function"
    },
    {
      "inputs": [],
      "name": "MASTER_WALLET",
      "outputs": [
        {
          "internalType": "address",
          "name": "",
          "type": "address"
        }
      ],
      "stateMutability": "view",
      "type": "function"
    },
    {
      "inputs": [
        {
          "internalType": "uint256",
          "name": "amountOut",
          "type": "uint256"
        },
        {
          "internalType": "address[]",
          "name": "_beneficiaries",
          "type": "address[]"
        },
        {
          "internalType": "uint256",
          "name": "_donationRequestId",
          "type": "uint256"
        },
        {
          "internalType": "uint256[]",
          "name": "_category",
          "type": "uint256[]"
        },
        {
          "internalType": "bool",
          "name": "disburse",
          "type": "bool"
        }
      ],
      "name": "SwapExactETHForTokens",
      "outputs": [],
      "stateMutability": "payable",
      "type": "function"
    },
    {
      "inputs": [],
      "name": "USDC",
      "outputs": [
        {
          "internalType": "address",
          "name": "",
          "type": "address"
        }
      ],
      "stateMutability": "view",
      "type": "function"
    },
    {
      "inputs": [
        {
          "internalType": "uint256",
          "name": "",
          "type": "uint256"
        }
      ],
      "name": "allDisbursedDonations",
      "outputs": [
        {
          "internalType": "address",
          "name": "donor",
          "type": "address"
        },
        {
          "internalType": "uint256",
          "name": "donationRequestId",
          "type": "uint256"
        },
        {
          "internalType": "uint256",
          "name": "amount",
          "type": "uint256"
        }
      ],
      "stateMutability": "view",
      "type": "function"
    },
    {
      "inputs": [
        {
          "internalType": "address",
          "name": "_tokenAddress",
          "type": "address"
        }
      ],
      "name": "approveTokenForDonation",
      "outputs": [],
      "stateMutability": "nonpayable",
      "type": "function"
    },
    {
      "inputs": [
        {
          "internalType": "address",
          "name": "",
          "type": "address"
        }
      ],
      "name": "approvedTokens",
      "outputs": [
        {
          "internalType": "bool",
          "name": "",
          "type": "bool"
        }
      ],
      "stateMutability": "view",
      "type": "function"
    },
    {
      "inputs": [
        {
          "internalType": "uint256",
          "name": "donationRequestId",
          "type": "uint256"
        }
      ],
      "name": "claimBadge",
      "outputs": [],
      "stateMutability": "nonpayable",
      "type": "function"
    },
    {
      "inputs": [
        {
          "internalType": "uint256",
          "name": "",
          "type": "uint256"
        }
      ],
      "name": "claimBadgesForDonors",
      "outputs": [
        {
          "internalType": "uint256",
          "name": "",
          "type": "uint256"
        }
      ],
      "stateMutability": "view",
      "type": "function"
    },
    {
      "inputs": [
        {
          "internalType": "address",
          "name": "_tokenAddress",
          "type": "address"
        },
        {
          "internalType": "uint256",
          "name": "_amount",
          "type": "uint256"
        },
        {
          "internalType": "uint256",
          "name": "_donationRequestId",
          "type": "uint256"
        },
        {
          "internalType": "address[]",
          "name": "_beneficiaries",
          "type": "address[]"
        },
        {
          "internalType": "uint256[]",
          "name": "_category",
          "type": "uint256[]"
        },
        {
          "internalType": "bool",
          "name": "disburse",
          "type": "bool"
        }
      ],
      "name": "donate",
      "outputs": [],
      "stateMutability": "nonpayable",
      "type": "function"
    },
    {
      "inputs": [
        {
          "internalType": "uint256",
          "name": "_amount",
          "type": "uint256"
        },
        {
          "internalType": "uint256",
          "name": "_donationRequestId",
          "type": "uint256"
        },
        {
          "internalType": "address[]",
          "name": "_beneficiaries",
          "type": "address[]"
        },
        {
          "internalType": "uint256[]",
          "name": "_category",
          "type": "uint256[]"
        },
        {
          "internalType": "bool",
          "name": "disburse",
          "type": "bool"
        }
      ],
      "name": "donationFromCircle",
      "outputs": [],
      "stateMutability": "nonpayable",
      "type": "function"
    },
    {
      "inputs": [],
      "name": "emergencyWithdrawETH",
      "outputs": [],
      "stateMutability": "nonpayable",
      "type": "function"
    },
    {
      "inputs": [
        {
          "internalType": "address",
          "name": "_tokenAddress",
          "type": "address"
        }
      ],
      "name": "emergencyWithdrawToken",
      "outputs": [],
      "stateMutability": "nonpayable",
      "type": "function"
    },
    {
      "inputs": [
        {
          "internalType": "bytes32",
          "name": "role",
          "type": "bytes32"
        }
      ],
      "name": "getRoleAdmin",
      "outputs": [
        {
          "internalType": "bytes32",
          "name": "",
          "type": "bytes32"
        }
      ],
      "stateMutability": "view",
      "type": "function"
    },
    {
      "inputs": [
        {
          "internalType": "bytes32",
          "name": "role",
          "type": "bytes32"
        },
        {
          "internalType": "address",
          "name": "account",
          "type": "address"
        }
      ],
      "name": "grantRole",
      "outputs": [],
      "stateMutability": "nonpayable",
      "type": "function"
    },
    {
      "inputs": [
        {
          "internalType": "bytes32",
          "name": "role",
          "type": "bytes32"
        },
        {
          "internalType": "address",
          "name": "account",
          "type": "address"
        }
      ],
      "name": "hasRole",
      "outputs": [
        {
          "internalType": "bool",
          "name": "",
          "type": "bool"
        }
      ],
      "stateMutability": "view",
      "type": "function"
    },
    {
      "inputs": [],
      "name": "initialize",
      "outputs": [],
      "stateMutability": "nonpayable",
      "type": "function"
    },
    {
      "inputs": [],
      "name": "minimumAmountToDisburse",
      "outputs": [
        {
          "internalType": "uint256",
          "name": "",
          "type": "uint256"
        }
      ],
      "stateMutability": "view",
      "type": "function"
    },
    {
      "inputs": [
        {
          "internalType": "bytes32",
          "name": "role",
          "type": "bytes32"
        },
        {
          "internalType": "address",
          "name": "account",
          "type": "address"
        }
      ],
      "name": "renounceRole",
      "outputs": [],
      "stateMutability": "nonpayable",
      "type": "function"
    },
    {
      "inputs": [
        {
          "internalType": "bytes32",
          "name": "role",
          "type": "bytes32"
        },
        {
          "internalType": "address",
          "name": "account",
          "type": "address"
        }
      ],
      "name": "revokeRole",
      "outputs": [],
      "stateMutability": "nonpayable",
      "type": "function"
    },
    {
      "inputs": [
        {
          "internalType": "address",
          "name": "_tokenAddress",
          "type": "address"
        }
      ],
      "name": "setBadgeTokenContract",
      "outputs": [],
      "stateMutability": "nonpayable",
      "type": "function"
    },
    {
      "inputs": [
        {
          "internalType": "address",
          "name": "_masterWallet",
          "type": "address"
        }
      ],
      "name": "setMasterWallet",
      "outputs": [],
      "stateMutability": "nonpayable",
      "type": "function"
    },
    {
      "inputs": [
        {
          "internalType": "address",
          "name": "_tokenAddress",
          "type": "address"
        }
      ],
      "name": "setUSDCTokenContract",
      "outputs": [],
      "stateMutability": "nonpayable",
      "type": "function"
    },
    {
      "inputs": [
        {
          "internalType": "bytes4",
          "name": "interfaceId",
          "type": "bytes4"
        }
      ],
      "name": "supportsInterface",
      "outputs": [
        {
          "internalType": "bool",
          "name": "",
          "type": "bool"
        }
      ],
      "stateMutability": "view",
      "type": "function"
    },
    {
      "inputs": [
        {
          "internalType": "uint256",
          "name": "amountIn",
          "type": "uint256"
        },
        {
          "internalType": "uint256",
          "name": "amountOutMin",
          "type": "uint256"
        },
        {
          "internalType": "address",
          "name": "tokenIn",
          "type": "address"
        },
        {
          "internalType": "address[]",
          "name": "_beneficiaries",
          "type": "address[]"
        },
        {
          "internalType": "uint256[]",
          "name": "_category",
          "type": "uint256[]"
        },
        {
          "internalType": "uint256",
          "name": "_donationRequestId",
          "type": "uint256"
        },
        {
          "internalType": "bool",
          "name": "disburse",
          "type": "bool"
        }
      ],
      "name": "swapExactTokensForTokens",
      "outputs": [],
      "stateMutability": "nonpayable",
      "type": "function"
    },
    {
      "inputs": [],
      "name": "totalAmountDisbursed",
      "outputs": [
        {
          "internalType": "uint256",
          "name": "",
          "type": "uint256"
        }
      ],
      "stateMutability": "view",
      "type": "function"
    },
    {
      "inputs": [],
      "name": "unDisbursedAmount",
      "outputs": [
        {
          "internalType": "uint256",
          "name": "",
          "type": "uint256"
        }
      ],
      "stateMutability": "view",
      "type": "function"
    },
    {
      "inputs": [
        {
          "internalType": "uint256",
          "name": "",
          "type": "uint256"
        }
      ],
      "name": "unDisbursedDonations",
      "outputs": [
        {
          "internalType": "address",
          "name": "donor",
          "type": "address"
        },
        {
          "internalType": "uint256",
          "name": "donationRequestId",
          "type": "uint256"
        },
        {
          "internalType": "uint256",
          "name": "amount",
          "type": "uint256"
        }
      ],
      "stateMutability": "view",
      "type": "function"
    },
    {
      "inputs": [],
      "name": "uniswapRouter",
      "outputs": [
        {
          "internalType": "contract IUniswapV2Router02",
          "name": "",
          "type": "address"
        }
      ],
      "stateMutability": "view",
      "type": "function"
    }
  ],
  "bytecode": "0x608060405234801561001057600080fd5b50612c3d806100206000396000f3fe6080604052600436106101d85760003560e01c80637f49a93211610102578063a217fddf11610095578063d547741f11610064578063d547741f14610570578063d5d0c6f014610590578063d60bb296146105b0578063eead6fd8146105c6576101d8565b8063a217fddf146103df578063a6c7bf8a146104eb578063a9cf4fcf1461050b578063b0583c941461052b576101d8565b80638623afef116100d15780638623afef1461045e57806389a302711461048b5780638f4542d1146104ab57806391d14854146104cb576101d8565b80637f49a932146103f45780638129fc1c1461041457806382eb73ad146104295780638453601714610449576101d8565b8063305c53101161017a5780636d1ea3fa116101495780636d1ea3fa1461037657806372a82275146103a6578063735de9f7146103b957806375b238fc146103df576101d8565b8063305c53101461030057806336568abe146103165780633c2c4b5e14610336578063656ad72314610356576101d8565b806323415135116101b6578063234151351461026c578063248a9ca31461028c57806327d9f3a6146102ca5780632f2ff15d146102e0576101d8565b806301ffc9a7146101dd5780631af03203146102125780631d527d8114610234575b600080fd5b3480156101e957600080fd5b506101fd6101f8366004612661565b6105e6565b60405190151581526020015b60405180910390f35b34801561021e57600080fd5b5061023261022d366004612461565b61061d565b005b34801561024057600080fd5b50600354610254906001600160a01b031681565b6040516001600160a01b039091168152602001610209565b34801561027857600080fd5b5061023261028736600461261a565b6107ea565b34801561029857600080fd5b506102bc6102a736600461261a565b60009081526020819052604090206001015490565b604051908152602001610209565b3480156102d657600080fd5b506102bc60055481565b3480156102ec57600080fd5b506102326102fb366004612632565b6108ce565b34801561030c57600080fd5b506102bc60095481565b34801561032257600080fd5b50610232610331366004612632565b6108f3565b34801561034257600080fd5b50600254610254906001600160a01b031681565b34801561036257600080fd5b50610232610371366004612461565b610971565b34801561038257600080fd5b506101fd610391366004612461565b600a6020526000908152604090205460ff1681565b6102326103b43660046126a1565b6109c7565b3480156103c557600080fd5b50600154610254906201000090046001600160a01b031681565b3480156103eb57600080fd5b506102bc600081565b34801561040057600080fd5b5061023261040f366004612461565b610de0565b34801561042057600080fd5b50610232610e10565b34801561043557600080fd5b50610232610444366004612735565b610f4e565b34801561045557600080fd5b506102326114fb565b34801561046a57600080fd5b506102bc61047936600461261a565b600b6020526000908152604090205481565b34801561049757600080fd5b50600454610254906001600160a01b031681565b3480156104b757600080fd5b506102326104c6366004612499565b611510565b3480156104d757600080fd5b506101fd6104e6366004612632565b61184c565b3480156104f757600080fd5b50610232610506366004612461565b611875565b34801561051757600080fd5b506102326105263660046127e4565b6118a3565b34801561053757600080fd5b5061054b61054636600461261a565b611b6d565b604080516001600160a01b039094168452602084019290925290820152606001610209565b34801561057c57600080fd5b5061023261058b366004612632565b611baa565b34801561059c57600080fd5b5061054b6105ab36600461261a565b611bcf565b3480156105bc57600080fd5b506102bc60085481565b3480156105d257600080fd5b506102326105e1366004612461565b611bdf565b60006001600160e01b03198216637965db0b60e01b148061061757506301ffc9a760e01b6001600160e01b03198316145b92915050565b600061062881611c35565b6040516370a0823160e01b81523060048201526000906001600160a01b038416906370a082319060240160206040518083038186803b15801561066a57600080fd5b505afa15801561067e573d6000803e3d6000fd5b505050506040513d601f19601f820116820180604052508101906106a29190612689565b116106e65760405162461bcd60e51b815260206004820152600f60248201526e15985b1d59481d1bdbc81cdb585b1b608a1b60448201526064015b60405180910390fd5b6040516370a0823160e01b81523060048201526001600160a01b0383169063a9059cbb90339083906370a082319060240160206040518083038186803b15801561072f57600080fd5b505afa158015610743573d6000803e3d6000fd5b505050506040513d601f19601f820116820180604052508101906107679190612689565b6040516001600160e01b031960e085901b1681526001600160a01b0390921660048301526024820152604401602060405180830381600087803b1580156107ad57600080fd5b505af11580156107c1573d6000803e3d6000fd5b505050506040513d601f19601f820116820180604052508101906107e591906125fe565b505050565b6000818152600b60205260409020546108455760405162461bcd60e51b815260206004820152601960248201527f596f7520646f6e2774206861766520616e7920636c616d69730000000000000060448201526064016106dd565b6003546000828152600b60205260408082205490516227753160e31b8152600481019290925233602483015260448201526001600160a01b039091169063013ba98890606401600060405180830381600087803b1580156108a557600080fd5b505af11580156108b9573d6000803e3d6000fd5b505050600091825250600b6020526040812055565b6000828152602081905260409020600101546108e981611c35565b6107e58383611c3f565b6001600160a01b03811633146109635760405162461bcd60e51b815260206004820152602f60248201527f416363657373436f6e74726f6c3a2063616e206f6e6c792072656e6f756e636560448201526e103937b632b9903337b91039b2b63360891b60648201526084016106dd565b61096d8282611cc3565b5050565b600061097c81611c35565b600380546001600160a01b0319166001600160a01b0384169081179091556040517f07d0f313d785d0a6e19240fc9a591f3d8e79b3c463c30276ea9e7678409ad0f890600090a25050565b604080516002808252606082018352600092602083019080368337019050509050600160029054906101000a90046001600160a01b03166001600160a01b031663ad5c46486040518163ffffffff1660e01b815260040160206040518083038186803b158015610a3657600080fd5b505afa158015610a4a573d6000803e3d6000fd5b505050506040513d601f19601f82011682018060405250810190610a6e919061247d565b81600081518110610a8f57634e487b7160e01b600052603260045260246000fd5b6001600160a01b039283166020918202929092010152600454825191169082906001908110610ace57634e487b7160e01b600052603260045260246000fd5b6001600160a01b0392831660209182029290920101526001546000916201000090910416637ff36ab5348b8530610b06426032612adf565b6040518663ffffffff1660e01b8152600401610b2594939291906129a5565b6000604051808303818588803b158015610b3e57600080fd5b505af1158015610b52573d6000803e3d6000fd5b50505050506040513d6000823e601f3d908101601f19168201604052610b7b919081019061253f565b90506000600854905081600181518110610ba557634e487b7160e01b600052603260045260246000fd5b602002602001015160086000828254610bbe9190612adf565b9250508190555060066040518060800160405280336001600160a01b0316815260200189815260200184600181518110610c0857634e487b7160e01b600052603260045260246000fd5b602002602001015181526020018888808060200260200160405190810160405280939291908181526020018383602002808284376000920182905250939094525050835460018082018655948252602091829020845160049092020180546001600160a01b0319166001600160a01b0390921691909117815583820151948101949094556040830151600285015560608301518051939493610cb49350600385019291909101906122fd565b50506003546040516227753160e31b815260006004820152336024820152600160448201526001600160a01b03909116915063013ba98890606401600060405180830381600087803b158015610d0957600080fd5b505af1158015610d1d573d6000803e3d6000fd5b505050508585604051610d3192919061288a565b604051809103902082600181518110610d5a57634e487b7160e01b600052603260045260246000fd5b6020026020010151336001600160a01b0316600080516020612be88339815191528a85600854600554604051610da9949392919093845260208401929092526040830152606082015260800190565b60405180910390a48315610dd457600454600854610dd4916001600160a01b0316908b8b8a8a611d28565b50505050505050505050565b6000610deb81611c35565b506001600160a01b03166000908152600a60205260409020805460ff19166001179055565b600154610100900460ff1615808015610e2d57506001805460ff16105b80610e465750303b158015610e4657506001805460ff16145b610ea95760405162461bcd60e51b815260206004820152602e60248201527f496e697469616c697a61626c653a20636f6e747261637420697320616c72656160448201526d191e481a5b9a5d1a585b1a5e995960921b60648201526084016106dd565b6001805460ff1916811790558015610ecb576001805461ff0019166101001790555b610ed6600033611f8d565b6001805462010000600160b01b031916757a250d5630b4cf539739df2c5dacb4c659f2488d00001790556101f46005558015610f4b576001805461ff00191681556040519081527f7f26b83ff96e1f2b6a682f133852f6798a09c465da95921460cefb38474024989060200160405180910390a15b50565b6001600160a01b0387166000908152600a602052604090205460ff16610f865760405162461bcd60e51b81526004016106dd9061295c565b6040516370a0823160e01b815233600482015287908a906001600160a01b038316906370a082319060240160206040518083038186803b158015610fc957600080fd5b505afa158015610fdd573d6000803e3d6000fd5b505050506040513d601f19601f820116820180604052508101906110019190612689565b101561104f5760405162461bcd60e51b815260206004820181905260248201527f416d6f756e7420746f20646f6e61746520657863656564732062616c616e636560448201526064016106dd565b604080516002808252606082018352600092602083019080368337019050509050888160008151811061109257634e487b7160e01b600052603260045260246000fd5b6001600160a01b0392831660209182029290920101526004548251911690829060019081106110d157634e487b7160e01b600052603260045260246000fd5b6001600160a01b0392831660209182029290920101526040516323b872dd60e01b8152336004820152306024820152604481018d9052908316906323b872dd90606401602060405180830381600087803b15801561112e57600080fd5b505af1158015611142573d6000803e3d6000fd5b505050506040513d601f19601f8201168201806040525081019061116691906125fe565b5060015460405163095ea7b360e01b8152620100009091046001600160a01b039081166004830152602482018d905283169063095ea7b390604401602060405180830381600087803b1580156111bb57600080fd5b505af11580156111cf573d6000803e3d6000fd5b505050506040513d601f19601f820116820180604052508101906111f391906125fe565b506001546000906201000090046001600160a01b03166338ed17398d8d853061121d426032612adf565b6040518663ffffffff1660e01b815260040161123d959493929190612aa3565b600060405180830381600087803b15801561125757600080fd5b505af115801561126b573d6000803e3d6000fd5b505050506040513d6000823e601f3d908101601f19168201604052611293919081019061253f565b905060006008549050816001815181106112bd57634e487b7160e01b600052603260045260246000fd5b6020026020010151600860008282546112d69190612adf565b9250508190555060066040518060800160405280336001600160a01b031681526020018881526020018460018151811061132057634e487b7160e01b600052603260045260246000fd5b602002602001015181526020018a8a808060200260200160405190810160405280939291908181526020018383602002808284376000920182905250939094525050835460018082018655948252602091829020845160049092020180546001600160a01b0319166001600160a01b03909216919091178155838201519481019490945560408301516002850155606083015180519394936113cc9350600385019291909101906122fd565b50506003546040516227753160e31b815260006004820152336024820152600160448201526001600160a01b03909116915063013ba98890606401600060405180830381600087803b15801561142157600080fd5b505af1158015611435573d6000803e3d6000fd5b50505050878760405161144992919061288a565b60405180910390208260018151811061147257634e487b7160e01b600052603260045260246000fd5b6020026020010151336001600160a01b0316600080516020612be883398151915289856008546005546040516114c1949392919093845260208401929092526040830152606082015260800190565b60405180910390a484156114ec576004546008546114ec916001600160a01b0316908c8c8c8c611d28565b50505050505050505050505050565b600061150681611c35565b610f4b3347611f97565b6004546001600160a01b0389811691161461153d5760405162461bcd60e51b81526004016106dd9061295c565b600480546040516370a0823160e01b815233928101929092526001600160a01b031690889082906370a082319060240160206040518083038186803b15801561158557600080fd5b505afa158015611599573d6000803e3d6000fd5b505050506040513d601f19601f820116820180604052508101906115bd9190612689565b101561160b5760405162461bcd60e51b815260206004820181905260248201527f416d6f756e7420746f20646f6e61746520657863656564732062616c616e636560448201526064016106dd565b6040516323b872dd60e01b8152336004820152306024820152604481018990526001600160a01b038216906323b872dd90606401602060405180830381600087803b15801561165957600080fd5b505af115801561166d573d6000803e3d6000fd5b505050506040513d601f19601f8201168201806040525081019061169191906125fe565b506008805490899060006116a58385612adf565b9250508190555060066040518060800160405280336001600160a01b031681526020018a81526020018b81526020018787808060200260200160405190810160405280939291908181526020018383602002808284376000920182905250939094525050835460018082018655948252602091829020845160049092020180546001600160a01b0319166001600160a01b03909216919091178155838201519481019490945560408301516002850155606083015180519394936117739350600385019291909101906122fd565b50506003546040516227753160e31b815260006004820152336024820152600160448201526001600160a01b03909116915063013ba98890606401600060405180830381600087803b1580156117c857600080fd5b505af11580156117dc573d6000803e3d6000fd5b5050505084846040516117f092919061288a565b604080519182900382206008546005548c855260208501869052928401526060830191909152908a903390600080516020612be88339815191529060800160405180910390a48215610dd457610dd48a60085489898989611d28565b6000918252602082815260408084206001600160a01b0393909316845291905290205460ff1690565b600061188081611c35565b50600280546001600160a01b0319166001600160a01b0392909216919091179055565b6002546001600160a01b031633146118fd5760405162461bcd60e51b815260206004820152601d60248201527f43616c6c6572206973204e6f742061206d61737465722077616c6c657400000060448201526064016106dd565b600480546040516370a0823160e01b815230928101929092526001600160a01b031690889082906370a082319060240160206040518083038186803b15801561194557600080fd5b505afa158015611959573d6000803e3d6000fd5b505050506040513d601f19601f8201168201806040525081019061197d9190612689565b10156119d65760405162461bcd60e51b815260206004820152602260248201527f416d6f756e7420746f20646973627572736520657863656564732062616c616e604482015261636560f01b60648201526084016106dd565b6008805490899060006119e98385612adf565b90915550506040516119fe908690869061288a565b604080519182900382206008546005548c855260208501869052928401526060830191909152908a903390600080516020612be88339815191529060800160405180910390a46000888152600b6020526040902054611a5e906001612adf565b600b60008a81526020019081526020016000208190555060066040518060800160405280336001600160a01b031681526020018a81526020018b81526020018787808060200260200160405190810160405280939291908181526020018383602002808284376000920182905250939094525050835460018082018655948252602091829020845160049092020180546001600160a01b0319166001600160a01b0390921691909117815583820151948101949094556040830151600285015560608301518051939493611b3c9350600385019291909101906122fd565b5050508215611b6257600454600854611b62916001600160a01b03169089898989611d28565b505050505050505050565b60078181548110611b7d57600080fd5b60009182526020909120600490910201805460018201546002909201546001600160a01b03909116925083565b600082815260208190526040902060010154611bc581611c35565b6107e58383611cc3565b60068181548110611b7d57600080fd5b6000611bea81611c35565b600480546001600160a01b0319166001600160a01b0384169081179091556040517f91d5bf4f9053246e98cdc0e5c39126503cfc274823cb7ec41f5c943cf09b7bc390600090a25050565b610f4b81336120b0565b611c49828261184c565b61096d576000828152602081815260408083206001600160a01b03851684529091529020805460ff19166001179055611c7f3390565b6001600160a01b0316816001600160a01b0316837f2f8788117e7eff1d82e926ec794901d17c78024a50270940304540a733656f0d60405160405180910390a45050565b611ccd828261184c565b1561096d576000828152602081815260408083206001600160a01b0385168085529252808320805460ff1916905551339285917ff6391f5c32d9c69d2a47ea670b442974b53935d1edc7fd64eb21e047a839171b9190a45050565b6000611d348487612af7565b905060005b84811015611e6357876001600160a01b031663a9059cbb878784818110611d7057634e487b7160e01b600052603260045260246000fd5b9050602002016020810190611d859190612461565b6040516001600160e01b031960e084901b1681526001600160a01b03909116600482015260248101859052604401602060405180830381600087803b158015611dcd57600080fd5b505af1158015611de1573d6000803e3d6000fd5b505050506040513d601f19601f82011682018060405250810190611e0591906125fe565b611e515760405162461bcd60e51b815260206004820152601860248201527f556e61626c6520746f207472616e7366657220746f6b656e000000000000000060448201526064016106dd565b80611e5b81612b7d565b915050611d39565b507f93c29dfe9fde6194f483044846de19f5179798204aba5d8e78453d439cdbff0c6008546006604051611e989291906129da565b60405180910390a160005b600654811015611f5757600760068281548110611ed057634e487b7160e01b600052603260045260246000fd5b6000918252602080832084546001818101875595855291909320600492830290930180549190920290920180546001600160a01b0319166001600160a01b0390931692909217825582810154928201929092556002808301549082015560038083018054611f419284019190612348565b5050508080611f4f90612b7d565b915050611ea3565b5060085460096000828254611f6c9190612adf565b909155505060006008819055611f8490600690612388565b50505050505050565b61096d8282611c3f565b80471015611fe75760405162461bcd60e51b815260206004820152601d60248201527f416464726573733a20696e73756666696369656e742062616c616e636500000060448201526064016106dd565b6000826001600160a01b03168260405160006040518083038185875af1925050503d8060008114612034576040519150601f19603f3d011682016040523d82523d6000602084013e612039565b606091505b50509050806107e55760405162461bcd60e51b815260206004820152603a60248201527f416464726573733a20756e61626c6520746f2073656e642076616c75652c207260448201527f6563697069656e74206d6179206861766520726576657274656400000000000060648201526084016106dd565b6120ba828261184c565b61096d576120d2816001600160a01b03166014612114565b6120dd836020612114565b6040516020016120ee9291906128b4565b60408051601f198184030181529082905262461bcd60e51b82526106dd91600401612929565b60606000612123836002612b17565b61212e906002612adf565b67ffffffffffffffff81111561215457634e487b7160e01b600052604160045260246000fd5b6040519080825280601f01601f19166020018201604052801561217e576020820181803683370190505b509050600360fc1b816000815181106121a757634e487b7160e01b600052603260045260246000fd5b60200101906001600160f81b031916908160001a905350600f60fb1b816001815181106121e457634e487b7160e01b600052603260045260246000fd5b60200101906001600160f81b031916908160001a9053506000612208846002612b17565b612213906001612adf565b90505b60018111156122a7576f181899199a1a9b1b9c1cb0b131b232b360811b85600f166010811061225557634e487b7160e01b600052603260045260246000fd5b1a60f81b82828151811061227957634e487b7160e01b600052603260045260246000fd5b60200101906001600160f81b031916908160001a90535060049490941c936122a081612b66565b9050612216565b5083156122f65760405162461bcd60e51b815260206004820181905260248201527f537472696e67733a20686578206c656e67746820696e73756666696369656e7460448201526064016106dd565b9392505050565b828054828255906000526020600020908101928215612338579160200282015b8281111561233857825182559160200191906001019061231d565b506123449291506123a9565b5090565b8280548282559060005260206000209081019282156123385760005260206000209182015b8281111561233857825482559160010191906001019061236d565b5080546000825560040290600052602060002090810190610f4b91906123be565b5b8082111561234457600081556001016123aa565b808211156123445780546001600160a01b0319168155600060018201819055600282018190556123f160038301826123fa565b506004016123be565b5080546000825590600052602060002090810190610f4b91906123a9565b60008083601f840112612429578081fd5b50813567ffffffffffffffff811115612440578182fd5b602083019150836020808302850101111561245a57600080fd5b9250929050565b600060208284031215612472578081fd5b81356122f681612bc4565b60006020828403121561248e578081fd5b81516122f681612bc4565b60008060008060008060008060c0898b0312156124b4578384fd5b88356124bf81612bc4565b97506020890135965060408901359550606089013567ffffffffffffffff808211156124e9578586fd5b6124f58c838d01612418565b909750955060808b013591508082111561250d578485fd5b5061251a8b828c01612418565b90945092505060a089013561252e81612bd9565b809150509295985092959890939650565b60006020808385031215612551578182fd5b825167ffffffffffffffff80821115612568578384fd5b818501915085601f83011261257b578384fd5b81518181111561258d5761258d612bae565b838102604051601f19603f830116810181811085821117156125b1576125b1612bae565b604052828152858101935084860182860187018a10156125cf578788fd5b8795505b838610156125f15780518552600195909501949386019386016125d3565b5098975050505050505050565b60006020828403121561260f578081fd5b81516122f681612bd9565b60006020828403121561262b578081fd5b5035919050565b60008060408385031215612644578182fd5b82359150602083013561265681612bc4565b809150509250929050565b600060208284031215612672578081fd5b81356001600160e01b0319811681146122f6578182fd5b60006020828403121561269a578081fd5b5051919050565b600080600080600080600060a0888a0312156126bb578283fd5b87359650602088013567ffffffffffffffff808211156126d9578485fd5b6126e58b838c01612418565b909850965060408a0135955060608a0135915080821115612704578485fd5b506127118a828b01612418565b909450925050608088013561272581612bd9565b8091505092959891949750929550565b600080600080600080600080600060e08a8c031215612752578283fd5b8935985060208a0135975060408a013561276b81612bc4565b965060608a013567ffffffffffffffff80821115612787578485fd5b6127938d838e01612418565b909850965060808c01359150808211156127ab578485fd5b506127b88c828d01612418565b90955093505060a08a0135915060c08a01356127d381612bd9565b809150509295985092959850929598565b600080600080600080600060a0888a0312156127fe578081fd5b8735965060208801359550604088013567ffffffffffffffff80821115612823578283fd5b61282f8b838c01612418565b909750955060608a0135915080821115612704578283fd5b6000815180845260208085019450808401835b8381101561287f5781516001600160a01b03168752958201959082019060010161285a565b509495945050505050565b60006001600160fb1b0383111561289f578081fd5b60208302808584379190910190815292915050565b60007f416363657373436f6e74726f6c3a206163636f756e7420000000000000000000825283516128ec816017850160208801612b36565b7001034b99036b4b9b9b4b733903937b6329607d1b601791840191820152835161291d816028840160208801612b36565b01602801949350505050565b6000602082528251806020840152612948816040850160208701612b36565b601f01601f19169190910160400192915050565b60208082526029908201527f5468697320746f6b656e206973206e6f74207265636f676e6973656420666f72604082015268103237b730ba34b7b760b91b606082015260800190565b6000858252608060208301526129be6080830186612847565b6001600160a01b03949094166040830152506060015292915050565b600060408083018584526020828186015281865480845260609350838701915083838202880101888752838720875b83811015612a9357898303605f1901855281546001600160a01b031683526001828101548785015260028301548985015260808885018190526003840180549186018290528b52878b2060a086019290918c905b80821015612a7a5783548552938a01939282019290820190612a5d565b5050509587019550925060049190910190600101612a09565b50909a9950505050505050505050565b600086825285602083015260a06040830152612ac260a0830186612847565b6001600160a01b0394909416606083015250608001529392505050565b60008219821115612af257612af2612b98565b500190565b600082612b1257634e487b7160e01b81526012600452602481fd5b500490565b6000816000190483118215151615612b3157612b31612b98565b500290565b60005b83811015612b51578181015183820152602001612b39565b83811115612b60576000848401525b50505050565b600081612b7557612b75612b98565b506000190190565b6000600019821415612b9157612b91612b98565b5060010190565b634e487b7160e01b600052601160045260246000fd5b634e487b7160e01b600052604160045260246000fd5b6001600160a01b0381168114610f4b57600080fd5b8015158114610f4b57600080fdfee3fc4215b1a55c5b24f61d2f68e0d0757dacfdc67e2aae6012120dddd6069ddba2646970667358221220fd0008411a796689781bb167863ea894204eac6c8f1230c608af2733a37df81464736f6c63430008020033",
  "linkReferences": {},
  "deployedLinkReferences": {}
}