{
  "_format": "hh-sol-artifact-1",
  "contractName": "MaraScan",
  "sourceName": "contracts/MaraScan.sol",
  "abi": [
    {
      "anonymous": false,
      "inputs": [
        {
          "indexed": true,
          "internalType": "address",
          "name": "contractAddress",
          "type": "address"
        }
      ],
      "name": "ApproveToken",
      "type": "event"
    },
    {
      "anonymous": false,
      "inputs": [
        {
          "indexed": true,
          "internalType": "address",
          "name": "newContract",
          "type": "address"
        }
      ],
      "name": "ChangedBadgeContract",
      "type": "event"
    },
    {
      "anonymous": false,
      "inputs": [
        {
          "indexed": true,
          "internalType": "address",
          "name": "newContract",
          "type": "address"
        }
      ],
      "name": "ChangedUSDCContract",
      "type": "event"
    },
    {
      "anonymous": false,
      "inputs": [
        {
          "indexed": false,
          "internalType": "uint256",
          "name": "amount",
          "type": "uint256"
        },
        {
          "components": [
            {
              "internalType": "address",
              "name": "donor",
              "type": "address"
            },
            {
              "internalType": "uint256",
              "name": "donationRequestId",
              "type": "uint256"
            },
            {
              "internalType": "uint256",
              "name": "amount",
              "type": "uint256"
            },
            {
              "internalType": "uint256[]",
              "name": "categories",
              "type": "uint256[]"
            }
          ],
          "indexed": false,
          "internalType": "struct MaraScan.Donation[]",
          "name": "donations",
          "type": "tuple[]"
        }
      ],
      "name": "Disbursed",
      "type": "event"
    },
    {
      "anonymous": false,
      "inputs": [
        {
          "indexed": true,
          "internalType": "address",
          "name": "donor",
          "type": "address"
        },
        {
          "indexed": true,
          "internalType": "uint256",
          "name": "amount",
          "type": "uint256"
        },
        {
          "indexed": false,
          "internalType": "uint256",
          "name": "donationRequestId",
          "type": "uint256"
        },
        {
          "indexed": false,
          "internalType": "uint256",
          "name": "previousUndisbursedBalance",
          "type": "uint256"
        },
        {
          "indexed": false,
          "internalType": "uint256",
          "name": "currentUndisbursedBalance",
          "type": "uint256"
        },
        {
          "indexed": true,
          "internalType": "uint256[]",
          "name": "categories",
          "type": "uint256[]"
        },
        {
          "indexed": false,
          "internalType": "uint256",
          "name": "minimumAmountToDisburse",
          "type": "uint256"
        }
      ],
      "name": "Donated",
      "type": "event"
    },
    {
      "anonymous": false,
      "inputs": [
        {
          "indexed": false,
          "internalType": "uint8",
          "name": "version",
          "type": "uint8"
        }
      ],
      "name": "Initialized",
      "type": "event"
    },
    {
      "anonymous": false,
      "inputs": [
        {
          "indexed": true,
          "internalType": "bytes32",
          "name": "role",
          "type": "bytes32"
        },
        {
          "indexed": true,
          "internalType": "bytes32",
          "name": "previousAdminRole",
          "type": "bytes32"
        },
        {
          "indexed": true,
          "internalType": "bytes32",
          "name": "newAdminRole",
          "type": "bytes32"
        }
      ],
      "name": "RoleAdminChanged",
      "type": "event"
    },
    {
      "anonymous": false,
      "inputs": [
        {
          "indexed": true,
          "internalType": "bytes32",
          "name": "role",
          "type": "bytes32"
        },
        {
          "indexed": true,
          "internalType": "address",
          "name": "account",
          "type": "address"
        },
        {
          "indexed": true,
          "internalType": "address",
          "name": "sender",
          "type": "address"
        }
      ],
      "name": "RoleGranted",
      "type": "event"
    },
    {
      "anonymous": false,
      "inputs": [
        {
          "indexed": true,
          "internalType": "bytes32",
          "name": "role",
          "type": "bytes32"
        },
        {
          "indexed": true,
          "internalType": "address",
          "name": "account",
          "type": "address"
        },
        {
          "indexed": true,
          "internalType": "address",
          "name": "sender",
          "type": "address"
        }
      ],
      "name": "RoleRevoked",
      "type": "event"
    },
    {
      "inputs": [],
      "name": "ADMIN_ROLE",
      "outputs": [
        {
          "internalType": "bytes32",
          "name": "",
          "type": "bytes32"
        }
      ],
      "stateMutability": "view",
      "type": "function"
    },
    {
      "inputs": [],
      "name": "BADGE",
      "outputs": [
        {
          "internalType": "address",
          "name": "",
          "type": "address"
        }
      ],
      "stateMutability": "view",
      "type": "function"
    },
    {
      "inputs": [],
      "name": "DEFAULT_ADMIN_ROLE",
      "outputs": [
        {
          "internalType": "bytes32",
          "name": "",
          "type": "bytes32"
        }
      ],
      "stateMutability": "view",
      "type": "function"
    },
    {
      "inputs": [],
      "name": "MASTER_WALLET",
      "outputs": [
        {
          "internalType": "address",
          "name": "",
          "type": "address"
        }
      ],
      "stateMutability": "view",
      "type": "function"
    },
    {
      "inputs": [
        {
          "internalType": "uint256",
          "name": "amountOut",
          "type": "uint256"
        },
        {
          "internalType": "address[]",
          "name": "_beneficiaries",
          "type": "address[]"
        },
        {
          "internalType": "uint256",
          "name": "_donationRequestId",
          "type": "uint256"
        },
        {
          "internalType": "uint256[]",
          "name": "_category",
          "type": "uint256[]"
        },
        {
          "internalType": "bool",
          "name": "disburse",
          "type": "bool"
        }
      ],
      "name": "SwapExactETHForTokens",
      "outputs": [],
      "stateMutability": "payable",
      "type": "function"
    },
    {
      "inputs": [],
      "name": "USDC",
      "outputs": [
        {
          "internalType": "address",
          "name": "",
          "type": "address"
        }
      ],
      "stateMutability": "view",
      "type": "function"
    },
    {
      "inputs": [
        {
          "internalType": "uint256",
          "name": "",
          "type": "uint256"
        }
      ],
      "name": "allDisbursedDonations",
      "outputs": [
        {
          "internalType": "address",
          "name": "donor",
          "type": "address"
        },
        {
          "internalType": "uint256",
          "name": "donationRequestId",
          "type": "uint256"
        },
        {
          "internalType": "uint256",
          "name": "amount",
          "type": "uint256"
        }
      ],
      "stateMutability": "view",
      "type": "function"
    },
    {
      "inputs": [
        {
          "internalType": "address",
          "name": "spender",
          "type": "address"
        },
        {
          "internalType": "uint256",
          "name": "amount",
          "type": "uint256"
        },
        {
          "internalType": "address",
          "name": "contractAddress",
          "type": "address"
        }
      ],
      "name": "approve",
      "outputs": [],
      "stateMutability": "nonpayable",
      "type": "function"
    },
    {
      "inputs": [
        {
          "internalType": "address",
          "name": "_tokenAddress",
          "type": "address"
        }
      ],
      "name": "approveTokenForDonation",
      "outputs": [],
      "stateMutability": "nonpayable",
      "type": "function"
    },
    {
      "inputs": [
        {
          "internalType": "address",
          "name": "",
          "type": "address"
        }
      ],
      "name": "approvedTokens",
      "outputs": [
        {
          "internalType": "bool",
          "name": "",
          "type": "bool"
        }
      ],
      "stateMutability": "view",
      "type": "function"
    },
    {
      "inputs": [
        {
          "internalType": "uint256",
          "name": "donationRequestId",
          "type": "uint256"
        }
      ],
      "name": "claimBadge",
      "outputs": [],
      "stateMutability": "nonpayable",
      "type": "function"
    },
    {
      "inputs": [
        {
          "internalType": "uint256",
          "name": "",
          "type": "uint256"
        }
      ],
      "name": "claimBadgesForDonors",
      "outputs": [
        {
          "internalType": "uint256",
          "name": "",
          "type": "uint256"
        }
      ],
      "stateMutability": "view",
      "type": "function"
    },
    {
      "inputs": [
        {
          "internalType": "address",
          "name": "_tokenAddress",
          "type": "address"
        },
        {
          "internalType": "uint256",
          "name": "_amount",
          "type": "uint256"
        },
        {
          "internalType": "uint256",
          "name": "_donationRequestId",
          "type": "uint256"
        },
        {
          "internalType": "address[]",
          "name": "_beneficiaries",
          "type": "address[]"
        },
        {
          "internalType": "uint256[]",
          "name": "_category",
          "type": "uint256[]"
        },
        {
          "internalType": "bool",
          "name": "disburse",
          "type": "bool"
        }
      ],
      "name": "donate",
      "outputs": [],
      "stateMutability": "nonpayable",
      "type": "function"
    },
    {
      "inputs": [
        {
          "internalType": "uint256",
          "name": "_amount",
          "type": "uint256"
        },
        {
          "internalType": "uint256",
          "name": "_donationRequestId",
          "type": "uint256"
        },
        {
          "internalType": "address[]",
          "name": "_beneficiaries",
          "type": "address[]"
        },
        {
          "internalType": "uint256[]",
          "name": "_category",
          "type": "uint256[]"
        },
        {
          "internalType": "bool",
          "name": "disburse",
          "type": "bool"
        }
      ],
      "name": "donationFromCircle",
      "outputs": [],
      "stateMutability": "nonpayable",
      "type": "function"
    },
    {
      "inputs": [],
      "name": "emergencyWithdrawETH",
      "outputs": [],
      "stateMutability": "nonpayable",
      "type": "function"
    },
    {
      "inputs": [
        {
          "internalType": "address",
          "name": "_tokenAddress",
          "type": "address"
        }
      ],
      "name": "emergencyWithdrawToken",
      "outputs": [],
      "stateMutability": "nonpayable",
      "type": "function"
    },
    {
      "inputs": [
        {
          "internalType": "bytes32",
          "name": "role",
          "type": "bytes32"
        }
      ],
      "name": "getRoleAdmin",
      "outputs": [
        {
          "internalType": "bytes32",
          "name": "",
          "type": "bytes32"
        }
      ],
      "stateMutability": "view",
      "type": "function"
    },
    {
      "inputs": [
        {
          "internalType": "bytes32",
          "name": "role",
          "type": "bytes32"
        },
        {
          "internalType": "address",
          "name": "account",
          "type": "address"
        }
      ],
      "name": "grantRole",
      "outputs": [],
      "stateMutability": "nonpayable",
      "type": "function"
    },
    {
      "inputs": [
        {
          "internalType": "bytes32",
          "name": "role",
          "type": "bytes32"
        },
        {
          "internalType": "address",
          "name": "account",
          "type": "address"
        }
      ],
      "name": "hasRole",
      "outputs": [
        {
          "internalType": "bool",
          "name": "",
          "type": "bool"
        }
      ],
      "stateMutability": "view",
      "type": "function"
    },
    {
      "inputs": [],
      "name": "initialize",
      "outputs": [],
      "stateMutability": "nonpayable",
      "type": "function"
    },
    {
      "inputs": [],
      "name": "minimumAmountToDisburse",
      "outputs": [
        {
          "internalType": "uint256",
          "name": "",
          "type": "uint256"
        }
      ],
      "stateMutability": "view",
      "type": "function"
    },
    {
      "inputs": [
        {
          "internalType": "bytes32",
          "name": "role",
          "type": "bytes32"
        },
        {
          "internalType": "address",
          "name": "account",
          "type": "address"
        }
      ],
      "name": "renounceRole",
      "outputs": [],
      "stateMutability": "nonpayable",
      "type": "function"
    },
    {
      "inputs": [
        {
          "internalType": "bytes32",
          "name": "role",
          "type": "bytes32"
        },
        {
          "internalType": "address",
          "name": "account",
          "type": "address"
        }
      ],
      "name": "revokeRole",
      "outputs": [],
      "stateMutability": "nonpayable",
      "type": "function"
    },
    {
      "inputs": [
        {
          "internalType": "address",
          "name": "_tokenAddress",
          "type": "address"
        }
      ],
      "name": "setBadgeTokenContract",
      "outputs": [],
      "stateMutability": "nonpayable",
      "type": "function"
    },
    {
      "inputs": [
        {
          "internalType": "address",
          "name": "_masterWallet",
          "type": "address"
        }
      ],
      "name": "setMasterWallet",
      "outputs": [],
      "stateMutability": "nonpayable",
      "type": "function"
    },
    {
      "inputs": [
        {
          "internalType": "address",
          "name": "_tokenAddress",
          "type": "address"
        }
      ],
      "name": "setUSDCTokenContract",
      "outputs": [],
      "stateMutability": "nonpayable",
      "type": "function"
    },
    {
      "inputs": [
        {
          "internalType": "bytes4",
          "name": "interfaceId",
          "type": "bytes4"
        }
      ],
      "name": "supportsInterface",
      "outputs": [
        {
          "internalType": "bool",
          "name": "",
          "type": "bool"
        }
      ],
      "stateMutability": "view",
      "type": "function"
    },
    {
      "inputs": [
        {
          "internalType": "uint256",
          "name": "amountIn",
          "type": "uint256"
        },
        {
          "internalType": "uint256",
          "name": "amountOutMin",
          "type": "uint256"
        },
        {
          "internalType": "address",
          "name": "tokenIn",
          "type": "address"
        },
        {
          "internalType": "address[]",
          "name": "_beneficiaries",
          "type": "address[]"
        },
        {
          "internalType": "uint256[]",
          "name": "_category",
          "type": "uint256[]"
        },
        {
          "internalType": "uint256",
          "name": "_donationRequestId",
          "type": "uint256"
        },
        {
          "internalType": "bool",
          "name": "disburse",
          "type": "bool"
        }
      ],
      "name": "swapExactTokensForTokens",
      "outputs": [],
      "stateMutability": "nonpayable",
      "type": "function"
    },
    {
      "inputs": [],
      "name": "totalAmountDisbursed",
      "outputs": [
        {
          "internalType": "uint256",
          "name": "",
          "type": "uint256"
        }
      ],
      "stateMutability": "view",
      "type": "function"
    },
    {
      "inputs": [],
      "name": "unDisbursedAmount",
      "outputs": [
        {
          "internalType": "uint256",
          "name": "",
          "type": "uint256"
        }
      ],
      "stateMutability": "view",
      "type": "function"
    },
    {
      "inputs": [
        {
          "internalType": "uint256",
          "name": "",
          "type": "uint256"
        }
      ],
      "name": "unDisbursedDonations",
      "outputs": [
        {
          "internalType": "address",
          "name": "donor",
          "type": "address"
        },
        {
          "internalType": "uint256",
          "name": "donationRequestId",
          "type": "uint256"
        },
        {
          "internalType": "uint256",
          "name": "amount",
          "type": "uint256"
        }
      ],
      "stateMutability": "view",
      "type": "function"
    },
    {
      "inputs": [],
      "name": "uniswapRouter",
      "outputs": [
        {
          "internalType": "contract IUniswapV2Router02",
          "name": "",
          "type": "address"
        }
      ],
      "stateMutability": "view",
      "type": "function"
    }
  ],
  "bytecode": "0x608060405234801561001057600080fd5b50612b9d806100206000396000f3fe6080604052600436106101e35760003560e01c80637f49a93211610102578063a217fddf11610095578063d547741f11610064578063d547741f1461059b578063d5d0c6f0146105bb578063d60bb296146105db578063eead6fd8146105f1576101e3565b8063a217fddf1461040a578063a6c7bf8a14610516578063a9cf4fcf14610536578063b0583c9414610556576101e3565b80638623afef116100d15780638623afef1461048957806389a30271146104b65780638f4542d1146104d657806391d14854146104f6576101e3565b80637f49a9321461041f5780638129fc1c1461043f57806382eb73ad146104545780638453601714610474576101e3565b8063305c53101161017a5780636d1ea3fa116101495780636d1ea3fa146103a157806372a82275146103d1578063735de9f7146103e457806375b238fc1461040a576101e3565b8063305c53101461032b57806336568abe146103415780633c2c4b5e14610361578063656ad72314610381576101e3565b806323415135116101b65780632341513514610297578063248a9ca3146102b757806327d9f3a6146102f55780632f2ff15d1461030b576101e3565b806301ffc9a7146101e85780631271f09a1461021d5780631af032031461023f5780631d527d811461025f575b600080fd5b3480156101f457600080fd5b506102086102033660046125e5565b610611565b60405190151581526020015b60405180910390f35b34801561022957600080fd5b5061023d6102383660046123dc565b610648565b005b34801561024b57600080fd5b5061023d61025a3660046123a4565b6106d0565b34801561026b57600080fd5b5060035461027f906001600160a01b031681565b6040516001600160a01b039091168152602001610214565b3480156102a357600080fd5b5061023d6102b236600461259e565b61089d565b3480156102c357600080fd5b506102e76102d236600461259e565b60009081526020819052604090206001015490565b604051908152602001610214565b34801561030157600080fd5b506102e760055481565b34801561031757600080fd5b5061023d6103263660046125b6565b610981565b34801561033757600080fd5b506102e760095481565b34801561034d57600080fd5b5061023d61035c3660046125b6565b6109a6565b34801561036d57600080fd5b5060025461027f906001600160a01b031681565b34801561038d57600080fd5b5061023d61039c3660046123a4565b610a24565b3480156103ad57600080fd5b506102086103bc3660046123a4565b600a6020526000908152604090205460ff1681565b61023d6103df366004612625565b610a7a565b3480156103f057600080fd5b5060015461027f906201000090046001600160a01b031681565b34801561041657600080fd5b506102e7600081565b34801561042b57600080fd5b5061023d61043a3660046123a4565b610d99565b34801561044b57600080fd5b5061023d610dc9565b34801561046057600080fd5b5061023d61046f3660046126b9565b610f2f565b34801561048057600080fd5b5061023d611484565b34801561049557600080fd5b506102e76104a436600461259e565b600b6020526000908152604090205481565b3480156104c257600080fd5b5060045461027f906001600160a01b031681565b3480156104e257600080fd5b5061023d6104f136600461241d565b611499565b34801561050257600080fd5b506102086105113660046125b6565b61177d565b34801561052257600080fd5b5061023d6105313660046123a4565b6117a6565b34801561054257600080fd5b5061023d610551366004612768565b6117d4565b34801561056257600080fd5b5061057661057136600461259e565b611ab0565b604080516001600160a01b039094168452602084019290925290820152606001610214565b3480156105a757600080fd5b5061023d6105b63660046125b6565b611aed565b3480156105c757600080fd5b506105766105d636600461259e565b611b12565b3480156105e757600080fd5b506102e760085481565b3480156105fd57600080fd5b5061023d61060c3660046123a4565b611b22565b60006001600160e01b03198216637965db0b60e01b148061064257506301ffc9a760e01b6001600160e01b03198316145b92915050565b60405163095ea7b360e01b81526001600160a01b0384811660048301526024820184905282169063095ea7b390604401602060405180830381600087803b15801561069257600080fd5b505af11580156106a6573d6000803e3d6000fd5b505050506040513d601f19601f820116820180604052508101906106ca9190612582565b50505050565b60006106db81611b78565b6040516370a0823160e01b81523060048201526000906001600160a01b038416906370a082319060240160206040518083038186803b15801561071d57600080fd5b505afa158015610731573d6000803e3d6000fd5b505050506040513d601f19601f82011682018060405250810190610755919061260d565b116107995760405162461bcd60e51b815260206004820152600f60248201526e15985b1d59481d1bdbc81cdb585b1b608a1b60448201526064015b60405180910390fd5b6040516370a0823160e01b81523060048201526001600160a01b0383169063a9059cbb90339083906370a082319060240160206040518083038186803b1580156107e257600080fd5b505afa1580156107f6573d6000803e3d6000fd5b505050506040513d601f19601f8201168201806040525081019061081a919061260d565b6040516001600160e01b031960e085901b1681526001600160a01b0390921660048301526024820152604401602060405180830381600087803b15801561086057600080fd5b505af1158015610874573d6000803e3d6000fd5b505050506040513d601f19601f820116820180604052508101906108989190612582565b505050565b6000818152600b60205260409020546108f85760405162461bcd60e51b815260206004820152601960248201527f596f7520646f6e2774206861766520616e7920636c616d6973000000000000006044820152606401610790565b6003546000828152600b60205260408082205490516227753160e31b8152600481019290925233602483015260448201526001600160a01b039091169063013ba98890606401600060405180830381600087803b15801561095857600080fd5b505af115801561096c573d6000803e3d6000fd5b505050600091825250600b6020526040812055565b60008281526020819052604090206001015461099c81611b78565b6108988383611b82565b6001600160a01b0381163314610a165760405162461bcd60e51b815260206004820152602f60248201527f416363657373436f6e74726f6c3a2063616e206f6e6c792072656e6f756e636560448201526e103937b632b9903337b91039b2b63360891b6064820152608401610790565b610a208282611c06565b5050565b6000610a2f81611b78565b600380546001600160a01b0319166001600160a01b0384169081179091556040517f07d0f313d785d0a6e19240fc9a591f3d8e79b3c463c30276ea9e7678409ad0f890600090a25050565b604080516002808252606082018352600092602083019080368337019050509050600160029054906101000a90046001600160a01b03166001600160a01b031663ad5c46486040518163ffffffff1660e01b815260040160206040518083038186803b158015610ae957600080fd5b505afa158015610afd573d6000803e3d6000fd5b505050506040513d601f19601f82011682018060405250810190610b2191906123c0565b81600081518110610b4257634e487b7160e01b600052603260045260246000fd5b6001600160a01b039283166020918202929092010152600454825191169082906001908110610b8157634e487b7160e01b600052603260045260246000fd5b6001600160a01b0392831660209182029290920101526001546000916201000090910416637ff36ab5348b8530610bb9426032612a63565b6040518663ffffffff1660e01b8152600401610bd89493929190612929565b6000604051808303818588803b158015610bf157600080fd5b505af1158015610c05573d6000803e3d6000fd5b50505050506040513d6000823e601f3d908101601f19168201604052610c2e91908101906124c3565b90506000600854905081600181518110610c5857634e487b7160e01b600052603260045260246000fd5b602002602001015160086000828254610c719190612a63565b9250508190555060066040518060800160405280336001600160a01b0316815260200189815260200184600181518110610cbb57634e487b7160e01b600052603260045260246000fd5b602002602001015181526020018888808060200260200160405190810160405280939291908181526020018383602002808284376000920182905250939094525050835460018082018655948252602091829020845160049092020180546001600160a01b0319166001600160a01b0390921691909117815583820151948101949094556040830151600285015560608301518051939493610d67935060038501929190910190612240565b5050508315610d8d57600454600854610d8d916001600160a01b0316908b8b8a8a611c6b565b50505050505050505050565b6000610da481611b78565b506001600160a01b03166000908152600a60205260409020805460ff19166001179055565b600154610100900460ff1615808015610de657506001805460ff16105b80610dff5750303b158015610dff57506001805460ff16145b610e625760405162461bcd60e51b815260206004820152602e60248201527f496e697469616c697a61626c653a20636f6e747261637420697320616c72656160448201526d191e481a5b9a5d1a585b1a5e995960921b6064820152608401610790565b6001805460ff1916811790558015610e84576001805461ff0019166101001790555b610e8f600033611ed0565b60018054757a250d5630b4cf539739df2c5dacb4c659f2488d000062010000600160b01b03199091161790556101f4600555600480546001600160a01b0319167307865c6e87b9f70255377e024ace6630c1eaa37f1790558015610f2c576001805461ff00191681556040519081527f7f26b83ff96e1f2b6a682f133852f6798a09c465da95921460cefb38474024989060200160405180910390a15b50565b6001600160a01b0387166000908152600a602052604090205460ff16610f675760405162461bcd60e51b8152600401610790906128e0565b6040516370a0823160e01b815233600482015287908a906001600160a01b038316906370a082319060240160206040518083038186803b158015610faa57600080fd5b505afa158015610fbe573d6000803e3d6000fd5b505050506040513d601f19601f82011682018060405250810190610fe2919061260d565b10156110305760405162461bcd60e51b815260206004820181905260248201527f416d6f756e7420746f20646f6e61746520657863656564732062616c616e63656044820152606401610790565b604080516002808252606082018352600092602083019080368337019050509050888160008151811061107357634e487b7160e01b600052603260045260246000fd5b6001600160a01b0392831660209182029290920101526004548251911690829060019081106110b257634e487b7160e01b600052603260045260246000fd5b6001600160a01b0392831660209182029290920101526040516323b872dd60e01b8152336004820152306024820152604481018d9052908316906323b872dd90606401602060405180830381600087803b15801561110f57600080fd5b505af1158015611123573d6000803e3d6000fd5b505050506040513d601f19601f820116820180604052508101906111479190612582565b5060015460405163095ea7b360e01b8152620100009091046001600160a01b039081166004830152602482018d905283169063095ea7b390604401602060405180830381600087803b15801561119c57600080fd5b505af11580156111b0573d6000803e3d6000fd5b505050506040513d601f19601f820116820180604052508101906111d49190612582565b506001546000906201000090046001600160a01b03166338ed17398d8d85306111fe426032612a63565b6040518663ffffffff1660e01b815260040161121e959493929190612a27565b600060405180830381600087803b15801561123857600080fd5b505af115801561124c573d6000803e3d6000fd5b505050506040513d6000823e601f3d908101601f1916820160405261127491908101906124c3565b9050600060085490508160018151811061129e57634e487b7160e01b600052603260045260246000fd5b6020026020010151600860008282546112b79190612a63565b9250508190555060066040518060800160405280336001600160a01b031681526020018881526020018460018151811061130157634e487b7160e01b600052603260045260246000fd5b602002602001015181526020018a8a808060200260200160405190810160405280939291908181526020018383602002808284376000920182905250939094525050835460018082018655948252602091829020845160049092020180546001600160a01b0319166001600160a01b03909216919091178155838201519481019490945560408301516002850155606083015180519394936113ad935060038501929190910190612240565b50505087876040516113c092919061280e565b6040518091039020826001815181106113e957634e487b7160e01b600052603260045260246000fd5b6020026020010151336001600160a01b03167fe3fc4215b1a55c5b24f61d2f68e0d0757dacfdc67e2aae6012120dddd6069ddb898560085460055460405161144a949392919093845260208401929092526040830152606082015260800190565b60405180910390a4841561147557600454600854611475916001600160a01b0316908c8c8c8c611c6b565b50505050505050505050505050565b600061148f81611b78565b610f2c3347611eda565b6004546001600160a01b038981169116146114c65760405162461bcd60e51b8152600401610790906128e0565b600480546040516370a0823160e01b815233928101929092526001600160a01b031690889082906370a082319060240160206040518083038186803b15801561150e57600080fd5b505afa158015611522573d6000803e3d6000fd5b505050506040513d601f19601f82011682018060405250810190611546919061260d565b10156115945760405162461bcd60e51b815260206004820181905260248201527f416d6f756e7420746f20646f6e61746520657863656564732062616c616e63656044820152606401610790565b6040516323b872dd60e01b8152336004820152306024820152604481018990526001600160a01b038216906323b872dd90606401602060405180830381600087803b1580156115e257600080fd5b505af11580156115f6573d6000803e3d6000fd5b505050506040513d601f19601f8201168201806040525081019061161a9190612582565b5060088054908990600061162e8385612a63565b9250508190555060066040518060800160405280336001600160a01b031681526020018a81526020018b81526020018787808060200260200160405190810160405280939291908181526020018383602002808284376000920182905250939094525050835460018082018655948252602091829020845160049092020180546001600160a01b0319166001600160a01b03909216919091178155838201519481019490945560408301516002850155606083015180519394936116fc935060038501929190910190612240565b505050848460405161170f92919061280e565b604080519182900382206008546005548c855260208501869052928401526060830191909152908a9033907fe3fc4215b1a55c5b24f61d2f68e0d0757dacfdc67e2aae6012120dddd6069ddb9060800160405180910390a48215610d8d57610d8d8a60085489898989611c6b565b6000918252602082815260408084206001600160a01b0393909316845291905290205460ff1690565b60006117b181611b78565b50600280546001600160a01b0319166001600160a01b0392909216919091179055565b6002546001600160a01b0316331461182e5760405162461bcd60e51b815260206004820152601d60248201527f43616c6c6572206973204e6f742061206d61737465722077616c6c65740000006044820152606401610790565b600480546040516370a0823160e01b815230928101929092526001600160a01b031690889082906370a082319060240160206040518083038186803b15801561187657600080fd5b505afa15801561188a573d6000803e3d6000fd5b505050506040513d601f19601f820116820180604052508101906118ae919061260d565b10156119075760405162461bcd60e51b815260206004820152602260248201527f416d6f756e7420746f20646973627572736520657863656564732062616c616e604482015261636560f01b6064820152608401610790565b60088054908990600061191a8385612a63565b909155505060405161192f908690869061280e565b604080519182900382206008546005548c855260208501869052928401526060830191909152908a9033907fe3fc4215b1a55c5b24f61d2f68e0d0757dacfdc67e2aae6012120dddd6069ddb9060800160405180910390a46000888152600b60205260409020546119a1906001612a63565b600b60008a81526020019081526020016000208190555060066040518060800160405280336001600160a01b031681526020018a81526020018b81526020018787808060200260200160405190810160405280939291908181526020018383602002808284376000920182905250939094525050835460018082018655948252602091829020845160049092020180546001600160a01b0319166001600160a01b0390921691909117815583820151948101949094556040830151600285015560608301518051939493611a7f935060038501929190910190612240565b5050508215611aa557600454600854611aa5916001600160a01b03169089898989611c6b565b505050505050505050565b60078181548110611ac057600080fd5b60009182526020909120600490910201805460018201546002909201546001600160a01b03909116925083565b600082815260208190526040902060010154611b0881611b78565b6108988383611c06565b60068181548110611ac057600080fd5b6000611b2d81611b78565b600480546001600160a01b0319166001600160a01b0384169081179091556040517f91d5bf4f9053246e98cdc0e5c39126503cfc274823cb7ec41f5c943cf09b7bc390600090a25050565b610f2c8133611ff3565b611b8c828261177d565b610a20576000828152602081815260408083206001600160a01b03851684529091529020805460ff19166001179055611bc23390565b6001600160a01b0316816001600160a01b0316837f2f8788117e7eff1d82e926ec794901d17c78024a50270940304540a733656f0d60405160405180910390a45050565b611c10828261177d565b15610a20576000828152602081815260408083206001600160a01b0385168085529252808320805460ff1916905551339285917ff6391f5c32d9c69d2a47ea670b442974b53935d1edc7fd64eb21e047a839171b9190a45050565b6000611c778487612a7b565b905060005b84811015611da657876001600160a01b031663a9059cbb878784818110611cb357634e487b7160e01b600052603260045260246000fd5b9050602002016020810190611cc891906123a4565b6040516001600160e01b031960e084901b1681526001600160a01b03909116600482015260248101859052604401602060405180830381600087803b158015611d1057600080fd5b505af1158015611d24573d6000803e3d6000fd5b505050506040513d601f19601f82011682018060405250810190611d489190612582565b611d945760405162461bcd60e51b815260206004820152601860248201527f556e61626c6520746f207472616e7366657220746f6b656e00000000000000006044820152606401610790565b80611d9e81612afd565b915050611c7c565b507f93c29dfe9fde6194f483044846de19f5179798204aba5d8e78453d439cdbff0c6008546006604051611ddb92919061295e565b60405180910390a160005b600654811015611e9a57600760068281548110611e1357634e487b7160e01b600052603260045260246000fd5b6000918252602080832084546001818101875595855291909320600492830290930180549190920290920180546001600160a01b0319166001600160a01b0390931692909217825582810154928201929092556002808301549082015560038083018054611e84928401919061228b565b5050508080611e9290612afd565b915050611de6565b5060085460096000828254611eaf9190612a63565b909155505060006008819055611ec7906006906122cb565b50505050505050565b610a208282611b82565b80471015611f2a5760405162461bcd60e51b815260206004820152601d60248201527f416464726573733a20696e73756666696369656e742062616c616e63650000006044820152606401610790565b6000826001600160a01b03168260405160006040518083038185875af1925050503d8060008114611f77576040519150601f19603f3d011682016040523d82523d6000602084013e611f7c565b606091505b50509050806108985760405162461bcd60e51b815260206004820152603a60248201527f416464726573733a20756e61626c6520746f2073656e642076616c75652c207260448201527f6563697069656e74206d617920686176652072657665727465640000000000006064820152608401610790565b611ffd828261177d565b610a2057612015816001600160a01b03166014612057565b612020836020612057565b604051602001612031929190612838565b60408051601f198184030181529082905262461bcd60e51b8252610790916004016128ad565b60606000612066836002612a9b565b612071906002612a63565b67ffffffffffffffff81111561209757634e487b7160e01b600052604160045260246000fd5b6040519080825280601f01601f1916602001820160405280156120c1576020820181803683370190505b509050600360fc1b816000815181106120ea57634e487b7160e01b600052603260045260246000fd5b60200101906001600160f81b031916908160001a905350600f60fb1b8160018151811061212757634e487b7160e01b600052603260045260246000fd5b60200101906001600160f81b031916908160001a905350600061214b846002612a9b565b612156906001612a63565b90505b60018111156121ea576f181899199a1a9b1b9c1cb0b131b232b360811b85600f166010811061219857634e487b7160e01b600052603260045260246000fd5b1a60f81b8282815181106121bc57634e487b7160e01b600052603260045260246000fd5b60200101906001600160f81b031916908160001a90535060049490941c936121e381612ae6565b9050612159565b5083156122395760405162461bcd60e51b815260206004820181905260248201527f537472696e67733a20686578206c656e67746820696e73756666696369656e746044820152606401610790565b9392505050565b82805482825590600052602060002090810192821561227b579160200282015b8281111561227b578251825591602001919060010190612260565b506122879291506122ec565b5090565b82805482825590600052602060002090810192821561227b5760005260206000209182015b8281111561227b5782548255916001019190600101906122b0565b5080546000825560040290600052602060002090810190610f2c9190612301565b5b8082111561228757600081556001016122ed565b808211156122875780546001600160a01b031916815560006001820181905560028201819055612334600383018261233d565b50600401612301565b5080546000825590600052602060002090810190610f2c91906122ec565b60008083601f84011261236c578081fd5b50813567ffffffffffffffff811115612383578182fd5b602083019150836020808302850101111561239d57600080fd5b9250929050565b6000602082840312156123b5578081fd5b813561223981612b44565b6000602082840312156123d1578081fd5b815161223981612b44565b6000806000606084860312156123f0578182fd5b83356123fb81612b44565b925060208401359150604084013561241281612b44565b809150509250925092565b60008060008060008060008060c0898b031215612438578384fd5b883561244381612b44565b97506020890135965060408901359550606089013567ffffffffffffffff8082111561246d578586fd5b6124798c838d0161235b565b909750955060808b0135915080821115612491578485fd5b5061249e8b828c0161235b565b90945092505060a08901356124b281612b59565b809150509295985092959890939650565b600060208083850312156124d5578182fd5b825167ffffffffffffffff808211156124ec578384fd5b818501915085601f8301126124ff578384fd5b81518181111561251157612511612b2e565b838102604051601f19603f8301168101818110858211171561253557612535612b2e565b604052828152858101935084860182860187018a1015612553578788fd5b8795505b83861015612575578051855260019590950194938601938601612557565b5098975050505050505050565b600060208284031215612593578081fd5b815161223981612b59565b6000602082840312156125af578081fd5b5035919050565b600080604083850312156125c8578182fd5b8235915060208301356125da81612b44565b809150509250929050565b6000602082840312156125f6578081fd5b81356001600160e01b031981168114612239578182fd5b60006020828403121561261e578081fd5b5051919050565b600080600080600080600060a0888a03121561263f578283fd5b87359650602088013567ffffffffffffffff8082111561265d578485fd5b6126698b838c0161235b565b909850965060408a0135955060608a0135915080821115612688578485fd5b506126958a828b0161235b565b90945092505060808801356126a981612b59565b8091505092959891949750929550565b600080600080600080600080600060e08a8c0312156126d6578283fd5b8935985060208a0135975060408a01356126ef81612b44565b965060608a013567ffffffffffffffff8082111561270b578485fd5b6127178d838e0161235b565b909850965060808c013591508082111561272f578485fd5b5061273c8c828d0161235b565b90955093505060a08a0135915060c08a013561275781612b59565b809150509295985092959850929598565b600080600080600080600060a0888a031215612782578081fd5b8735965060208801359550604088013567ffffffffffffffff808211156127a7578283fd5b6127b38b838c0161235b565b909750955060608a0135915080821115612688578283fd5b6000815180845260208085019450808401835b838110156128035781516001600160a01b0316875295820195908201906001016127de565b509495945050505050565b60006001600160fb1b03831115612823578081fd5b60208302808584379190910190815292915050565b60007f416363657373436f6e74726f6c3a206163636f756e742000000000000000000082528351612870816017850160208801612aba565b7001034b99036b4b9b9b4b733903937b6329607d1b60179184019182015283516128a1816028840160208801612aba565b01602801949350505050565b60006020825282518060208401526128cc816040850160208701612aba565b601f01601f19169190910160400192915050565b60208082526029908201527f5468697320746f6b656e206973206e6f74207265636f676e6973656420666f72604082015268103237b730ba34b7b760b91b606082015260800190565b60008582526080602083015261294260808301866127cb565b6001600160a01b03949094166040830152506060015292915050565b600060408083018584526020828186015281865480845260609350838701915083838202880101888752838720875b83811015612a1757898303605f1901855281546001600160a01b031683526001828101548785015260028301548985015260808885018190526003840180549186018290528b52878b2060a086019290918c905b808210156129fe5783548552938a019392820192908201906129e1565b505050958701955092506004919091019060010161298d565b50909a9950505050505050505050565b600086825285602083015260a06040830152612a4660a08301866127cb565b6001600160a01b0394909416606083015250608001529392505050565b60008219821115612a7657612a76612b18565b500190565b600082612a9657634e487b7160e01b81526012600452602481fd5b500490565b6000816000190483118215151615612ab557612ab5612b18565b500290565b60005b83811015612ad5578181015183820152602001612abd565b838111156106ca5750506000910152565b600081612af557612af5612b18565b506000190190565b6000600019821415612b1157612b11612b18565b5060010190565b634e487b7160e01b600052601160045260246000fd5b634e487b7160e01b600052604160045260246000fd5b6001600160a01b0381168114610f2c57600080fd5b8015158114610f2c57600080fdfea2646970667358221220dc34cef7b787a272f2cd6169d85ab706977cdba89d6157dfabf4c9b790048beb64736f6c63430008020033",
  "linkReferences": {},
  "deployedLinkReferences": {}
}