{
  "_format": "hh-sol-artifact-1",
  "contractName": "MaraScan",
  "sourceName": "contracts/MaraScan.sol",
  "abi": [
    {
      "anonymous": false,
      "inputs": [
        {
          "indexed": true,
          "internalType": "address",
          "name": "contractAddress",
          "type": "address"
        }
      ],
      "name": "ApproveToken",
      "type": "event"
    },
    {
      "anonymous": false,
      "inputs": [
        {
          "indexed": true,
          "internalType": "address",
          "name": "newContract",
          "type": "address"
        }
      ],
      "name": "ChangedBadgeContract",
      "type": "event"
    },
    {
      "anonymous": false,
      "inputs": [
        {
          "indexed": true,
          "internalType": "address",
          "name": "newContract",
          "type": "address"
        }
      ],
      "name": "ChangedUSDCContract",
      "type": "event"
    },
    {
      "anonymous": false,
      "inputs": [
        {
          "components": [
            {
              "internalType": "address",
              "name": "donor",
              "type": "address"
            },
            {
              "internalType": "uint256",
              "name": "donationRequestId",
              "type": "uint256"
            },
            {
              "internalType": "uint256",
              "name": "amount",
              "type": "uint256"
            },
            {
              "components": [
                {
                  "internalType": "address[]",
                  "name": "beneficiaryAddresses",
                  "type": "address[]"
                },
                {
                  "internalType": "uint256[]",
                  "name": "amount",
                  "type": "uint256[]"
                }
              ],
              "internalType": "struct MaraScan.Beneficiary",
              "name": "beneficiaries",
              "type": "tuple"
            }
          ],
          "indexed": false,
          "internalType": "struct MaraScan.Donation",
          "name": "donation",
          "type": "tuple"
        }
      ],
      "name": "Disbursed",
      "type": "event"
    },
    {
      "anonymous": false,
      "inputs": [
        {
          "indexed": true,
          "internalType": "address",
          "name": "donor",
          "type": "address"
        },
        {
          "indexed": true,
          "internalType": "uint256",
          "name": "amount",
          "type": "uint256"
        },
        {
          "indexed": false,
          "internalType": "uint256",
          "name": "donationRequestId",
          "type": "uint256"
        },
        {
          "indexed": false,
          "internalType": "uint256",
          "name": "currentUndisbursedBalance",
          "type": "uint256"
        },
        {
          "components": [
            {
              "internalType": "address[]",
              "name": "beneficiaryAddresses",
              "type": "address[]"
            },
            {
              "internalType": "uint256[]",
              "name": "amount",
              "type": "uint256[]"
            }
          ],
          "indexed": false,
          "internalType": "struct MaraScan.Beneficiary",
          "name": "benefiaries",
          "type": "tuple"
        }
      ],
      "name": "Donated",
      "type": "event"
    },
    {
      "anonymous": false,
      "inputs": [
        {
          "indexed": false,
          "internalType": "uint8",
          "name": "version",
          "type": "uint8"
        }
      ],
      "name": "Initialized",
      "type": "event"
    },
    {
      "anonymous": false,
      "inputs": [
        {
          "indexed": true,
          "internalType": "bytes32",
          "name": "role",
          "type": "bytes32"
        },
        {
          "indexed": true,
          "internalType": "bytes32",
          "name": "previousAdminRole",
          "type": "bytes32"
        },
        {
          "indexed": true,
          "internalType": "bytes32",
          "name": "newAdminRole",
          "type": "bytes32"
        }
      ],
      "name": "RoleAdminChanged",
      "type": "event"
    },
    {
      "anonymous": false,
      "inputs": [
        {
          "indexed": true,
          "internalType": "bytes32",
          "name": "role",
          "type": "bytes32"
        },
        {
          "indexed": true,
          "internalType": "address",
          "name": "account",
          "type": "address"
        },
        {
          "indexed": true,
          "internalType": "address",
          "name": "sender",
          "type": "address"
        }
      ],
      "name": "RoleGranted",
      "type": "event"
    },
    {
      "anonymous": false,
      "inputs": [
        {
          "indexed": true,
          "internalType": "bytes32",
          "name": "role",
          "type": "bytes32"
        },
        {
          "indexed": true,
          "internalType": "address",
          "name": "account",
          "type": "address"
        },
        {
          "indexed": true,
          "internalType": "address",
          "name": "sender",
          "type": "address"
        }
      ],
      "name": "RoleRevoked",
      "type": "event"
    },
    {
      "inputs": [],
      "name": "ADMIN_ROLE",
      "outputs": [
        {
          "internalType": "bytes32",
          "name": "",
          "type": "bytes32"
        }
      ],
      "stateMutability": "view",
      "type": "function"
    },
    {
      "inputs": [],
      "name": "BADGE",
      "outputs": [
        {
          "internalType": "address",
          "name": "",
          "type": "address"
        }
      ],
      "stateMutability": "view",
      "type": "function"
    },
    {
      "inputs": [],
      "name": "DEFAULT_ADMIN_ROLE",
      "outputs": [
        {
          "internalType": "bytes32",
          "name": "",
          "type": "bytes32"
        }
      ],
      "stateMutability": "view",
      "type": "function"
    },
    {
      "inputs": [],
      "name": "MASTER_WALLET",
      "outputs": [
        {
          "internalType": "address",
          "name": "",
          "type": "address"
        }
      ],
      "stateMutability": "view",
      "type": "function"
    },
    {
      "inputs": [
        {
          "internalType": "uint256",
          "name": "amountOut",
          "type": "uint256"
        },
        {
          "internalType": "uint256",
          "name": "_donationRequestId",
          "type": "uint256"
        },
        {
          "components": [
            {
              "internalType": "address[]",
              "name": "beneficiaryAddresses",
              "type": "address[]"
            },
            {
              "internalType": "uint256[]",
              "name": "amount",
              "type": "uint256[]"
            }
          ],
          "internalType": "struct MaraScan.Beneficiary",
          "name": "_donationDetails",
          "type": "tuple"
        },
        {
          "internalType": "bytes32",
          "name": "secretKey",
          "type": "bytes32"
        }
      ],
      "name": "SwapExactETHForTokens",
      "outputs": [],
      "stateMutability": "payable",
      "type": "function"
    },
    {
      "inputs": [],
      "name": "USDC",
      "outputs": [
        {
          "internalType": "address",
          "name": "",
          "type": "address"
        }
      ],
      "stateMutability": "view",
      "type": "function"
    },
    {
      "inputs": [
        {
          "internalType": "uint256",
          "name": "",
          "type": "uint256"
        }
      ],
      "name": "allDisbursedDonations",
      "outputs": [
        {
          "internalType": "address",
          "name": "donor",
          "type": "address"
        },
        {
          "internalType": "uint256",
          "name": "donationRequestId",
          "type": "uint256"
        },
        {
          "internalType": "uint256",
          "name": "amount",
          "type": "uint256"
        },
        {
          "components": [
            {
              "internalType": "address[]",
              "name": "beneficiaryAddresses",
              "type": "address[]"
            },
            {
              "internalType": "uint256[]",
              "name": "amount",
              "type": "uint256[]"
            }
          ],
          "internalType": "struct MaraScan.Beneficiary",
          "name": "beneficiaries",
          "type": "tuple"
        }
      ],
      "stateMutability": "view",
      "type": "function"
    },
    {
      "inputs": [
        {
          "internalType": "address",
          "name": "_tokenAddress",
          "type": "address"
        }
      ],
      "name": "approveTokenForDonation",
      "outputs": [],
      "stateMutability": "nonpayable",
      "type": "function"
    },
    {
      "inputs": [
        {
          "internalType": "address",
          "name": "",
          "type": "address"
        }
      ],
      "name": "approvedTokens",
      "outputs": [
        {
          "internalType": "bool",
          "name": "",
          "type": "bool"
        }
      ],
      "stateMutability": "view",
      "type": "function"
    },
    {
      "inputs": [
        {
          "internalType": "uint256",
          "name": "donationRequestId",
          "type": "uint256"
        }
      ],
      "name": "claimBadge",
      "outputs": [],
      "stateMutability": "nonpayable",
      "type": "function"
    },
    {
      "inputs": [
        {
          "internalType": "uint256",
          "name": "",
          "type": "uint256"
        }
      ],
      "name": "claimBadgesForDonors",
      "outputs": [
        {
          "internalType": "uint256",
          "name": "",
          "type": "uint256"
        }
      ],
      "stateMutability": "view",
      "type": "function"
    },
    {
      "inputs": [],
      "name": "disburseToken",
      "outputs": [],
      "stateMutability": "nonpayable",
      "type": "function"
    },
    {
      "inputs": [
        {
          "internalType": "uint256",
          "name": "_amount",
          "type": "uint256"
        },
        {
          "internalType": "uint256",
          "name": "_donationRequestId",
          "type": "uint256"
        },
        {
          "components": [
            {
              "internalType": "address[]",
              "name": "beneficiaryAddresses",
              "type": "address[]"
            },
            {
              "internalType": "uint256[]",
              "name": "amount",
              "type": "uint256[]"
            }
          ],
          "internalType": "struct MaraScan.Beneficiary",
          "name": "_donationDetails",
          "type": "tuple"
        },
        {
          "internalType": "bytes32",
          "name": "secretKey",
          "type": "bytes32"
        }
      ],
      "name": "donate",
      "outputs": [],
      "stateMutability": "nonpayable",
      "type": "function"
    },
    {
      "inputs": [
        {
          "internalType": "uint256",
          "name": "_amount",
          "type": "uint256"
        },
        {
          "internalType": "uint256",
          "name": "_donationRequestId",
          "type": "uint256"
        },
        {
          "components": [
            {
              "internalType": "address[]",
              "name": "beneficiaryAddresses",
              "type": "address[]"
            },
            {
              "internalType": "uint256[]",
              "name": "amount",
              "type": "uint256[]"
            }
          ],
          "internalType": "struct MaraScan.Beneficiary",
          "name": "_donationDetails",
          "type": "tuple"
        }
      ],
      "name": "donationFromCircle",
      "outputs": [],
      "stateMutability": "nonpayable",
      "type": "function"
    },
    {
      "inputs": [],
      "name": "emergencyWithdrawETH",
      "outputs": [],
      "stateMutability": "nonpayable",
      "type": "function"
    },
    {
      "inputs": [
        {
          "internalType": "address",
          "name": "_tokenAddress",
          "type": "address"
        }
      ],
      "name": "emergencyWithdrawToken",
      "outputs": [],
      "stateMutability": "nonpayable",
      "type": "function"
    },
    {
      "inputs": [
        {
          "internalType": "bytes32",
          "name": "role",
          "type": "bytes32"
        }
      ],
      "name": "getRoleAdmin",
      "outputs": [
        {
          "internalType": "bytes32",
          "name": "",
          "type": "bytes32"
        }
      ],
      "stateMutability": "view",
      "type": "function"
    },
    {
      "inputs": [
        {
          "internalType": "bytes32",
          "name": "role",
          "type": "bytes32"
        },
        {
          "internalType": "address",
          "name": "account",
          "type": "address"
        }
      ],
      "name": "grantRole",
      "outputs": [],
      "stateMutability": "nonpayable",
      "type": "function"
    },
    {
      "inputs": [
        {
          "internalType": "bytes32",
          "name": "role",
          "type": "bytes32"
        },
        {
          "internalType": "address",
          "name": "account",
          "type": "address"
        }
      ],
      "name": "hasRole",
      "outputs": [
        {
          "internalType": "bool",
          "name": "",
          "type": "bool"
        }
      ],
      "stateMutability": "view",
      "type": "function"
    },
    {
      "inputs": [],
      "name": "initialize",
      "outputs": [],
      "stateMutability": "nonpayable",
      "type": "function"
    },
    {
      "inputs": [],
      "name": "minimumAmountToDisburse",
      "outputs": [
        {
          "internalType": "uint256",
          "name": "",
          "type": "uint256"
        }
      ],
      "stateMutability": "view",
      "type": "function"
    },
    {
      "inputs": [],
      "name": "processingFeePercent",
      "outputs": [
        {
          "internalType": "uint256",
          "name": "",
          "type": "uint256"
        }
      ],
      "stateMutability": "view",
      "type": "function"
    },
    {
      "inputs": [
        {
          "internalType": "bytes32",
          "name": "role",
          "type": "bytes32"
        },
        {
          "internalType": "address",
          "name": "account",
          "type": "address"
        }
      ],
      "name": "renounceRole",
      "outputs": [],
      "stateMutability": "nonpayable",
      "type": "function"
    },
    {
      "inputs": [
        {
          "internalType": "bytes32",
          "name": "role",
          "type": "bytes32"
        },
        {
          "internalType": "address",
          "name": "account",
          "type": "address"
        }
      ],
      "name": "revokeRole",
      "outputs": [],
      "stateMutability": "nonpayable",
      "type": "function"
    },
    {
      "inputs": [
        {
          "internalType": "address",
          "name": "_tokenAddress",
          "type": "address"
        }
      ],
      "name": "setBadgeTokenContract",
      "outputs": [],
      "stateMutability": "nonpayable",
      "type": "function"
    },
    {
      "inputs": [
        {
          "internalType": "address",
          "name": "_masterWallet",
          "type": "address"
        }
      ],
      "name": "setMasterWallet",
      "outputs": [],
      "stateMutability": "nonpayable",
      "type": "function"
    },
    {
      "inputs": [
        {
          "internalType": "uint256",
          "name": "_fee",
          "type": "uint256"
        }
      ],
      "name": "setProcessingFee",
      "outputs": [],
      "stateMutability": "nonpayable",
      "type": "function"
    },
    {
      "inputs": [
        {
          "internalType": "bytes32",
          "name": "_secret",
          "type": "bytes32"
        }
      ],
      "name": "setSecretKey",
      "outputs": [],
      "stateMutability": "nonpayable",
      "type": "function"
    },
    {
      "inputs": [
        {
          "internalType": "address",
          "name": "_tokenAddress",
          "type": "address"
        }
      ],
      "name": "setUSDCTokenContract",
      "outputs": [],
      "stateMutability": "nonpayable",
      "type": "function"
    },
    {
      "inputs": [
        {
          "internalType": "bytes4",
          "name": "interfaceId",
          "type": "bytes4"
        }
      ],
      "name": "supportsInterface",
      "outputs": [
        {
          "internalType": "bool",
          "name": "",
          "type": "bool"
        }
      ],
      "stateMutability": "view",
      "type": "function"
    },
    {
      "inputs": [
        {
          "internalType": "uint256",
          "name": "amountIn",
          "type": "uint256"
        },
        {
          "internalType": "address",
          "name": "tokenIn",
          "type": "address"
        },
        {
          "components": [
            {
              "internalType": "address[]",
              "name": "beneficiaryAddresses",
              "type": "address[]"
            },
            {
              "internalType": "uint256[]",
              "name": "amount",
              "type": "uint256[]"
            }
          ],
          "internalType": "struct MaraScan.Beneficiary",
          "name": "_donationDetails",
          "type": "tuple"
        },
        {
          "internalType": "uint256",
          "name": "_donationRequestId",
          "type": "uint256"
        },
        {
          "internalType": "bytes32",
          "name": "secretKey",
          "type": "bytes32"
        }
      ],
      "name": "swapExactTokensForTokens",
      "outputs": [],
      "stateMutability": "nonpayable",
      "type": "function"
    },
    {
      "inputs": [],
      "name": "totalAmountDisbursed",
      "outputs": [
        {
          "internalType": "uint256",
          "name": "",
          "type": "uint256"
        }
      ],
      "stateMutability": "view",
      "type": "function"
    },
    {
      "inputs": [],
      "name": "unDisbursedAmount",
      "outputs": [
        {
          "internalType": "uint256",
          "name": "",
          "type": "uint256"
        }
      ],
      "stateMutability": "view",
      "type": "function"
    },
    {
      "inputs": [
        {
          "internalType": "uint256",
          "name": "",
          "type": "uint256"
        }
      ],
      "name": "unDisbursedDonations",
      "outputs": [
        {
          "internalType": "address",
          "name": "donor",
          "type": "address"
        },
        {
          "internalType": "uint256",
          "name": "donationRequestId",
          "type": "uint256"
        },
        {
          "internalType": "uint256",
          "name": "amount",
          "type": "uint256"
        },
        {
          "components": [
            {
              "internalType": "address[]",
              "name": "beneficiaryAddresses",
              "type": "address[]"
            },
            {
              "internalType": "uint256[]",
              "name": "amount",
              "type": "uint256[]"
            }
          ],
          "internalType": "struct MaraScan.Beneficiary",
          "name": "beneficiaries",
          "type": "tuple"
        }
      ],
      "stateMutability": "view",
      "type": "function"
    },
    {
      "inputs": [],
      "name": "uniswapRouter",
      "outputs": [
        {
          "internalType": "contract IUniswapV2Router02",
          "name": "",
          "type": "address"
        }
      ],
      "stateMutability": "view",
      "type": "function"
    }
  ],
  "bytecode": "0x608060405234801561001057600080fd5b50613344806100206000396000f3fe6080604052600436106102045760003560e01c80637ddef29f116101185780639461446d116100a0578063d547741f1161006f578063d547741f146105d2578063d5d0c6f0146105f2578063d60bb29614610612578063ed81872614610628578063eead6fd81461064857610204565b80639461446d14610562578063a217fddf1461044b578063a6c7bf8a14610582578063b0583c94146105a257610204565b806384536017116100e757806384536017146104c05780638623afef146104d557806389a30271146105025780638d43702c1461052257806391d148541461054257610204565b80637ddef29f146104605780637f49a932146104755780638129fc1c1461049557806383fc6cf1146104aa57610204565b8063305c53101161019b5780634adfe4041161016a5780634adfe404146103c2578063656ad723146103d55780636d1ea3fa146103f5578063735de9f71461042557806375b238fc1461044b57610204565b8063305c53101461034c57806336568abe14610362578063381f05dc146103825780633c2c4b5e146103a257610204565b806323415135116101d757806323415135146102b8578063248a9ca3146102d857806327d9f3a6146103165780632f2ff15d1461032c57610204565b806301ffc9a71461020957806318acc3821461023e5780631af03203146102605780631d527d8114610280575b600080fd5b34801561021557600080fd5b50610229610224366004612d37565b610668565b60405190151581526020015b60405180910390f35b34801561024a57600080fd5b5061025e610259366004612de0565b61069f565b005b34801561026c57600080fd5b5061025e61027b366004612bd9565b610a75565b34801561028c57600080fd5b506003546102a0906001600160a01b031681565b6040516001600160a01b039091168152602001610235565b3480156102c457600080fd5b5061025e6102d3366004612cf0565b610c3d565b3480156102e457600080fd5b506103086102f3366004612cf0565b60009081526020819052604090206001015490565b604051908152602001610235565b34801561032257600080fd5b5061030860065481565b34801561033857600080fd5b5061025e610347366004612d08565b610d21565b34801561035857600080fd5b50610308600a5481565b34801561036e57600080fd5b5061025e61037d366004612d08565b610d46565b34801561038e57600080fd5b5061025e61039d366004612d77565b610dc4565b3480156103ae57600080fd5b506002546102a0906001600160a01b031681565b61025e6103d0366004612e2e565b61141f565b3480156103e157600080fd5b5061025e6103f0366004612bd9565b6118c5565b34801561040157600080fd5b50610229610410366004612bd9565b600c6020526000908152604090205460ff1681565b34801561043157600080fd5b506001546102a0906201000090046001600160a01b031681565b34801561045757600080fd5b50610308600081565b34801561046c57600080fd5b5061025e61191b565b34801561048157600080fd5b5061025e610490366004612bd9565b61197f565b3480156104a157600080fd5b5061025e6119af565b3480156104b657600080fd5b50610308600b5481565b3480156104cc57600080fd5b5061025e611b1a565b3480156104e157600080fd5b506103086104f0366004612cf0565b600d6020526000908152604090205481565b34801561050e57600080fd5b506004546102a0906001600160a01b031681565b34801561052e57600080fd5b5061025e61053d366004612e2e565b611b2f565b34801561054e57600080fd5b5061022961055d366004612d08565b611edf565b34801561056e57600080fd5b5061025e61057d366004612cf0565b611f08565b34801561058e57600080fd5b5061025e61059d366004612bd9565b611f19565b3480156105ae57600080fd5b506105c26105bd366004612cf0565b611f47565b6040516102359493929190612fcb565b3480156105de57600080fd5b5061025e6105ed366004612d08565b612047565b3480156105fe57600080fd5b506105c261060d366004612cf0565b61206c565b34801561061e57600080fd5b5061030860095481565b34801561063457600080fd5b5061025e610643366004612cf0565b61207c565b34801561065457600080fd5b5061025e610663366004612bd9565b61208d565b60006001600160e01b03198216637965db0b60e01b148061069957506301ffc9a760e01b6001600160e01b03198316145b92915050565b6002546001600160a01b031633146106fe5760405162461bcd60e51b815260206004820152601d60248201527f43616c6c6572206973204e6f742061206d61737465722077616c6c657400000060448201526064015b60405180910390fd5b600480546040516370a0823160e01b815230928101929092526001600160a01b031690849082906370a082319060240160206040518083038186803b15801561074657600080fd5b505afa15801561075a573d6000803e3d6000fd5b505050506040513d601f19601f8201168201806040525081019061077e9190612d5f565b101561079c5760405162461bcd60e51b81526004016106f590613035565b600b546000906107ad6064876131f5565b6107b79190613215565b905060006107c58287613234565b905080600960008282546107d991906131dd565b909155505060025460405163a9059cbb60e01b81526001600160a01b039182166004820152602481018490529084169063a9059cbb90604401602060405180830381600087803b15801561082c57600080fd5b505af1158015610840573d6000803e3d6000fd5b505050506040513d601f19601f820116820180604052508101906108649190612cd0565b506040805160808101825233815260208101879052808201839052815180830190925260079160608201908061089a8980613179565b808060200260200160405190810160405280939291908181526020018383602002808284376000920191909152505050908252506020908101906108e0908a018a6131c7565b80806020026020016040519081016040528093929190818152602001838360200280828437600092018290525093909452505091909252835460018082018655948252602091829020845160059092020180546001600160a01b0319166001600160a01b03909216919091178155838201519481019490945560408301516002850155606083015180518051949594919350600385019261098692849290910190612a40565b50602082810151805161099f9260018501920190612aa5565b505050505085336001600160a01b03166000805160206132ef8339815191528760095460405180604001604052808a80600001906109dd9190613179565b80806020026020016040519081016040528093929190818152602001838360200280828437600092019190915250505090825250602090810190610a23908c018c6131c7565b808060200260200160405190810160405280939291908181526020018383602002808284376000920191909152505050915250604051610a6593929190613151565b60405180910390a3505050505050565b6000610a80816120e3565b6040516370a0823160e01b81523060048201526000906001600160a01b038416906370a082319060240160206040518083038186803b158015610ac257600080fd5b505afa158015610ad6573d6000803e3d6000fd5b505050506040513d601f19601f82011682018060405250810190610afa9190612d5f565b11610b395760405162461bcd60e51b815260206004820152600f60248201526e15985b1d59481d1bdbc81cdb585b1b608a1b60448201526064016106f5565b6040516370a0823160e01b81523060048201526001600160a01b0383169063a9059cbb90339083906370a082319060240160206040518083038186803b158015610b8257600080fd5b505afa158015610b96573d6000803e3d6000fd5b505050506040513d601f19601f82011682018060405250810190610bba9190612d5f565b6040516001600160e01b031960e085901b1681526001600160a01b0390921660048301526024820152604401602060405180830381600087803b158015610c0057600080fd5b505af1158015610c14573d6000803e3d6000fd5b505050506040513d601f19601f82011682018060405250810190610c389190612cd0565b505050565b6000818152600d6020526040902054610c985760405162461bcd60e51b815260206004820152601960248201527f596f7520646f6e2774206861766520616e7920636c616d69730000000000000060448201526064016106f5565b6003546000828152600d60205260408082205490516227753160e31b8152600481019290925233602483015260448201526001600160a01b039091169063013ba98890606401600060405180830381600087803b158015610cf857600080fd5b505af1158015610d0c573d6000803e3d6000fd5b505050600091825250600d6020526040812055565b600082815260208190526040902060010154610d3c816120e3565b610c3883836120ed565b6001600160a01b0381163314610db65760405162461bcd60e51b815260206004820152602f60248201527f416363657373436f6e74726f6c3a2063616e206f6e6c792072656e6f756e636560448201526e103937b632b9903337b91039b2b63360891b60648201526084016106f5565b610dc08282612171565b5050565b6005548114610de55760405162461bcd60e51b81526004016106f59061306a565b6001600160a01b0384166000908152600c602052604090205460ff16610e5f5760405162461bcd60e51b815260206004820152602960248201527f5468697320746f6b656e206973206e6f74207265636f676e6973656420666f72604482015268103237b730ba34b7b760b91b60648201526084016106f5565b6040516370a0823160e01b8152336004820152849086906001600160a01b038316906370a082319060240160206040518083038186803b158015610ea257600080fd5b505afa158015610eb6573d6000803e3d6000fd5b505050506040513d601f19601f82011682018060405250810190610eda9190612d5f565b1015610ef85760405162461bcd60e51b81526004016106f590613035565b6040805160028082526060820183526000926020830190803683370190505090508581600081518110610f3b57634e487b7160e01b600052603260045260246000fd5b6001600160a01b039283166020918202929092010152600454825191169082906001908110610f7a57634e487b7160e01b600052603260045260246000fd5b6001600160a01b0392831660209182029290920101526040516323b872dd60e01b815233600482015230602482015260448101899052908316906323b872dd90606401602060405180830381600087803b158015610fd757600080fd5b505af1158015610feb573d6000803e3d6000fd5b505050506040513d601f19601f8201168201806040525081019061100f9190612cd0565b5060015460405163095ea7b360e01b8152620100009091046001600160a01b0390811660048301526024820189905283169063095ea7b390604401602060405180830381600087803b15801561106457600080fd5b505af1158015611078573d6000803e3d6000fd5b505050506040513d601f19601f8201168201806040525081019061109c9190612cd0565b506001546000906201000090046001600160a01b03166338ed173989600a85306110c74260326131dd565b6040518663ffffffff1660e01b81526004016110e7959493929190613115565b600060405180830381600087803b15801561110157600080fd5b505af1158015611115573d6000803e3d6000fd5b505050506040513d6000823e601f3d908101601f1916820160405261113d9190810190612c11565b90506000600b5460648360018151811061116757634e487b7160e01b600052603260045260246000fd5b602002602001015161117991906131f5565b6111839190613215565b9050600081836001815181106111a957634e487b7160e01b600052603260045260246000fd5b60200260200101516111bb9190613234565b905080600960008282546111cf91906131dd565b9091555050604080516080810182523381526020810189905280820183905281518083019092526007916060820190806112098d80613179565b8080602002602001604051908101604052809392919081815260200183836020028082843760009201919091525050509082525060209081019061124f908e018e6131c7565b80806020026020016040519081016040528093929190818152602001838360200280828437600092018290525093909452505091909252835460018082018655948252602091829020845160059092020180546001600160a01b0319166001600160a01b0390921691909117815583820151948101949094556040830151600285015560608301518051805194959491935060038501926112f592849290910190612a40565b50602082810151805161130e9260018501920190612aa5565b50505050508260018151811061133457634e487b7160e01b600052603260045260246000fd5b6020026020010151336001600160a01b03166000805160206132ef8339815191528960095460405180604001604052808e80600001906113749190613179565b80806020026020016040519081016040528093929190818152602001838360200280828437600081840152601f19601f8201169050808301925050505050505081526020018e80602001906113c991906131c7565b80806020026020016040519081016040528093929190818152602001838360200280828437600092019190915250505091525060405161140b93929190613151565b60405180910390a350505050505050505050565b60055481146114405760405162461bcd60e51b81526004016106f59061306a565b604080516002808252606082018352600092602083019080368337019050509050600160029054906101000a90046001600160a01b03166001600160a01b031663ad5c46486040518163ffffffff1660e01b815260040160206040518083038186803b1580156114af57600080fd5b505afa1580156114c3573d6000803e3d6000fd5b505050506040513d601f19601f820116820180604052508101906114e79190612bf5565b8160008151811061150857634e487b7160e01b600052603260045260246000fd5b6001600160a01b03928316602091820292909201015260045482519116908290600190811061154757634e487b7160e01b600052603260045260246000fd5b6001600160a01b0392831660209182029290920101526001546000916201000090910416637ff36ab53488853061157f4260326131dd565b6040518663ffffffff1660e01b815260040161159e94939291906130e0565b6000604051808303818588803b1580156115b757600080fd5b505af11580156115cb573d6000803e3d6000fd5b50505050506040513d6000823e601f3d908101601f191682016040526115f49190810190612c11565b90506000600b5460648360018151811061161e57634e487b7160e01b600052603260045260246000fd5b602002602001015161163091906131f5565b61163a9190613215565b90506000818360018151811061166057634e487b7160e01b600052603260045260246000fd5b60200260200101516116729190613234565b9050806009600082825461168691906131dd565b9091555050604080516080810182523381526020810189905280820183905281518083019092526007916060820190806116c08b80613179565b80806020026020016040519081016040528093929190818152602001838360200280828437600092019190915250505090825250602090810190611706908c018c6131c7565b80806020026020016040519081016040528093929190818152602001838360200280828437600092018290525093909452505091909252835460018082018655948252602091829020845160059092020180546001600160a01b0319166001600160a01b0390921691909117815583820151948101949094556040830151600285015560608301518051805194959491935060038501926117ac92849290910190612a40565b5060208281015180516117c59260018501920190612aa5565b5050505050826001815181106117eb57634e487b7160e01b600052603260045260246000fd5b6020026020010151336001600160a01b03166000805160206132ef8339815191528960095460405180604001604052808c806000019061182b9190613179565b80806020026020016040519081016040528093929190818152602001838360200280828437600092019190915250505090825250602090810190611871908e018e6131c7565b8080602002602001604051908101604052809392919081815260200183836020028082843760009201919091525050509152506040516118b393929190613151565b60405180910390a35050505050505050565b60006118d0816120e3565b600380546001600160a01b0319166001600160a01b0384169081179091556040517f07d0f313d785d0a6e19240fc9a591f3d8e79b3c463c30276ea9e7678409ad0f890600090a25050565b6002546001600160a01b031633146119755760405162461bcd60e51b815260206004820152601d60248201527f43616c6c6572206973204e6f742061206d61737465722077616c6c657400000060448201526064016106f5565b61197d6121d6565b565b600061198a816120e3565b506001600160a01b03166000908152600c60205260409020805460ff19166001179055565b600154610100900460ff16158080156119cc57506001805460ff16105b806119e55750303b1580156119e557506001805460ff16145b611a485760405162461bcd60e51b815260206004820152602e60248201527f496e697469616c697a61626c653a20636f6e747261637420697320616c72656160448201526d191e481a5b9a5d1a585b1a5e995960921b60648201526084016106f5565b6001805460ff1916811790558015611a6a576001805461ff0019166101001790555b611a756000336126d0565b60018054757a250d5630b4cf539739df2c5dacb4c659f2488d000062010000600160b01b03199091161790556101f4600655600480546001600160a01b0319167307865c6e87b9f70255377e024ace6630c1eaa37f1790556002600b558015611b17576001805461ff00191681556040519081527f7f26b83ff96e1f2b6a682f133852f6798a09c465da95921460cefb38474024989060200160405180910390a15b50565b6000611b25816120e3565b611b1733476126da565b6005548114611b505760405162461bcd60e51b81526004016106f59061306a565b600480546040516370a0823160e01b815233928101929092526001600160a01b031690859082906370a082319060240160206040518083038186803b158015611b9857600080fd5b505afa158015611bac573d6000803e3d6000fd5b505050506040513d601f19601f82011682018060405250810190611bd09190612d5f565b1015611bee5760405162461bcd60e51b81526004016106f590613035565b600b54600090611bff6064886131f5565b611c099190613215565b90506000611c178288613234565b90508060096000828254611c2b91906131dd565b90915550506040516323b872dd60e01b8152336004820152306024820152604481018290526001600160a01b038416906323b872dd90606401602060405180830381600087803b158015611c7e57600080fd5b505af1158015611c92573d6000803e3d6000fd5b505050506040513d601f19601f82011682018060405250810190611cb69190612cd0565b508060096000828254611cc991906131dd565b909155505060408051608081018252338152602081018890528082018390528151808301909252600791606082019080611d038a80613179565b80806020026020016040519081016040528093929190818152602001838360200280828437600092019190915250505090825250602090810190611d49908b018b6131c7565b80806020026020016040519081016040528093929190818152602001838360200280828437600092018290525093909452505091909252835460018082018655948252602091829020845160059092020180546001600160a01b0319166001600160a01b039092169190911781558382015194810194909455604083015160028501556060830151805180519495949193506003850192611def92849290910190612a40565b506020828101518051611e089260018501920190612aa5565b505050505086336001600160a01b03166000805160206132ef8339815191528860095460405180604001604052808b8060000190611e469190613179565b80806020026020016040519081016040528093929190818152602001838360200280828437600092019190915250505090825250602090810190611e8c908d018d6131c7565b808060200260200160405190810160405280939291908181526020018383602002808284376000920191909152505050915250604051611ece93929190613151565b60405180910390a350505050505050565b6000918252602082815260408084206001600160a01b0393909316845291905290205460ff1690565b6000611f13816120e3565b50600b55565b6000611f24816120e3565b50600280546001600160a01b0319166001600160a01b0392909216919091179055565b60088181548110611f5757600080fd5b60009182526020918290206005909102018054600182015460028301546040805160038601805460609881028301890184529282018381526001600160a01b039096169850939692959490939284928491840182828015611fe157602002820191906000526020600020905b81546001600160a01b03168152600190910190602001808311611fc3575b505050505081526020016001820180548060200260200160405190810160405280929190818152602001828054801561203957602002820191906000526020600020905b815481526020019060010190808311612025575b505050505081525050905084565b600082815260208190526040902060010154612062816120e3565b610c388383612171565b60078181548110611f5757600080fd5b6000612087816120e3565b50600555565b6000612098816120e3565b600480546001600160a01b0319166001600160a01b0384169081179091556040517f91d5bf4f9053246e98cdc0e5c39126503cfc274823cb7ec41f5c943cf09b7bc390600090a25050565b611b1781336127f3565b6120f78282611edf565b610dc0576000828152602081815260408083206001600160a01b03851684529091529020805460ff1916600117905561212d3390565b6001600160a01b0316816001600160a01b0316837f2f8788117e7eff1d82e926ec794901d17c78024a50270940304540a733656f0d60405160405180910390a45050565b61217b8282611edf565b15610dc0576000828152602081815260408083206001600160a01b0385168085529252808320805460ff1916905551339285917ff6391f5c32d9c69d2a47ea670b442974b53935d1edc7fd64eb21e047a839171b9190a45050565b60005b6007548110156124bd5760006007828154811061220657634e487b7160e01b600052603260045260246000fd5b600091825260209182902060408051608081018252600590930290910180546001600160a01b031683526001810154838501526002810154838301528151600382018054958602820160609081018552938201868152949592948487019492939192849284918401828280156122a557602002820191906000526020600020905b81546001600160a01b03168152600190910190602001808311612287575b50505050508152602001600182018054806020026020016040519081016040528092919081815260200182805480156122fd57602002820191906000526020600020905b8154815260200190600101908083116122e9575b50505050508152505081525050905060005b606082015151518310156124725760045460608301515180516001600160a01b039092169163a9059cbb91908490811061235957634e487b7160e01b600052603260045260246000fd5b6020026020010151846060015160200151848151811061238957634e487b7160e01b600052603260045260246000fd5b60200260200101516040518363ffffffff1660e01b81526004016123c29291906001600160a01b03929092168252602082015260400190565b602060405180830381600087803b1580156123dc57600080fd5b505af11580156123f0573d6000803e3d6000fd5b505050506040513d601f19601f820116820180604052508101906124149190612cd0565b6124605760405162461bcd60e51b815260206004820152601860248201527f556e61626c6520746f207472616e7366657220746f6b656e000000000000000060448201526064016106f5565b8261246a81613292565b93505061230f565b507f8c925ec60e43807144213185d764c1b6a2ec660b76cc8f9e5d67e6711866f440816040516124a29190613097565b60405180910390a150806124b581613292565b9150506121d9565b5060005b600754811015612591576008600782815481106124ee57634e487b7160e01b600052603260045260246000fd5b6000918252602080832084546001818101875595855291909320600592830290930180549190920290920180546001600160a01b0319166001600160a01b039093169290921782558281015492820192909255600280830154908201556003808301805490918301906125649082908490612ae0565b50600182810180546125799284019190612ae0565b5050505050808061258990613292565b9150506124c1565b50600480546040516370a0823160e01b815230928101929092526000916001600160a01b03909116906370a082319060240160206040518083038186803b1580156125db57600080fd5b505afa1580156125ef573d6000803e3d6000fd5b505050506040513d601f19601f820116820180604052508101906126139190612d5f565b6004805460025460405163a9059cbb60e01b81526001600160a01b039182169381019390935260248301849052929350919091169063a9059cbb90604401602060405180830381600087803b15801561266b57600080fd5b505af115801561267f573d6000803e3d6000fd5b505050506040513d601f19601f820116820180604052508101906126a39190612cd0565b50600954600a60008282546126b891906131dd565b909155505060006009819055611b1790600790612b20565b610dc082826120ed565b8047101561272a5760405162461bcd60e51b815260206004820152601d60248201527f416464726573733a20696e73756666696369656e742062616c616e636500000060448201526064016106f5565b6000826001600160a01b03168260405160006040518083038185875af1925050503d8060008114612777576040519150601f19603f3d011682016040523d82523d6000602084013e61277c565b606091505b5050905080610c385760405162461bcd60e51b815260206004820152603a60248201527f416464726573733a20756e61626c6520746f2073656e642076616c75652c207260448201527f6563697069656e74206d6179206861766520726576657274656400000000000060648201526084016106f5565b6127fd8282611edf565b610dc057612815816001600160a01b03166014612857565b612820836020612857565b604051602001612831929190612f56565b60408051601f198184030181529082905262461bcd60e51b82526106f591600401613002565b60606000612866836002613215565b6128719060026131dd565b67ffffffffffffffff81111561289757634e487b7160e01b600052604160045260246000fd5b6040519080825280601f01601f1916602001820160405280156128c1576020820181803683370190505b509050600360fc1b816000815181106128ea57634e487b7160e01b600052603260045260246000fd5b60200101906001600160f81b031916908160001a905350600f60fb1b8160018151811061292757634e487b7160e01b600052603260045260246000fd5b60200101906001600160f81b031916908160001a905350600061294b846002613215565b6129569060016131dd565b90505b60018111156129ea576f181899199a1a9b1b9c1cb0b131b232b360811b85600f166010811061299857634e487b7160e01b600052603260045260246000fd5b1a60f81b8282815181106129bc57634e487b7160e01b600052603260045260246000fd5b60200101906001600160f81b031916908160001a90535060049490941c936129e38161327b565b9050612959565b508315612a395760405162461bcd60e51b815260206004820181905260248201527f537472696e67733a20686578206c656e67746820696e73756666696369656e7460448201526064016106f5565b9392505050565b828054828255906000526020600020908101928215612a95579160200282015b82811115612a9557825182546001600160a01b0319166001600160a01b03909116178255602090920191600190910190612a60565b50612aa1929150612b41565b5090565b828054828255906000526020600020908101928215612a95579160200282015b82811115612a95578251825591602001919060010190612ac5565b828054828255906000526020600020908101928215612a955760005260206000209182015b82811115612a95578254825591600101919060010190612b05565b5080546000825560050290600052602060002090810190611b179190612b56565b5b80821115612aa15760008155600101612b42565b80821115612aa15780546001600160a01b0319168155600060018201819055600282018190556003820181612b8b8282612ba4565b612b99600183016000612ba4565b505050600501612b56565b5080546000825590600052602060002090810190611b179190612b41565b600060408284031215612bd3578081fd5b50919050565b600060208284031215612bea578081fd5b8135612a39816132d9565b600060208284031215612c06578081fd5b8151612a39816132d9565b60006020808385031215612c23578182fd5b825167ffffffffffffffff80821115612c3a578384fd5b818501915085601f830112612c4d578384fd5b815181811115612c5f57612c5f6132c3565b838102604051601f19603f83011681018181108582111715612c8357612c836132c3565b604052828152858101935084860182860187018a1015612ca1578788fd5b8795505b83861015612cc3578051855260019590950194938601938601612ca5565b5098975050505050505050565b600060208284031215612ce1578081fd5b81518015158114612a39578182fd5b600060208284031215612d01578081fd5b5035919050565b60008060408385031215612d1a578081fd5b823591506020830135612d2c816132d9565b809150509250929050565b600060208284031215612d48578081fd5b81356001600160e01b031981168114612a39578182fd5b600060208284031215612d70578081fd5b5051919050565b600080600080600060a08688031215612d8e578081fd5b853594506020860135612da0816132d9565b9350604086013567ffffffffffffffff811115612dbb578182fd5b612dc788828901612bc2565b9598949750949560608101359550608001359392505050565b600080600060608486031215612df4578283fd5b8335925060208401359150604084013567ffffffffffffffff811115612e18578182fd5b612e2486828701612bc2565b9150509250925092565b60008060008060808587031215612e43578384fd5b8435935060208501359250604085013567ffffffffffffffff811115612e67578283fd5b612e7387828801612bc2565b949793965093946060013593505050565b6000815180845260208085019450808401835b83811015612ebc5781516001600160a01b031687529582019590820190600101612e97565b509495945050505050565b805160408084528151908401819052600091602091908201906060860190845b81811015612f0e5783516001600160a01b0316835260208301938501939250600101612ee7565b505084830151868203878501528051808352908401925084918401905b80831015612f4b5783518252928401926001929092019190840190612f2b565b509695505050505050565b60007f416363657373436f6e74726f6c3a206163636f756e742000000000000000000082528351612f8e81601785016020880161324b565b7001034b99036b4b9b9b4b733903937b6329607d1b6017918401918201528351612fbf81602884016020880161324b565b01602801949350505050565b600060018060a01b038616825284602083015283604083015260806060830152612ff86080830184612ec7565b9695505050505050565b600060208252825180602084015261302181604085016020870161324b565b601f01601f19169190910160400192915050565b6020808252818101527f416d6f756e7420746f20646f6e61746520657863656564732062616c616e6365604082015260600190565b6020808252601390820152722ab730baba3437b934bd32b21031b0b63632b960691b604082015260600190565b60006020825260018060a01b038351166020830152602083015160408301526040830151606083015260608301516080808401526130d860a0840182612ec7565b949350505050565b6000858252608060208301526130f96080830186612e84565b6001600160a01b03949094166040830152506060015292915050565b600086825285602083015260a0604083015261313460a0830186612e84565b6001600160a01b0394909416606083015250608001529392505050565b6000848252836020830152606060408301526131706060830184612ec7565b95945050505050565b6000808335601e1984360301811261318f578283fd5b83018035915067ffffffffffffffff8211156131a9578283fd5b60209081019250810236038213156131c057600080fd5b9250929050565b6000808335601e1984360301811261318f578182fd5b600082198211156131f0576131f06132ad565b500190565b60008261321057634e487b7160e01b81526012600452602481fd5b500490565b600081600019048311821515161561322f5761322f6132ad565b500290565b600082821015613246576132466132ad565b500390565b60005b8381101561326657818101518382015260200161324e565b83811115613275576000848401525b50505050565b60008161328a5761328a6132ad565b506000190190565b60006000198214156132a6576132a66132ad565b5060010190565b634e487b7160e01b600052601160045260246000fd5b634e487b7160e01b600052604160045260246000fd5b6001600160a01b0381168114611b1757600080fdfed0097d85fe35a9792e55714393d1c9682c3c0c6a481767ad597af1b56ce1d4e7a26469706673582212204af285f9900f0d06acbc44d847ad5d078507d52864b9fe6bde66281d98ede57464736f6c63430008020033",
  "linkReferences": {},
  "deployedLinkReferences": {}
}