{
  "_format": "hh-sol-artifact-1",
  "contractName": "MaraScan",
  "sourceName": "contracts/MaraScan.sol",
  "abi": [
    {
      "anonymous": false,
      "inputs": [
        {
          "indexed": true,
          "internalType": "address",
          "name": "contractAddress",
          "type": "address"
        }
      ],
      "name": "ApproveToken",
      "type": "event"
    },
    {
      "anonymous": false,
      "inputs": [
        {
          "indexed": true,
          "internalType": "address",
          "name": "newContract",
          "type": "address"
        }
      ],
      "name": "ChangedBadgeContract",
      "type": "event"
    },
    {
      "anonymous": false,
      "inputs": [
        {
          "indexed": true,
          "internalType": "address",
          "name": "newContract",
          "type": "address"
        }
      ],
      "name": "ChangedUSDCContract",
      "type": "event"
    },
    {
      "anonymous": false,
      "inputs": [
        {
          "components": [
            {
              "internalType": "address",
              "name": "donor",
              "type": "address"
            },
            {
              "internalType": "uint256",
              "name": "donationRequestId",
              "type": "uint256"
            },
            {
              "internalType": "uint256",
              "name": "amount",
              "type": "uint256"
            }
          ],
          "indexed": false,
          "internalType": "struct MaraScan.Donation",
          "name": "donation",
          "type": "tuple"
        }
      ],
      "name": "Disbursed",
      "type": "event"
    },
    {
      "anonymous": false,
      "inputs": [
        {
          "indexed": true,
          "internalType": "address",
          "name": "donor",
          "type": "address"
        },
        {
          "indexed": true,
          "internalType": "uint256",
          "name": "amount",
          "type": "uint256"
        },
        {
          "indexed": false,
          "internalType": "uint256",
          "name": "donationRequestId",
          "type": "uint256"
        },
        {
          "indexed": false,
          "internalType": "uint256",
          "name": "currentUndisbursedBalance",
          "type": "uint256"
        },
        {
          "components": [
            {
              "internalType": "address",
              "name": "beneficiaryAddresses",
              "type": "address"
            },
            {
              "internalType": "uint256",
              "name": "amountPerBeneficiary",
              "type": "uint256"
            }
          ],
          "indexed": false,
          "internalType": "struct MaraScan.BeneficiaryOutput[]",
          "name": "beneficiaries",
          "type": "tuple[]"
        }
      ],
      "name": "Donated",
      "type": "event"
    },
    {
      "anonymous": false,
      "inputs": [
        {
          "indexed": false,
          "internalType": "uint8",
          "name": "version",
          "type": "uint8"
        }
      ],
      "name": "Initialized",
      "type": "event"
    },
    {
      "anonymous": false,
      "inputs": [
        {
          "indexed": true,
          "internalType": "bytes32",
          "name": "role",
          "type": "bytes32"
        },
        {
          "indexed": true,
          "internalType": "bytes32",
          "name": "previousAdminRole",
          "type": "bytes32"
        },
        {
          "indexed": true,
          "internalType": "bytes32",
          "name": "newAdminRole",
          "type": "bytes32"
        }
      ],
      "name": "RoleAdminChanged",
      "type": "event"
    },
    {
      "anonymous": false,
      "inputs": [
        {
          "indexed": true,
          "internalType": "bytes32",
          "name": "role",
          "type": "bytes32"
        },
        {
          "indexed": true,
          "internalType": "address",
          "name": "account",
          "type": "address"
        },
        {
          "indexed": true,
          "internalType": "address",
          "name": "sender",
          "type": "address"
        }
      ],
      "name": "RoleGranted",
      "type": "event"
    },
    {
      "anonymous": false,
      "inputs": [
        {
          "indexed": true,
          "internalType": "bytes32",
          "name": "role",
          "type": "bytes32"
        },
        {
          "indexed": true,
          "internalType": "address",
          "name": "account",
          "type": "address"
        },
        {
          "indexed": true,
          "internalType": "address",
          "name": "sender",
          "type": "address"
        }
      ],
      "name": "RoleRevoked",
      "type": "event"
    },
    {
      "inputs": [],
      "name": "ADMIN_ROLE",
      "outputs": [
        {
          "internalType": "bytes32",
          "name": "",
          "type": "bytes32"
        }
      ],
      "stateMutability": "view",
      "type": "function"
    },
    {
      "inputs": [],
      "name": "BADGE",
      "outputs": [
        {
          "internalType": "address",
          "name": "",
          "type": "address"
        }
      ],
      "stateMutability": "view",
      "type": "function"
    },
    {
      "inputs": [],
      "name": "DAI",
      "outputs": [
        {
          "internalType": "address",
          "name": "",
          "type": "address"
        }
      ],
      "stateMutability": "view",
      "type": "function"
    },
    {
      "inputs": [],
      "name": "DEFAULT_ADMIN_ROLE",
      "outputs": [
        {
          "internalType": "bytes32",
          "name": "",
          "type": "bytes32"
        }
      ],
      "stateMutability": "view",
      "type": "function"
    },
    {
      "inputs": [],
      "name": "MASTER_WALLET",
      "outputs": [
        {
          "internalType": "address",
          "name": "",
          "type": "address"
        }
      ],
      "stateMutability": "view",
      "type": "function"
    },
    {
      "inputs": [
        {
          "internalType": "uint256",
          "name": "_donationRequestId",
          "type": "uint256"
        },
        {
          "components": [
            {
              "internalType": "address",
              "name": "beneficiaryAddresses",
              "type": "address"
            },
            {
              "internalType": "uint256",
              "name": "acresPerBeneficiary",
              "type": "uint256"
            }
          ],
          "internalType": "struct MaraScan.BeneficiaryInput[]",
          "name": "_donationDetails",
          "type": "tuple[]"
        },
        {
          "internalType": "uint256",
          "name": "totalNumberOfAcres",
          "type": "uint256"
        },
        {
          "internalType": "bytes32",
          "name": "secretKey",
          "type": "bytes32"
        },
        {
          "internalType": "bool",
          "name": "disburse",
          "type": "bool"
        }
      ],
      "name": "SwapExactETHForTokens",
      "outputs": [],
      "stateMutability": "payable",
      "type": "function"
    },
    {
      "inputs": [],
      "name": "USDC",
      "outputs": [
        {
          "internalType": "address",
          "name": "",
          "type": "address"
        }
      ],
      "stateMutability": "view",
      "type": "function"
    },
    {
      "inputs": [],
      "name": "WMATIC",
      "outputs": [
        {
          "internalType": "address",
          "name": "",
          "type": "address"
        }
      ],
      "stateMutability": "view",
      "type": "function"
    },
    {
      "inputs": [
        {
          "internalType": "uint256",
          "name": "",
          "type": "uint256"
        }
      ],
      "name": "allDisbursedDonations",
      "outputs": [
        {
          "internalType": "address",
          "name": "donor",
          "type": "address"
        },
        {
          "internalType": "uint256",
          "name": "donationRequestId",
          "type": "uint256"
        },
        {
          "internalType": "uint256",
          "name": "amount",
          "type": "uint256"
        }
      ],
      "stateMutability": "view",
      "type": "function"
    },
    {
      "inputs": [
        {
          "internalType": "address",
          "name": "_tokenAddress",
          "type": "address"
        }
      ],
      "name": "approveTokenForDonation",
      "outputs": [],
      "stateMutability": "nonpayable",
      "type": "function"
    },
    {
      "inputs": [
        {
          "internalType": "address",
          "name": "",
          "type": "address"
        }
      ],
      "name": "approvedTokens",
      "outputs": [
        {
          "internalType": "bool",
          "name": "",
          "type": "bool"
        }
      ],
      "stateMutability": "view",
      "type": "function"
    },
    {
      "inputs": [
        {
          "internalType": "uint256",
          "name": "donationRequestId",
          "type": "uint256"
        }
      ],
      "name": "claimBadge",
      "outputs": [],
      "stateMutability": "nonpayable",
      "type": "function"
    },
    {
      "inputs": [
        {
          "internalType": "uint256",
          "name": "",
          "type": "uint256"
        }
      ],
      "name": "claimBadgesForDonors",
      "outputs": [
        {
          "internalType": "uint256",
          "name": "",
          "type": "uint256"
        }
      ],
      "stateMutability": "view",
      "type": "function"
    },
    {
      "inputs": [],
      "name": "disburseToken",
      "outputs": [],
      "stateMutability": "nonpayable",
      "type": "function"
    },
    {
      "inputs": [
        {
          "internalType": "uint256",
          "name": "_amount",
          "type": "uint256"
        },
        {
          "internalType": "uint256",
          "name": "_donationRequestId",
          "type": "uint256"
        },
        {
          "components": [
            {
              "internalType": "address",
              "name": "beneficiaryAddresses",
              "type": "address"
            },
            {
              "internalType": "uint256",
              "name": "acresPerBeneficiary",
              "type": "uint256"
            }
          ],
          "internalType": "struct MaraScan.BeneficiaryInput[]",
          "name": "_donationDetails",
          "type": "tuple[]"
        },
        {
          "internalType": "uint256",
          "name": "totalNumberOfAcres",
          "type": "uint256"
        },
        {
          "internalType": "bytes32",
          "name": "secretKey",
          "type": "bytes32"
        },
        {
          "internalType": "bool",
          "name": "disburse",
          "type": "bool"
        }
      ],
      "name": "donate",
      "outputs": [],
      "stateMutability": "nonpayable",
      "type": "function"
    },
    {
      "inputs": [
        {
          "internalType": "uint256",
          "name": "_amount",
          "type": "uint256"
        },
        {
          "internalType": "uint256",
          "name": "_donationRequestId",
          "type": "uint256"
        },
        {
          "components": [
            {
              "internalType": "address",
              "name": "beneficiaryAddresses",
              "type": "address"
            },
            {
              "internalType": "uint256",
              "name": "acresPerBeneficiary",
              "type": "uint256"
            }
          ],
          "internalType": "struct MaraScan.BeneficiaryInput[]",
          "name": "_donationDetails",
          "type": "tuple[]"
        },
        {
          "internalType": "uint256",
          "name": "totalNumberOfAcres",
          "type": "uint256"
        },
        {
          "internalType": "bool",
          "name": "disburse",
          "type": "bool"
        }
      ],
      "name": "donationFromHook",
      "outputs": [],
      "stateMutability": "nonpayable",
      "type": "function"
    },
    {
      "inputs": [],
      "name": "emergencyWithdrawETH",
      "outputs": [],
      "stateMutability": "nonpayable",
      "type": "function"
    },
    {
      "inputs": [
        {
          "internalType": "address",
          "name": "_tokenAddress",
          "type": "address"
        }
      ],
      "name": "emergencyWithdrawToken",
      "outputs": [],
      "stateMutability": "nonpayable",
      "type": "function"
    },
    {
      "inputs": [
        {
          "internalType": "bytes32",
          "name": "role",
          "type": "bytes32"
        }
      ],
      "name": "getRoleAdmin",
      "outputs": [
        {
          "internalType": "bytes32",
          "name": "",
          "type": "bytes32"
        }
      ],
      "stateMutability": "view",
      "type": "function"
    },
    {
      "inputs": [
        {
          "internalType": "bytes32",
          "name": "role",
          "type": "bytes32"
        },
        {
          "internalType": "address",
          "name": "account",
          "type": "address"
        }
      ],
      "name": "grantRole",
      "outputs": [],
      "stateMutability": "nonpayable",
      "type": "function"
    },
    {
      "inputs": [
        {
          "internalType": "bytes32",
          "name": "role",
          "type": "bytes32"
        },
        {
          "internalType": "address",
          "name": "account",
          "type": "address"
        }
      ],
      "name": "hasRole",
      "outputs": [
        {
          "internalType": "bool",
          "name": "",
          "type": "bool"
        }
      ],
      "stateMutability": "view",
      "type": "function"
    },
    {
      "inputs": [],
      "name": "initialize",
      "outputs": [],
      "stateMutability": "nonpayable",
      "type": "function"
    },
    {
      "inputs": [],
      "name": "minimumAmountToDisburse",
      "outputs": [
        {
          "internalType": "uint256",
          "name": "",
          "type": "uint256"
        }
      ],
      "stateMutability": "view",
      "type": "function"
    },
    {
      "inputs": [],
      "name": "poolFee",
      "outputs": [
        {
          "internalType": "uint24",
          "name": "",
          "type": "uint24"
        }
      ],
      "stateMutability": "view",
      "type": "function"
    },
    {
      "inputs": [],
      "name": "processingFeePercent",
      "outputs": [
        {
          "internalType": "uint256",
          "name": "",
          "type": "uint256"
        }
      ],
      "stateMutability": "view",
      "type": "function"
    },
    {
      "inputs": [
        {
          "internalType": "bytes32",
          "name": "role",
          "type": "bytes32"
        },
        {
          "internalType": "address",
          "name": "account",
          "type": "address"
        }
      ],
      "name": "renounceRole",
      "outputs": [],
      "stateMutability": "nonpayable",
      "type": "function"
    },
    {
      "inputs": [
        {
          "internalType": "bytes32",
          "name": "role",
          "type": "bytes32"
        },
        {
          "internalType": "address",
          "name": "account",
          "type": "address"
        }
      ],
      "name": "revokeRole",
      "outputs": [],
      "stateMutability": "nonpayable",
      "type": "function"
    },
    {
      "inputs": [
        {
          "internalType": "address",
          "name": "_tokenAddress",
          "type": "address"
        }
      ],
      "name": "setBadgeTokenContract",
      "outputs": [],
      "stateMutability": "nonpayable",
      "type": "function"
    },
    {
      "inputs": [
        {
          "internalType": "address",
          "name": "_masterWallet",
          "type": "address"
        }
      ],
      "name": "setMasterWallet",
      "outputs": [],
      "stateMutability": "nonpayable",
      "type": "function"
    },
    {
      "inputs": [
        {
          "internalType": "uint256",
          "name": "_fee",
          "type": "uint256"
        }
      ],
      "name": "setProcessingFee",
      "outputs": [],
      "stateMutability": "nonpayable",
      "type": "function"
    },
    {
      "inputs": [
        {
          "internalType": "bytes32",
          "name": "_secret",
          "type": "bytes32"
        }
      ],
      "name": "setSecretKey",
      "outputs": [],
      "stateMutability": "nonpayable",
      "type": "function"
    },
    {
      "inputs": [
        {
          "internalType": "bytes4",
          "name": "interfaceId",
          "type": "bytes4"
        }
      ],
      "name": "supportsInterface",
      "outputs": [
        {
          "internalType": "bool",
          "name": "",
          "type": "bool"
        }
      ],
      "stateMutability": "view",
      "type": "function"
    },
    {
      "inputs": [
        {
          "internalType": "uint256",
          "name": "amountIn",
          "type": "uint256"
        },
        {
          "internalType": "address",
          "name": "tokenIn",
          "type": "address"
        },
        {
          "components": [
            {
              "internalType": "address",
              "name": "beneficiaryAddresses",
              "type": "address"
            },
            {
              "internalType": "uint256",
              "name": "acresPerBeneficiary",
              "type": "uint256"
            }
          ],
          "internalType": "struct MaraScan.BeneficiaryInput[]",
          "name": "_donationDetails",
          "type": "tuple[]"
        },
        {
          "internalType": "uint256",
          "name": "_donationRequestId",
          "type": "uint256"
        },
        {
          "internalType": "uint256",
          "name": "totalNumberOfAcres",
          "type": "uint256"
        },
        {
          "internalType": "bytes32",
          "name": "secretKey",
          "type": "bytes32"
        }
      ],
      "name": "swapExactTokensForTokens",
      "outputs": [],
      "stateMutability": "nonpayable",
      "type": "function"
    },
    {
      "inputs": [],
      "name": "swapRouter",
      "outputs": [
        {
          "internalType": "contract ISwapRouter",
          "name": "",
          "type": "address"
        }
      ],
      "stateMutability": "view",
      "type": "function"
    },
    {
      "inputs": [],
      "name": "totalAmountDisbursed",
      "outputs": [
        {
          "internalType": "uint256",
          "name": "",
          "type": "uint256"
        }
      ],
      "stateMutability": "view",
      "type": "function"
    },
    {
      "inputs": [],
      "name": "unDisbursedAmount",
      "outputs": [
        {
          "internalType": "uint256",
          "name": "",
          "type": "uint256"
        }
      ],
      "stateMutability": "view",
      "type": "function"
    },
    {
      "inputs": [
        {
          "internalType": "uint256",
          "name": "",
          "type": "uint256"
        }
      ],
      "name": "unDisbursedDonations",
      "outputs": [
        {
          "internalType": "address",
          "name": "donor",
          "type": "address"
        },
        {
          "internalType": "uint256",
          "name": "donationRequestId",
          "type": "uint256"
        },
        {
          "internalType": "uint256",
          "name": "amount",
          "type": "uint256"
        }
      ],
      "stateMutability": "view",
      "type": "function"
    },
    {
      "inputs": [],
      "name": "uniswapRouter",
      "outputs": [
        {
          "internalType": "contract IUniswapV2Router02",
          "name": "",
          "type": "address"
        }
      ],
      "stateMutability": "view",
      "type": "function"
    }
  ],
  "bytecode": "0x608060405234801561001057600080fd5b50613065806100206000396000f3fe6080604052600436106102255760003560e01c80638129fc1c11610123578063a217fddf116100ab578063d547741f1161006f578063d547741f14610690578063d5d0c6f0146106b0578063d60bb296146106d0578063e0bab4c4146106e6578063ed8187261461070e57610225565b8063a217fddf14610491578063a6c7bf8a146105e3578063ae1ac70a14610603578063b0583c9414610623578063c31c9c071461066857610225565b806389a30271116100f257806389a302711461054857806391d14854146105705780639409bf5c146105905780639461446d146105b05780639dbfe5b7146105d057610225565b80638129fc1c146104db57806383fc6cf1146104f057806384536017146105065780638623afef1461051b57610225565b8063305c5310116101b15780636d1ea3fa116101755780636d1ea3fa1461043b578063735de9f71461046b57806375b238fc146104915780637ddef29f146104a65780637f49a932146104bb57610225565b8063305c53101461039d57806336568abe146103b35780633c2c4b5e146103d35780634d95cad9146103f3578063656ad7231461041b57610225565b80631d527d81116101f85780631d527d81146102d15780632341513514610309578063248a9ca31461032957806327d9f3a6146103675780632f2ff15d1461037d57610225565b806301ffc9a71461022a578063089fe6aa1461025f5780631418f5531461028f5780631af03203146102b1575b600080fd5b34801561023657600080fd5b5061024a610245366004612b1c565b61072e565b60405190151581526020015b60405180910390f35b34801561026b57600080fd5b5060085461027b9062ffffff1681565b60405162ffffff9091168152602001610256565b34801561029b57600080fd5b506102af6102aa366004612c40565b610767565b005b3480156102bd57600080fd5b506102af6102cc3660046129e4565b610ad0565b3480156102dd57600080fd5b506003546102f1906001600160a01b031681565b6040516001600160a01b039091168152602001610256565b34801561031557600080fd5b506102af610324366004612ad9565b610c98565b34801561033557600080fd5b50610359610344366004612ad9565b60009081526020819052604090206001015490565b604051908152602001610256565b34801561037357600080fd5b5061035960055481565b34801561038957600080fd5b506102af610398366004612af1565b610d7c565b3480156103a957600080fd5b50610359600a5481565b3480156103bf57600080fd5b506102af6103ce366004612af1565b610da1565b3480156103df57600080fd5b506002546102f1906001600160a01b031681565b3480156103ff57600080fd5b506102f1739c3c9283d3e44854697cd22d3faa240cfb03288981565b34801561042757600080fd5b506102af6104363660046129e4565b610e1f565b34801561044757600080fd5b5061024a6104563660046129e4565b600c6020526000908152604090205460ff1681565b34801561047757600080fd5b506001546102f1906201000090046001600160a01b031681565b34801561049d57600080fd5b50610359600081565b3480156104b257600080fd5b506102af610e75565b3480156104c757600080fd5b506102af6104d63660046129e4565b610ed9565b3480156104e757600080fd5b506102af610f09565b3480156104fc57600080fd5b50610359600b5481565b34801561051257600080fd5b506102af611058565b34801561052757600080fd5b50610359610536366004612ad9565b600d6020526000908152604090205481565b34801561055457600080fd5b506102f173e6b8a5cf854791412c1f6efc7caf629f5df1c74781565b34801561057c57600080fd5b5061024a61058b366004612af1565b61106d565b34801561059c57600080fd5b506102af6105ab366004612ca3565b611096565b3480156105bc57600080fd5b506102af6105cb366004612ad9565b611449565b6102af6105de366004612bcf565b61145a565b3480156105ef57600080fd5b506102af6105fe3660046129e4565b611858565b34801561060f57600080fd5b506102af61061e366004612b5c565b611886565b34801561062f57600080fd5b5061064361063e366004612ad9565b611efd565b604080516001600160a01b039094168452602084019290925290820152606001610256565b34801561067457600080fd5b506102f173e592427a0aece92de3edee1f18e0157c0586156481565b34801561069c57600080fd5b506102af6106ab366004612af1565b611f3a565b3480156106bc57600080fd5b506106436106cb366004612ad9565b611f5f565b3480156106dc57600080fd5b5061035960095481565b3480156106f257600080fd5b506102f1736b175474e89094c44da98b954eedeac495271d0f81565b34801561071a57600080fd5b506102af610729366004612ad9565b611f6f565b60006001600160e01b03198216637965db0b60e01b148061075f57506301ffc9a760e01b6001600160e01b03198316145b90505b919050565b6002546001600160a01b031633146107c65760405162461bcd60e51b815260206004820152601d60248201527f43616c6c6572206973204e6f742061206d61737465722077616c6c657400000060448201526064015b60405180910390fd5b6040516370a0823160e01b815230600482015273e6b8a5cf854791412c1f6efc7caf629f5df1c74790879082906370a082319060240160206040518083038186803b15801561081457600080fd5b505afa158015610828573d6000803e3d6000fd5b505050506040513d601f19601f8201168201806040525081019061084c9190612b44565b101561086a5760405162461bcd60e51b81526004016107bd90612dc7565b600b5460009061087b60648a612f1d565b6108859190612f3d565b90506000610893828a612f5c565b905080600960008282546108a79190612f05565b90915550600090506108b98683612f1d565b905060005b8781101561099c5760008989838181106108e857634e487b7160e01b600052603260045260246000fd5b90506040020160200135836108fd9190612f3d565b9050600f60405180604001604052808c8c8681811061092c57634e487b7160e01b600052603260045260246000fd5b61094292602060409092020190810191506129e4565b6001600160a01b039081168252602091820194909452825460018082018555600094855293829020835160029092020180546001600160a01b0319169190951617845501519101558061099481612fba565b9150506108be565b506000898152600e60205260409020600f80546109ba929190612876565b506040805160608101825233808252602082018c81528284018681526007805460018101825560009190915293517fa66cc928b5edb82af9bd49922954155ab7b0942694bea4ce44661d9a8736c688600390950294850180546001600160a01b0319166001600160a01b0390921691909117905590517fa66cc928b5edb82af9bd49922954155ab7b0942694bea4ce44661d9a8736c689840155517fa66cc928b5edb82af9bd49922954155ab7b0942694bea4ce44661d9a8736c68a9092019190915560095491518c9260008051602061301083398151915291610aa2918e91600f90612e99565b60405180910390a3610ab6600f60006128ee565b8415610ac457610ac4611f80565b50505050505050505050565b6000610adb81612413565b6040516370a0823160e01b81523060048201526000906001600160a01b038416906370a082319060240160206040518083038186803b158015610b1d57600080fd5b505afa158015610b31573d6000803e3d6000fd5b505050506040513d601f19601f82011682018060405250810190610b559190612b44565b11610b945760405162461bcd60e51b815260206004820152600f60248201526e15985b1d59481d1bdbc81cdb585b1b608a1b60448201526064016107bd565b6040516370a0823160e01b81523060048201526001600160a01b0383169063a9059cbb90339083906370a082319060240160206040518083038186803b158015610bdd57600080fd5b505afa158015610bf1573d6000803e3d6000fd5b505050506040513d601f19601f82011682018060405250810190610c159190612b44565b6040516001600160e01b031960e085901b1681526001600160a01b0390921660048301526024820152604401602060405180830381600087803b158015610c5b57600080fd5b505af1158015610c6f573d6000803e3d6000fd5b505050506040513d601f19601f82011682018060405250810190610c939190612abd565b505050565b6000818152600d6020526040902054610cf35760405162461bcd60e51b815260206004820152601960248201527f596f7520646f6e2774206861766520616e7920636c616d69730000000000000060448201526064016107bd565b6003546000828152600d60205260408082205490516227753160e31b8152600481019290925233602483015260448201526001600160a01b039091169063013ba98890606401600060405180830381600087803b158015610d5357600080fd5b505af1158015610d67573d6000803e3d6000fd5b505050600091825250600d6020526040812055565b600082815260208190526040902060010154610d9781612413565b610c93838361241d565b6001600160a01b0381163314610e115760405162461bcd60e51b815260206004820152602f60248201527f416363657373436f6e74726f6c3a2063616e206f6e6c792072656e6f756e636560448201526e103937b632b9903337b91039b2b63360891b60648201526084016107bd565b610e1b82826124a1565b5050565b6000610e2a81612413565b600380546001600160a01b0319166001600160a01b0384169081179091556040517f07d0f313d785d0a6e19240fc9a591f3d8e79b3c463c30276ea9e7678409ad0f890600090a25050565b6002546001600160a01b03163314610ecf5760405162461bcd60e51b815260206004820152601d60248201527f43616c6c6572206973204e6f742061206d61737465722077616c6c657400000060448201526064016107bd565b610ed7611f80565b565b6000610ee481612413565b506001600160a01b03166000908152600c60205260409020805460ff19166001179055565b600154610100900460ff1615808015610f2657506001805460ff16105b80610f3f5750303b158015610f3f57506001805460ff16145b610fa25760405162461bcd60e51b815260206004820152602e60248201527f496e697469616c697a61626c653a20636f6e747261637420697320616c72656160448201526d191e481a5b9a5d1a585b1a5e995960921b60648201526084016107bd565b6001805460ff1916811790558015610fc4576001805461ff0019166101001790555b610fcf600033612506565b6101f46005908155600b556008805462ffffff1916610bb8179055600280546001600160a01b03191673896f16dfb69d916aea7315b7455cc7b5a79157c71790558015611055576001805461ff00191681556040519081527f7f26b83ff96e1f2b6a682f133852f6798a09c465da95921460cefb38474024989060200160405180910390a15b50565b600061106381612413565b6110553347612510565b6000918252602082815260408084206001600160a01b0393909316845291905290205460ff1690565b60045482146110b75760405162461bcd60e51b81526004016107bd90612dfc565b6040516370a0823160e01b815233600482015273e6b8a5cf854791412c1f6efc7caf629f5df1c74790889082906370a082319060240160206040518083038186803b15801561110557600080fd5b505afa158015611119573d6000803e3d6000fd5b505050506040513d601f19601f8201168201806040525081019061113d9190612b44565b101561115b5760405162461bcd60e51b81526004016107bd90612dc7565b6040516323b872dd60e01b8152336004820152306024820152604481018990526001600160a01b038216906323b872dd90606401602060405180830381600087803b1580156111a957600080fd5b505af11580156111bd573d6000803e3d6000fd5b505050506040513d601f19601f820116820180604052508101906111e19190612abd565b50600b546000906111f360648b612f1d565b6111fd9190612f3d565b9050600061120b828b612f5c565b9050806009600082825461121f9190612f05565b90915550600090506112318783612f1d565b905060005b888110156113145760008a8a8381811061126057634e487b7160e01b600052603260045260246000fd5b90506040020160200135836112759190612f3d565b9050600f60405180604001604052808d8d868181106112a457634e487b7160e01b600052603260045260246000fd5b6112ba92602060409092020190810191506129e4565b6001600160a01b039081168252602091820194909452825460018082018555600094855293829020835160029092020180546001600160a01b0319169190951617845501519101558061130c81612fba565b915050611236565b5060008a8152600e60205260409020600f8054611332929190612876565b506040805160608101825233808252602082018d81528284018681526007805460018101825560009190915293517fa66cc928b5edb82af9bd49922954155ab7b0942694bea4ce44661d9a8736c688600390950294850180546001600160a01b0319166001600160a01b0390921691909117905590517fa66cc928b5edb82af9bd49922954155ab7b0942694bea4ce44661d9a8736c689840155517fa66cc928b5edb82af9bd49922954155ab7b0942694bea4ce44661d9a8736c68a9092019190915560095491518d926000805160206130108339815191529161141a918f91600f90612e99565b60405180910390a361142e600f60006128ee565b841561143c5761143c611f80565b5050505050505050505050565b600061145481612413565b50600b55565b600454821461147b5760405162461bcd60e51b81526004016107bd90612dfc565b600034116114be5760405162461bcd60e51b815260206004820152601060248201526f105b5bdd5b9d081d1bdbc81cdb585b1b60821b60448201526064016107bd565b6040805161010081018252739c3c9283d3e44854697cd22d3faa240cfb032889815273e6b8a5cf854791412c1f6efc7caf629f5df1c747602082015260085462ffffff16918101919091523360608201526000906080810161152142600f612f05565b8152346020808301829052600060408085018290526060948501829052805163414bf38960e01b815286516001600160a01b03908116600483015293870151841660248201529086015162ffffff16604482015293850151821660648501526080850151608485015260a085015160a485015260c085015160c485015260e085015190911660e484015292935073e592427a0aece92de3edee1f18e0157c058615649163414bf3899190610104016020604051808303818588803b1580156115e857600080fd5b505af11580156115fc573d6000803e3d6000fd5b50505050506040513d601f19601f820116820180604052508101906116219190612b44565b90506000600b546064836116359190612f1d565b61163f9190612f3d565b9050600061164d8284612f5c565b905080600960008282546116619190612f05565b90915550600090506116738883612f1d565b905060005b898110156117565760008b8b838181106116a257634e487b7160e01b600052603260045260246000fd5b90506040020160200135836116b79190612f3d565b9050600f60405180604001604052808e8e868181106116e657634e487b7160e01b600052603260045260246000fd5b6116fc92602060409092020190810191506129e4565b6001600160a01b039081168252602091820194909452825460018082018555600094855293829020835160029092020180546001600160a01b0319169190951617845501519101558061174e81612fba565b915050611678565b5060008b8152600e60205260409020600f8054611774929190612876565b5060076040518060600160405280336001600160a01b031681526020018d815260200184815250908060018154018082558091505060019003906000526020600020906003020160009091909190915060008201518160000160006101000a8154816001600160a01b0302191690836001600160a01b031602179055506020820151816001015560408201518160020155505083336001600160a01b03166000805160206130108339815191528d600954600f60405161183693929190612e99565b60405180910390a361184a600f60006128ee565b851561143c5761143c611f80565b600061186381612413565b50600280546001600160a01b0319166001600160a01b0392909216919091179055565b60045481146118a75760405162461bcd60e51b81526004016107bd90612dfc565b6001600160a01b0386166000908152600c602052604090205460ff166119215760405162461bcd60e51b815260206004820152602960248201527f5468697320746f6b656e206973206e6f74207265636f676e6973656420666f72604482015268103237b730ba34b7b760b91b60648201526084016107bd565b6040516370a0823160e01b8152336004820152869088906001600160a01b038316906370a082319060240160206040518083038186803b15801561196457600080fd5b505afa158015611978573d6000803e3d6000fd5b505050506040513d601f19601f8201168201806040525081019061199c9190612b44565b10156119ba5760405162461bcd60e51b81526004016107bd90612dc7565b60408051600280825260608201835260009260208301908036833701905050905087816000815181106119fd57634e487b7160e01b600052603260045260246000fd5b60200260200101906001600160a01b031690816001600160a01b03168152505073e6b8a5cf854791412c1f6efc7caf629f5df1c74781600181518110611a5357634e487b7160e01b600052603260045260246000fd5b6001600160a01b0392831660209182029290920101526040516323b872dd60e01b8152336004820152306024820152604481018b9052908316906323b872dd90606401602060405180830381600087803b158015611ab057600080fd5b505af1158015611ac4573d6000803e3d6000fd5b505050506040513d601f19601f82011682018060405250810190611ae89190612abd565b5060015460405163095ea7b360e01b8152620100009091046001600160a01b039081166004830152602482018b905283169063095ea7b390604401602060405180830381600087803b158015611b3d57600080fd5b505af1158015611b51573d6000803e3d6000fd5b505050506040513d601f19601f82011682018060405250810190611b759190612abd565b506001546000906201000090046001600160a01b03166338ed17398b600a8530611ba0426032612f05565b6040518663ffffffff1660e01b8152600401611bc0959493929190612e29565b600060405180830381600087803b158015611bda57600080fd5b505af1158015611bee573d6000803e3d6000fd5b505050506040513d6000823e601f3d908101601f19168201604052611c1691908101906129fe565b90506000600b54606483600181518110611c4057634e487b7160e01b600052603260045260246000fd5b6020026020010151611c529190612f1d565b611c5c9190612f3d565b905060008183600181518110611c8257634e487b7160e01b600052603260045260246000fd5b6020026020010151611c949190612f5c565b90508060096000828254611ca89190612f05565b9091555060009050611cba8883612f1d565b905060005b8a811015611d9d5760008c8c83818110611ce957634e487b7160e01b600052603260045260246000fd5b9050604002016020013583611cfe9190612f3d565b9050600f60405180604001604052808f8f86818110611d2d57634e487b7160e01b600052603260045260246000fd5b611d4392602060409092020190810191506129e4565b6001600160a01b039081168252602091820194909452825460018082018555600094855293829020835160029092020180546001600160a01b03191691909516178455015191015580611d9581612fba565b915050611cbf565b506000898152600e60205260409020600f8054611dbb929190612876565b5060408051606081018252338152602081018b8152918101848152600780546001808201835560009290925292517fa66cc928b5edb82af9bd49922954155ab7b0942694bea4ce44661d9a8736c688600390940293840180546001600160a01b0319166001600160a01b0390921691909117905592517fa66cc928b5edb82af9bd49922954155ab7b0942694bea4ce44661d9a8736c689830155517fa66cc928b5edb82af9bd49922954155ab7b0942694bea4ce44661d9a8736c68a9091015584518591908110611e9c57634e487b7160e01b600052603260045260246000fd5b6020026020010151336001600160a01b03166000805160206130108339815191528b600954600f604051611ed293929190612e99565b60405180910390a3611ee6600f60006128ee565b611eee611f80565b50505050505050505050505050565b60068181548110611f0d57600080fd5b60009182526020909120600390910201805460018201546002909201546001600160a01b03909116925083565b600082815260208190526040902060010154611f5581612413565b610c9383836124a1565b60078181548110611f0d57600080fd5b6000611f7a81612413565b50600455565b60005b60075481101561222657600060078281548110611fb057634e487b7160e01b600052603260045260246000fd5b6000918252602080832060408051606081018252600390940290910180546001600160a01b031684526001810154928401929092526002909101549082015291505b6020808301516000908152600e90915260409020548110156121a65773e6b8a5cf854791412c1f6efc7caf629f5df1c7476001600160a01b031663a9059cbb600e600085602001518152602001908152602001600020838154811061206757634e487b7160e01b600052603260045260246000fd5b60009182526020808320600290920290910154868201518352600e909152604090912080546001600160a01b0390921691859081106120b657634e487b7160e01b600052603260045260246000fd5b60009182526020909120600160029092020101546040516001600160e01b031960e085901b1681526001600160a01b0390921660048301526024820152604401602060405180830381600087803b15801561211057600080fd5b505af1158015612124573d6000803e3d6000fd5b505050506040513d601f19601f820116820180604052508101906121489190612abd565b6121945760405162461bcd60e51b815260206004820152601860248201527f556e61626c6520746f207472616e7366657220746f6b656e000000000000000060448201526064016107bd565b8061219e81612fba565b915050611ff2565b506040805182516001600160a01b0316815260208084015190820152828201518183015290517f547fbad98eef6ee5afbc1e1c60d04ca06ca6bb3ed4aca121d95b67e15cc8e4f49181900360600190a16020808201516000908152600e90915260408120612213916128ee565b508061221e81612fba565b915050611f83565b5060005b6007548110156122c55760066007828154811061225757634e487b7160e01b600052603260045260246000fd5b6000918252602080832084546001818101875595855291909320600392830290930180549190920290920180546001600160a01b0319166001600160a01b039093169290921782558281015492820192909255600291820154910155806122bd81612fba565b91505061222a565b506040516370a0823160e01b815230600482015260009073e6b8a5cf854791412c1f6efc7caf629f5df1c747906370a082319060240160206040518083038186803b15801561231357600080fd5b505afa158015612327573d6000803e3d6000fd5b505050506040513d601f19601f8201168201806040525081019061234b9190612b44565b60025460405163a9059cbb60e01b81526001600160a01b0390911660048201526024810182905290915073e6b8a5cf854791412c1f6efc7caf629f5df1c7479063a9059cbb90604401602060405180830381600087803b1580156123ae57600080fd5b505af11580156123c2573d6000803e3d6000fd5b505050506040513d601f19601f820116820180604052508101906123e69190612abd565b50600954600a60008282546123fb9190612f05565b9091555050600060098190556110559060079061290f565b6110558133612629565b612427828261106d565b610e1b576000828152602081815260408083206001600160a01b03851684529091529020805460ff1916600117905561245d3390565b6001600160a01b0316816001600160a01b0316837f2f8788117e7eff1d82e926ec794901d17c78024a50270940304540a733656f0d60405160405180910390a45050565b6124ab828261106d565b15610e1b576000828152602081815260408083206001600160a01b0385168085529252808320805460ff1916905551339285917ff6391f5c32d9c69d2a47ea670b442974b53935d1edc7fd64eb21e047a839171b9190a45050565b610e1b828261241d565b804710156125605760405162461bcd60e51b815260206004820152601d60248201527f416464726573733a20696e73756666696369656e742062616c616e636500000060448201526064016107bd565b6000826001600160a01b03168260405160006040518083038185875af1925050503d80600081146125ad576040519150601f19603f3d011682016040523d82523d6000602084013e6125b2565b606091505b5050905080610c935760405162461bcd60e51b815260206004820152603a60248201527f416464726573733a20756e61626c6520746f2073656e642076616c75652c207260448201527f6563697069656e74206d6179206861766520726576657274656400000000000060648201526084016107bd565b612633828261106d565b610e1b5761264b816001600160a01b0316601461268d565b61265683602061268d565b604051602001612667929190612d1f565b60408051601f198184030181529082905262461bcd60e51b82526107bd91600401612d94565b6060600061269c836002612f3d565b6126a7906002612f05565b67ffffffffffffffff8111156126cd57634e487b7160e01b600052604160045260246000fd5b6040519080825280601f01601f1916602001820160405280156126f7576020820181803683370190505b509050600360fc1b8160008151811061272057634e487b7160e01b600052603260045260246000fd5b60200101906001600160f81b031916908160001a905350600f60fb1b8160018151811061275d57634e487b7160e01b600052603260045260246000fd5b60200101906001600160f81b031916908160001a9053506000612781846002612f3d565b61278c906001612f05565b90505b6001811115612820576f181899199a1a9b1b9c1cb0b131b232b360811b85600f16601081106127ce57634e487b7160e01b600052603260045260246000fd5b1a60f81b8282815181106127f257634e487b7160e01b600052603260045260246000fd5b60200101906001600160f81b031916908160001a90535060049490941c9361281981612fa3565b905061278f565b50831561286f5760405162461bcd60e51b815260206004820181905260248201527f537472696e67733a20686578206c656e67746820696e73756666696369656e7460448201526064016107bd565b9392505050565b8280548282559060005260206000209060020281019282156128de5760005260206000209160020282015b828111156128de57825482546001600160a01b0319166001600160a01b0390911617825560018084015490830155600292830192909101906128a1565b506128ea929150612930565b5090565b50805460008255600202906000526020600020908101906110559190612930565b50805460008255600302906000526020600020908101906110559190612956565b5b808211156128ea5780546001600160a01b031916815560006001820155600201612931565b5b808211156128ea5780546001600160a01b03191681556000600182018190556002820155600301612957565b80356001600160a01b038116811461076257600080fd5b60008083601f8401126129ab578081fd5b50813567ffffffffffffffff8111156129c2578182fd5b6020830191508360206040830285010111156129dd57600080fd5b9250929050565b6000602082840312156129f5578081fd5b61286f82612983565b60006020808385031215612a10578182fd5b825167ffffffffffffffff80821115612a27578384fd5b818501915085601f830112612a3a578384fd5b815181811115612a4c57612a4c612feb565b838102604051601f19603f83011681018181108582111715612a7057612a70612feb565b604052828152858101935084860182860187018a1015612a8e578788fd5b8795505b83861015612ab0578051855260019590950194938601938601612a92565b5098975050505050505050565b600060208284031215612ace578081fd5b815161286f81613001565b600060208284031215612aea578081fd5b5035919050565b60008060408385031215612b03578081fd5b82359150612b1360208401612983565b90509250929050565b600060208284031215612b2d578081fd5b81356001600160e01b03198116811461286f578182fd5b600060208284031215612b55578081fd5b5051919050565b600080600080600080600060c0888a031215612b76578283fd5b87359650612b8660208901612983565b9550604088013567ffffffffffffffff811115612ba1578384fd5b612bad8a828b0161299a565b989b979a50986060810135976080820135975060a09091013595509350505050565b60008060008060008060a08789031215612be7578182fd5b86359550602087013567ffffffffffffffff811115612c04578283fd5b612c1089828a0161299a565b90965094505060408701359250606087013591506080870135612c3281613001565b809150509295509295509295565b60008060008060008060a08789031215612c58578182fd5b8635955060208701359450604087013567ffffffffffffffff811115612c7c578283fd5b612c8889828a0161299a565b909550935050606087013591506080870135612c3281613001565b600080600080600080600060c0888a031215612cbd578081fd5b8735965060208801359550604088013567ffffffffffffffff811115612ce1578182fd5b612ced8a828b0161299a565b909650945050606088013592506080880135915060a0880135612d0f81613001565b8091505092959891949750929550565b60007f416363657373436f6e74726f6c3a206163636f756e742000000000000000000082528351612d57816017850160208801612f73565b7001034b99036b4b9b9b4b733903937b6329607d1b6017918401918201528351612d88816028840160208801612f73565b01602801949350505050565b6000602082528251806020840152612db3816040850160208701612f73565b601f01601f19169190910160400192915050565b6020808252818101527f416d6f756e7420746f20646f6e61746520657863656564732062616c616e6365604082015260600190565b6020808252601390820152722ab730baba3437b934bd32b21031b0b63632b960691b604082015260600190565b600060a082018783526020878185015260a0604085015281875180845260c0860191508289019350845b81811015612e785784516001600160a01b031683529383019391830191600101612e53565b50506001600160a01b03969096166060850152505050608001529392505050565b6000606082018583526020858185015260406060818601528286548085526080870191508786528386209450855b81811015612ef65785546001600160a01b03168352600186810154868501526002909601959284019201612ec7565b50909998505050505050505050565b60008219821115612f1857612f18612fd5565b500190565b600082612f3857634e487b7160e01b81526012600452602481fd5b500490565b6000816000190483118215151615612f5757612f57612fd5565b500290565b600082821015612f6e57612f6e612fd5565b500390565b60005b83811015612f8e578181015183820152602001612f76565b83811115612f9d576000848401525b50505050565b600081612fb257612fb2612fd5565b506000190190565b6000600019821415612fce57612fce612fd5565b5060010190565b634e487b7160e01b600052601160045260246000fd5b634e487b7160e01b600052604160045260246000fd5b801515811461105557600080fdfe79b14f25002a439c35ede54adcc98f0d5e18e59c35b525f5f13bb0d53c43acdea26469706673582212204464b7c43ac0145e515fb26473278f02bd1ae3072cd00e66b055d9181ed4af8464736f6c63430008020033",
  "linkReferences": {},
  "deployedLinkReferences": {}
}