{
  "_format": "hh-sol-artifact-1",
  "contractName": "USDCWithrawal",
  "sourceName": "contracts/WithdrawFunds.sol",
  "abi": [
    {
      "anonymous": false,
      "inputs": [
        {
          "indexed": true,
          "internalType": "address",
          "name": "newContract",
          "type": "address"
        }
      ],
      "name": "ChangedUSDCContract",
      "type": "event"
    },
    {
      "anonymous": false,
      "inputs": [
        {
          "indexed": false,
          "internalType": "uint256",
          "name": "amount",
          "type": "uint256"
        }
      ],
      "name": "CircleTransfer",
      "type": "event"
    },
    {
      "anonymous": false,
      "inputs": [
        {
          "indexed": false,
          "internalType": "uint8",
          "name": "version",
          "type": "uint8"
        }
      ],
      "name": "Initialized",
      "type": "event"
    },
    {
      "anonymous": false,
      "inputs": [
        {
          "indexed": true,
          "internalType": "bytes32",
          "name": "role",
          "type": "bytes32"
        },
        {
          "indexed": true,
          "internalType": "bytes32",
          "name": "previousAdminRole",
          "type": "bytes32"
        },
        {
          "indexed": true,
          "internalType": "bytes32",
          "name": "newAdminRole",
          "type": "bytes32"
        }
      ],
      "name": "RoleAdminChanged",
      "type": "event"
    },
    {
      "anonymous": false,
      "inputs": [
        {
          "indexed": true,
          "internalType": "bytes32",
          "name": "role",
          "type": "bytes32"
        },
        {
          "indexed": true,
          "internalType": "address",
          "name": "account",
          "type": "address"
        },
        {
          "indexed": true,
          "internalType": "address",
          "name": "sender",
          "type": "address"
        }
      ],
      "name": "RoleGranted",
      "type": "event"
    },
    {
      "anonymous": false,
      "inputs": [
        {
          "indexed": true,
          "internalType": "bytes32",
          "name": "role",
          "type": "bytes32"
        },
        {
          "indexed": true,
          "internalType": "address",
          "name": "account",
          "type": "address"
        },
        {
          "indexed": true,
          "internalType": "address",
          "name": "sender",
          "type": "address"
        }
      ],
      "name": "RoleRevoked",
      "type": "event"
    },
    {
      "anonymous": false,
      "inputs": [
        {
          "indexed": true,
          "internalType": "address",
          "name": "beneficiary",
          "type": "address"
        },
        {
          "indexed": false,
          "internalType": "uint256",
          "name": "amount",
          "type": "uint256"
        }
      ],
      "name": "UserWithdrawal",
      "type": "event"
    },
    {
      "inputs": [],
      "name": "ADMIN_ROLE",
      "outputs": [
        {
          "internalType": "bytes32",
          "name": "",
          "type": "bytes32"
        }
      ],
      "stateMutability": "view",
      "type": "function"
    },
    {
      "inputs": [],
      "name": "DEFAULT_ADMIN_ROLE",
      "outputs": [
        {
          "internalType": "bytes32",
          "name": "",
          "type": "bytes32"
        }
      ],
      "stateMutability": "view",
      "type": "function"
    },
    {
      "inputs": [],
      "name": "MASTER_WALLET",
      "outputs": [
        {
          "internalType": "address",
          "name": "",
          "type": "address"
        }
      ],
      "stateMutability": "view",
      "type": "function"
    },
    {
      "inputs": [],
      "name": "USDC",
      "outputs": [
        {
          "internalType": "address",
          "name": "",
          "type": "address"
        }
      ],
      "stateMutability": "view",
      "type": "function"
    },
    {
      "inputs": [],
      "name": "_TRANSFER_WITH_AUTHORIZATION_SELECTOR",
      "outputs": [
        {
          "internalType": "bytes4",
          "name": "",
          "type": "bytes4"
        }
      ],
      "stateMutability": "view",
      "type": "function"
    },
    {
      "inputs": [],
      "name": "emergencyWithdrawETH",
      "outputs": [],
      "stateMutability": "nonpayable",
      "type": "function"
    },
    {
      "inputs": [
        {
          "internalType": "address",
          "name": "_tokenAddress",
          "type": "address"
        }
      ],
      "name": "emergencyWithdrawToken",
      "outputs": [],
      "stateMutability": "nonpayable",
      "type": "function"
    },
    {
      "inputs": [
        {
          "internalType": "bytes32",
          "name": "role",
          "type": "bytes32"
        }
      ],
      "name": "getRoleAdmin",
      "outputs": [
        {
          "internalType": "bytes32",
          "name": "",
          "type": "bytes32"
        }
      ],
      "stateMutability": "view",
      "type": "function"
    },
    {
      "inputs": [
        {
          "internalType": "bytes32",
          "name": "role",
          "type": "bytes32"
        },
        {
          "internalType": "address",
          "name": "account",
          "type": "address"
        }
      ],
      "name": "grantRole",
      "outputs": [],
      "stateMutability": "nonpayable",
      "type": "function"
    },
    {
      "inputs": [
        {
          "internalType": "bytes32",
          "name": "role",
          "type": "bytes32"
        },
        {
          "internalType": "address",
          "name": "account",
          "type": "address"
        }
      ],
      "name": "hasRole",
      "outputs": [
        {
          "internalType": "bool",
          "name": "",
          "type": "bool"
        }
      ],
      "stateMutability": "view",
      "type": "function"
    },
    {
      "inputs": [],
      "name": "initialize",
      "outputs": [],
      "stateMutability": "nonpayable",
      "type": "function"
    },
    {
      "inputs": [
        {
          "internalType": "bytes32",
          "name": "role",
          "type": "bytes32"
        },
        {
          "internalType": "address",
          "name": "account",
          "type": "address"
        }
      ],
      "name": "renounceRole",
      "outputs": [],
      "stateMutability": "nonpayable",
      "type": "function"
    },
    {
      "inputs": [
        {
          "internalType": "bytes32",
          "name": "role",
          "type": "bytes32"
        },
        {
          "internalType": "address",
          "name": "account",
          "type": "address"
        }
      ],
      "name": "revokeRole",
      "outputs": [],
      "stateMutability": "nonpayable",
      "type": "function"
    },
    {
      "inputs": [
        {
          "internalType": "address",
          "name": "_masterWallet",
          "type": "address"
        }
      ],
      "name": "setMasterWallet",
      "outputs": [],
      "stateMutability": "nonpayable",
      "type": "function"
    },
    {
      "inputs": [
        {
          "internalType": "address",
          "name": "_tokenAddress",
          "type": "address"
        }
      ],
      "name": "setUSDCTokenContract",
      "outputs": [],
      "stateMutability": "nonpayable",
      "type": "function"
    },
    {
      "inputs": [
        {
          "internalType": "bytes4",
          "name": "interfaceId",
          "type": "bytes4"
        }
      ],
      "name": "supportsInterface",
      "outputs": [
        {
          "internalType": "bool",
          "name": "",
          "type": "bool"
        }
      ],
      "stateMutability": "view",
      "type": "function"
    },
    {
      "inputs": [
        {
          "internalType": "address",
          "name": "_circleAddress",
          "type": "address"
        },
        {
          "internalType": "uint256",
          "name": "amount",
          "type": "uint256"
        }
      ],
      "name": "transferToCircle",
      "outputs": [],
      "stateMutability": "nonpayable",
      "type": "function"
    },
    {
      "inputs": [
        {
          "internalType": "bytes",
          "name": "transferWithAuthorization",
          "type": "bytes"
        }
      ],
      "name": "withdrawFromUser",
      "outputs": [
        {
          "internalType": "bool",
          "name": "",
          "type": "bool"
        }
      ],
      "stateMutability": "nonpayable",
      "type": "function"
    }
  ],
  "bytecode": "0x608060405234801561001057600080fd5b50611321806100206000396000f3fe608060405234801561001057600080fd5b50600436106101165760003560e01c80638129fc1c116100a2578063a217fddf11610071578063a217fddf146101e0578063a6c7bf8a14610244578063ab42c92814610257578063d547741f1461027e578063eead6fd81461029157610116565b80638129fc1c1461020e578063845360171461021657806389a302711461021e57806391d148541461023157610116565b806336568abe116100e957806336568abe1461019c5780633c2c4b5e146101af57806375b238fc146101e0578063796334f6146101e85780637ce0c089146101fb57610116565b806301ffc9a71461011b5780631af0320314610143578063248a9ca3146101585780632f2ff15d14610189575b600080fd5b61012e610129366004611085565b6102a4565b60405190151581526020015b60405180910390f35b610156610151366004610f97565b6102db565b005b61017b61016636600461103e565b60009081526020819052604090206001015490565b60405190815260200161013a565b610156610197366004611056565b6104a8565b6101566101aa366004611056565b6104cd565b6001546101c8906201000090046001600160a01b031681565b6040516001600160a01b03909116815260200161013a565b61017b600081565b61012e6101f63660046110ad565b61054b565b610156610209366004610ff3565b61075d565b610156610937565b610156610a45565b6002546101c8906001600160a01b031681565b61012e61023f366004611056565b610a5a565b610156610252366004610f97565b610a83565b6102656371f70b0760e11b81565b6040516001600160e01b0319909116815260200161013a565b61015661028c366004611056565b610ab9565b61015661029f366004610f97565b610ade565b60006001600160e01b03198216637965db0b60e01b14806102d557506301ffc9a760e01b6001600160e01b03198316145b92915050565b60006102e681610b34565b6040516370a0823160e01b81523060048201526000906001600160a01b038416906370a082319060240160206040518083038186803b15801561032857600080fd5b505afa15801561033c573d6000803e3d6000fd5b505050506040513d601f19601f82011682018060405250810190610360919061111a565b116103a45760405162461bcd60e51b815260206004820152600f60248201526e15985b1d59481d1bdbc81cdb585b1b608a1b60448201526064015b60405180910390fd5b6040516370a0823160e01b81523060048201526001600160a01b0383169063a9059cbb90339083906370a082319060240160206040518083038186803b1580156103ed57600080fd5b505afa158015610401573d6000803e3d6000fd5b505050506040513d601f19601f82011682018060405250810190610425919061111a565b6040516001600160e01b031960e085901b1681526001600160a01b0390921660048301526024820152604401602060405180830381600087803b15801561046b57600080fd5b505af115801561047f573d6000803e3d6000fd5b505050506040513d601f19601f820116820180604052508101906104a3919061101e565b505050565b6000828152602081905260409020600101546104c381610b34565b6104a38383610b3e565b6001600160a01b038116331461053d5760405162461bcd60e51b815260206004820152602f60248201527f416363657373436f6e74726f6c3a2063616e206f6e6c792072656e6f756e636560448201526e103937b632b9903337b91039b2b63360891b606482015260840161039b565b6105478282610bc2565b5050565b6001546000906201000090046001600160a01b031633146105ae5760405162461bcd60e51b815260206004820152601d60248201527f43616c6c6572206973204e6f742061206d61737465722077616c6c6574000000604482015260640161039b565b600080806105bf606082878961121a565b8101906105cc9190610fb3565b919450925090506001600160a01b038216301461062b5760405162461bcd60e51b815260206004820152601e60248201527f526563697069656e74206973206e6f74207468697320636f6e74726163740000604482015260640161039b565b6002546040516000916001600160a01b031690610657906371f70b0760e11b908a908a90602001611132565b60408051601f198184030181529082905261067191611156565b6000604051808303816000865af19150503d80600081146106ae576040519150601f19603f3d011682016040523d82523d6000602084013e6106b3565b606091505b50509050836001600160a01b03167fc7c8ab309277169a63ed070feed2a9c7de84e71be9d50f6f06c898458562561c836040516106f291815260200190565b60405180910390a2806107535760405162461bcd60e51b815260206004820152602360248201527f4661696c656420746f207472616e7366657220746f2074686520666f727761726044820152623232b960e91b606482015260840161039b565b9695505050505050565b6001546201000090046001600160a01b031633146107bd5760405162461bcd60e51b815260206004820152601d60248201527f43616c6c6572206973204e6f742061206d61737465722077616c6c6574000000604482015260640161039b565b6002546040516370a0823160e01b815230600482015282916001600160a01b0316906370a082319060240160206040518083038186803b15801561080057600080fd5b505afa158015610814573d6000803e3d6000fd5b505050506040513d601f19601f82011682018060405250810190610838919061111a565b10156108795760405162461bcd60e51b815260206004820152601060248201526f4e6f7420656e6f7567682066756e647360801b604482015260640161039b565b60025460405163a9059cbb60e01b81526001600160a01b038481166004830152602482018490529091169063a9059cbb90604401602060405180830381600087803b1580156108c757600080fd5b505af11580156108db573d6000803e3d6000fd5b505050506040513d601f19601f820116820180604052508101906108ff919061101e565b506040518181527fcd8a61b38032069b66bf36c7c3d76a3fcc767e19a772dc22d10b33ace7339f979060200160405180910390a15050565b600154610100900460ff161580801561095457506001805460ff16105b8061096d5750303b15801561096d57506001805460ff16145b6109d05760405162461bcd60e51b815260206004820152602e60248201527f496e697469616c697a61626c653a20636f6e747261637420697320616c72656160448201526d191e481a5b9a5d1a585b1a5e995960921b606482015260840161039b565b6001805460ff19168117905580156109f2576001805461ff0019166101001790555b6109fd600033610c27565b8015610a42576001805461ff00191681556040519081527f7f26b83ff96e1f2b6a682f133852f6798a09c465da95921460cefb38474024989060200160405180910390a15b50565b6000610a5081610b34565b610a423347610c31565b6000918252602082815260408084206001600160a01b0393909316845291905290205460ff1690565b6000610a8e81610b34565b50600180546001600160a01b03909216620100000262010000600160b01b0319909216919091179055565b600082815260208190526040902060010154610ad481610b34565b6104a38383610bc2565b6000610ae981610b34565b600280546001600160a01b0319166001600160a01b0384169081179091556040517f91d5bf4f9053246e98cdc0e5c39126503cfc274823cb7ec41f5c943cf09b7bc390600090a25050565b610a428133610d4a565b610b488282610a5a565b610547576000828152602081815260408083206001600160a01b03851684529091529020805460ff19166001179055610b7e3390565b6001600160a01b0316816001600160a01b0316837f2f8788117e7eff1d82e926ec794901d17c78024a50270940304540a733656f0d60405160405180910390a45050565b610bcc8282610a5a565b15610547576000828152602081815260408083206001600160a01b0385168085529252808320805460ff1916905551339285917ff6391f5c32d9c69d2a47ea670b442974b53935d1edc7fd64eb21e047a839171b9190a45050565b6105478282610b3e565b80471015610c815760405162461bcd60e51b815260206004820152601d60248201527f416464726573733a20696e73756666696369656e742062616c616e6365000000604482015260640161039b565b6000826001600160a01b03168260405160006040518083038185875af1925050503d8060008114610cce576040519150601f19603f3d011682016040523d82523d6000602084013e610cd3565b606091505b50509050806104a35760405162461bcd60e51b815260206004820152603a60248201527f416464726573733a20756e61626c6520746f2073656e642076616c75652c207260448201527f6563697069656e74206d61792068617665207265766572746564000000000000606482015260840161039b565b610d548282610a5a565b61054757610d6c816001600160a01b03166014610dae565b610d77836020610dae565b604051602001610d88929190611172565b60408051601f198184030181529082905262461bcd60e51b825261039b916004016111e7565b60606000610dbd83600261125a565b610dc8906002611242565b67ffffffffffffffff811115610dee57634e487b7160e01b600052604160045260246000fd5b6040519080825280601f01601f191660200182016040528015610e18576020820181803683370190505b509050600360fc1b81600081518110610e4157634e487b7160e01b600052603260045260246000fd5b60200101906001600160f81b031916908160001a905350600f60fb1b81600181518110610e7e57634e487b7160e01b600052603260045260246000fd5b60200101906001600160f81b031916908160001a9053506000610ea284600261125a565b610ead906001611242565b90505b6001811115610f41576f181899199a1a9b1b9c1cb0b131b232b360811b85600f1660108110610eef57634e487b7160e01b600052603260045260246000fd5b1a60f81b828281518110610f1357634e487b7160e01b600052603260045260246000fd5b60200101906001600160f81b031916908160001a90535060049490941c93610f3a816112a9565b9050610eb0565b508315610f905760405162461bcd60e51b815260206004820181905260248201527f537472696e67733a20686578206c656e67746820696e73756666696369656e74604482015260640161039b565b9392505050565b600060208284031215610fa8578081fd5b8135610f90816112d6565b600080600060608486031215610fc7578182fd5b8335610fd2816112d6565b92506020840135610fe2816112d6565b929592945050506040919091013590565b60008060408385031215611005578182fd5b8235611010816112d6565b946020939093013593505050565b60006020828403121561102f578081fd5b81518015158114610f90578182fd5b60006020828403121561104f578081fd5b5035919050565b60008060408385031215611068578182fd5b82359150602083013561107a816112d6565b809150509250929050565b600060208284031215611096578081fd5b81356001600160e01b031981168114610f90578182fd5b600080602083850312156110bf578182fd5b823567ffffffffffffffff808211156110d6578384fd5b818501915085601f8301126110e9578384fd5b8135818111156110f7578485fd5b866020828501011115611108578485fd5b60209290920196919550909350505050565b60006020828403121561112b578081fd5b5051919050565b6001600160e01b031984168152600082846004840137910160040190815292915050565b60008251611168818460208701611279565b9190910192915050565b60007f416363657373436f6e74726f6c3a206163636f756e7420000000000000000000825283516111aa816017850160208801611279565b7001034b99036b4b9b9b4b733903937b6329607d1b60179184019182015283516111db816028840160208801611279565b01602801949350505050565b6000602082528251806020840152611206816040850160208701611279565b601f01601f19169190910160400192915050565b60008085851115611229578182fd5b83861115611235578182fd5b5050820193919092039150565b60008219821115611255576112556112c0565b500190565b6000816000190483118215151615611274576112746112c0565b500290565b60005b8381101561129457818101518382015260200161127c565b838111156112a3576000848401525b50505050565b6000816112b8576112b86112c0565b506000190190565b634e487b7160e01b600052601160045260246000fd5b6001600160a01b0381168114610a4257600080fdfea26469706673582212204555ff3d3cd49dedd54f27db1080f371fa432ad1f27c20a0de2e84578de286d864736f6c63430008020033",
  "linkReferences": {},
  "deployedLinkReferences": {}
}