{
  "_format": "hh-sol-artifact-1",
  "contractName": "MaraScanOperations",
  "sourceName": "contracts/MaraScanOperations.sol",
  "abi": [
    {
      "anonymous": false,
      "inputs": [
        {
          "indexed": true,
          "internalType": "address",
          "name": "newContract",
          "type": "address"
        }
      ],
      "name": "ChangedUSDCContract",
      "type": "event"
    },
    {
      "anonymous": false,
      "inputs": [
        {
          "indexed": false,
          "internalType": "uint256",
          "name": "amount",
          "type": "uint256"
        }
      ],
      "name": "CircleTransfer",
      "type": "event"
    },
    {
      "anonymous": false,
      "inputs": [
        {
          "indexed": false,
          "internalType": "uint8",
          "name": "version",
          "type": "uint8"
        }
      ],
      "name": "Initialized",
      "type": "event"
    },
    {
      "anonymous": false,
      "inputs": [
        {
          "indexed": true,
          "internalType": "bytes32",
          "name": "role",
          "type": "bytes32"
        },
        {
          "indexed": true,
          "internalType": "bytes32",
          "name": "previousAdminRole",
          "type": "bytes32"
        },
        {
          "indexed": true,
          "internalType": "bytes32",
          "name": "newAdminRole",
          "type": "bytes32"
        }
      ],
      "name": "RoleAdminChanged",
      "type": "event"
    },
    {
      "anonymous": false,
      "inputs": [
        {
          "indexed": true,
          "internalType": "bytes32",
          "name": "role",
          "type": "bytes32"
        },
        {
          "indexed": true,
          "internalType": "address",
          "name": "account",
          "type": "address"
        },
        {
          "indexed": true,
          "internalType": "address",
          "name": "sender",
          "type": "address"
        }
      ],
      "name": "RoleGranted",
      "type": "event"
    },
    {
      "anonymous": false,
      "inputs": [
        {
          "indexed": true,
          "internalType": "bytes32",
          "name": "role",
          "type": "bytes32"
        },
        {
          "indexed": true,
          "internalType": "address",
          "name": "account",
          "type": "address"
        },
        {
          "indexed": true,
          "internalType": "address",
          "name": "sender",
          "type": "address"
        }
      ],
      "name": "RoleRevoked",
      "type": "event"
    },
    {
      "anonymous": false,
      "inputs": [
        {
          "indexed": true,
          "internalType": "address",
          "name": "beneficiary",
          "type": "address"
        },
        {
          "indexed": false,
          "internalType": "uint256",
          "name": "amount",
          "type": "uint256"
        }
      ],
      "name": "UserWithdrawal",
      "type": "event"
    },
    {
      "inputs": [],
      "name": "ADMIN_ROLE",
      "outputs": [
        {
          "internalType": "bytes32",
          "name": "",
          "type": "bytes32"
        }
      ],
      "stateMutability": "view",
      "type": "function"
    },
    {
      "inputs": [],
      "name": "DEFAULT_ADMIN_ROLE",
      "outputs": [
        {
          "internalType": "bytes32",
          "name": "",
          "type": "bytes32"
        }
      ],
      "stateMutability": "view",
      "type": "function"
    },
    {
      "inputs": [],
      "name": "MASTER_WALLET",
      "outputs": [
        {
          "internalType": "address",
          "name": "",
          "type": "address"
        }
      ],
      "stateMutability": "view",
      "type": "function"
    },
    {
      "inputs": [],
      "name": "USDC",
      "outputs": [
        {
          "internalType": "address",
          "name": "",
          "type": "address"
        }
      ],
      "stateMutability": "view",
      "type": "function"
    },
    {
      "inputs": [],
      "name": "_TRANSFER_WITH_AUTHORIZATION_SELECTOR",
      "outputs": [
        {
          "internalType": "bytes4",
          "name": "",
          "type": "bytes4"
        }
      ],
      "stateMutability": "view",
      "type": "function"
    },
    {
      "inputs": [
        {
          "internalType": "address",
          "name": "from",
          "type": "address"
        },
        {
          "internalType": "address",
          "name": "to",
          "type": "address"
        },
        {
          "internalType": "uint256",
          "name": "value",
          "type": "uint256"
        },
        {
          "internalType": "uint256",
          "name": "validAfter",
          "type": "uint256"
        },
        {
          "internalType": "uint256",
          "name": "validBefore",
          "type": "uint256"
        },
        {
          "internalType": "bytes32",
          "name": "nonce",
          "type": "bytes32"
        },
        {
          "internalType": "uint8",
          "name": "v",
          "type": "uint8"
        },
        {
          "internalType": "bytes32",
          "name": "r",
          "type": "bytes32"
        },
        {
          "internalType": "bytes32",
          "name": "s",
          "type": "bytes32"
        }
      ],
      "name": "_gaslessTransfer",
      "outputs": [
        {
          "internalType": "bool",
          "name": "",
          "type": "bool"
        }
      ],
      "stateMutability": "nonpayable",
      "type": "function"
    },
    {
      "inputs": [
        {
          "internalType": "address",
          "name": "authorizer",
          "type": "address"
        },
        {
          "internalType": "bytes32",
          "name": "nonce",
          "type": "bytes32"
        }
      ],
      "name": "authorizationState",
      "outputs": [
        {
          "internalType": "bool",
          "name": "",
          "type": "bool"
        }
      ],
      "stateMutability": "view",
      "type": "function"
    },
    {
      "inputs": [],
      "name": "emergencyWithdrawETH",
      "outputs": [],
      "stateMutability": "nonpayable",
      "type": "function"
    },
    {
      "inputs": [
        {
          "internalType": "address",
          "name": "_tokenAddress",
          "type": "address"
        }
      ],
      "name": "emergencyWithdrawToken",
      "outputs": [],
      "stateMutability": "nonpayable",
      "type": "function"
    },
    {
      "inputs": [
        {
          "internalType": "bytes32",
          "name": "role",
          "type": "bytes32"
        }
      ],
      "name": "getRoleAdmin",
      "outputs": [
        {
          "internalType": "bytes32",
          "name": "",
          "type": "bytes32"
        }
      ],
      "stateMutability": "view",
      "type": "function"
    },
    {
      "inputs": [
        {
          "internalType": "bytes32",
          "name": "role",
          "type": "bytes32"
        },
        {
          "internalType": "address",
          "name": "account",
          "type": "address"
        }
      ],
      "name": "grantRole",
      "outputs": [],
      "stateMutability": "nonpayable",
      "type": "function"
    },
    {
      "inputs": [
        {
          "internalType": "bytes32",
          "name": "role",
          "type": "bytes32"
        },
        {
          "internalType": "address",
          "name": "account",
          "type": "address"
        }
      ],
      "name": "hasRole",
      "outputs": [
        {
          "internalType": "bool",
          "name": "",
          "type": "bool"
        }
      ],
      "stateMutability": "view",
      "type": "function"
    },
    {
      "inputs": [],
      "name": "initialize",
      "outputs": [],
      "stateMutability": "nonpayable",
      "type": "function"
    },
    {
      "inputs": [
        {
          "internalType": "bytes32",
          "name": "role",
          "type": "bytes32"
        },
        {
          "internalType": "address",
          "name": "account",
          "type": "address"
        }
      ],
      "name": "renounceRole",
      "outputs": [],
      "stateMutability": "nonpayable",
      "type": "function"
    },
    {
      "inputs": [
        {
          "internalType": "bytes32",
          "name": "role",
          "type": "bytes32"
        },
        {
          "internalType": "address",
          "name": "account",
          "type": "address"
        }
      ],
      "name": "revokeRole",
      "outputs": [],
      "stateMutability": "nonpayable",
      "type": "function"
    },
    {
      "inputs": [
        {
          "internalType": "address",
          "name": "_masterWallet",
          "type": "address"
        }
      ],
      "name": "setMasterWallet",
      "outputs": [],
      "stateMutability": "nonpayable",
      "type": "function"
    },
    {
      "inputs": [
        {
          "internalType": "address",
          "name": "_tokenAddress",
          "type": "address"
        }
      ],
      "name": "setUSDCTokenContract",
      "outputs": [],
      "stateMutability": "nonpayable",
      "type": "function"
    },
    {
      "inputs": [
        {
          "internalType": "bytes4",
          "name": "interfaceId",
          "type": "bytes4"
        }
      ],
      "name": "supportsInterface",
      "outputs": [
        {
          "internalType": "bool",
          "name": "",
          "type": "bool"
        }
      ],
      "stateMutability": "view",
      "type": "function"
    },
    {
      "inputs": [
        {
          "internalType": "address",
          "name": "_circleAddress",
          "type": "address"
        },
        {
          "internalType": "uint256",
          "name": "amount",
          "type": "uint256"
        }
      ],
      "name": "transferToCircle",
      "outputs": [],
      "stateMutability": "nonpayable",
      "type": "function"
    }
  ],
  "bytecode": "0x608060405234801561001057600080fd5b506112c3806100206000396000f3fe608060405234801561001057600080fd5b50600436106101215760003560e01c80638129fc1c116100ad578063a6c7bf8a11610071578063a6c7bf8a1461024f578063ab42c92814610262578063d547741f14610289578063e94a01021461029c578063eead6fd8146102af57610121565b80638129fc1c14610219578063845360171461022157806389a302711461022957806391d148541461023c578063a217fddf146101fe57610121565b806336568abe116100f457806336568abe146101a75780633c2c4b5e146101ba57806356c795fd146101eb57806375b238fc146101fe5780637ce0c0891461020657610121565b806301ffc9a7146101265780631af032031461014e578063248a9ca3146101635780632f2ff15d14610194575b600080fd5b610139610134366004611111565b6102c2565b60405190151581526020015b60405180910390f35b61016161015c366004610fe5565b6102fb565b005b6101866101713660046110ce565b60009081526020819052604090206001015490565b604051908152602001610145565b6101616101a23660046110e6565b6104c8565b6101616101b53660046110e6565b6104ed565b6001546101d3906201000090046001600160a01b031681565b6040516001600160a01b039091168152602001610145565b6101396101f9366004610fff565b61056b565b610186600081565b610161610214366004611085565b6106bd565b610161610897565b6101616109f7565b6002546101d3906001600160a01b031681565b61013961024a3660046110e6565b610a0c565b61016161025d366004610fe5565b610a35565b6102706371f70b0760e11b81565b6040516001600160e01b03199091168152602001610145565b6101616102973660046110e6565b610a6b565b6101396102aa366004611085565b610a90565b6101616102bd366004610fe5565b610b1c565b60006001600160e01b03198216637965db0b60e01b14806102f357506301ffc9a760e01b6001600160e01b03198316145b90505b919050565b600061030681610b72565b6040516370a0823160e01b81523060048201526000906001600160a01b038416906370a082319060240160206040518083038186803b15801561034857600080fd5b505afa15801561035c573d6000803e3d6000fd5b505050506040513d601f19601f820116820180604052508101906103809190611139565b116103c45760405162461bcd60e51b815260206004820152600f60248201526e15985b1d59481d1bdbc81cdb585b1b608a1b60448201526064015b60405180910390fd5b6040516370a0823160e01b81523060048201526001600160a01b0383169063a9059cbb90339083906370a082319060240160206040518083038186803b15801561040d57600080fd5b505afa158015610421573d6000803e3d6000fd5b505050506040513d601f19601f820116820180604052508101906104459190611139565b6040516001600160e01b031960e085901b1681526001600160a01b0390921660048301526024820152604401602060405180830381600087803b15801561048b57600080fd5b505af115801561049f573d6000803e3d6000fd5b505050506040513d601f19601f820116820180604052508101906104c391906110ae565b505050565b6000828152602081905260409020600101546104e381610b72565b6104c38383610b7c565b6001600160a01b038116331461055d5760405162461bcd60e51b815260206004820152602f60248201527f416363657373436f6e74726f6c3a2063616e206f6e6c792072656e6f756e636560448201526e103937b632b9903337b91039b2b63360891b60648201526084016103bb565b6105678282610c00565b5050565b6001546000906201000090046001600160a01b031633146105ce5760405162461bcd60e51b815260206004820152601d60248201527f43616c6c6572206973204e6f742061206d61737465722077616c6c657400000060448201526064016103bb565b6002546040516371f70b0760e11b81526001600160a01b038c811660048301528b81166024830152604482018b9052606482018a90526084820189905260a4820188905260ff871660c483015260e4820186905261010482018590529091169063e3ee160e9061012401600060405180830381600087803b15801561065257600080fd5b505af1158015610666573d6000803e3d6000fd5b50505050896001600160a01b03167fc7c8ab309277169a63ed070feed2a9c7de84e71be9d50f6f06c898458562561c896040516106a591815260200190565b60405180910390a25060019998505050505050505050565b6001546201000090046001600160a01b0316331461071d5760405162461bcd60e51b815260206004820152601d60248201527f43616c6c6572206973204e6f742061206d61737465722077616c6c657400000060448201526064016103bb565b6002546040516370a0823160e01b815230600482015282916001600160a01b0316906370a082319060240160206040518083038186803b15801561076057600080fd5b505afa158015610774573d6000803e3d6000fd5b505050506040513d601f19601f820116820180604052508101906107989190611139565b10156107d95760405162461bcd60e51b815260206004820152601060248201526f4e6f7420656e6f7567682066756e647360801b60448201526064016103bb565b60025460405163a9059cbb60e01b81526001600160a01b038481166004830152602482018490529091169063a9059cbb90604401602060405180830381600087803b15801561082757600080fd5b505af115801561083b573d6000803e3d6000fd5b505050506040513d601f19601f8201168201806040525081019061085f91906110ae565b506040518181527fcd8a61b38032069b66bf36c7c3d76a3fcc767e19a772dc22d10b33ace7339f979060200160405180910390a15050565b600154610100900460ff16158080156108b457506001805460ff16105b806108cd5750303b1580156108cd57506001805460ff16145b6109305760405162461bcd60e51b815260206004820152602e60248201527f496e697469616c697a61626c653a20636f6e747261637420697320616c72656160448201526d191e481a5b9a5d1a585b1a5e995960921b60648201526084016103bb565b6001805460ff1916811790558015610952576001805461ff0019166101001790555b61095d600033610c65565b600280546001600160a01b0319167307865c6e87b9f70255377e024ace6630c1eaa37f1790556001805475f10dc6fee78b300a5b3ab9cc9470264265a2d6af000062010000600160b01b031990911617905580156109f4576001805461ff00191681556040519081527f7f26b83ff96e1f2b6a682f133852f6798a09c465da95921460cefb38474024989060200160405180910390a15b50565b6000610a0281610b72565b6109f43347610c6f565b6000918252602082815260408084206001600160a01b0393909316845291905290205460ff1690565b6000610a4081610b72565b50600180546001600160a01b03909216620100000262010000600160b01b0319909216919091179055565b600082815260208190526040902060010154610a8681610b72565b6104c38383610c00565b6002546040516374a5008160e11b81526001600160a01b03848116600483015260248201849052600092169063e94a01029060440160206040518083038186803b158015610add57600080fd5b505afa158015610af1573d6000803e3d6000fd5b505050506040513d601f19601f82011682018060405250810190610b1591906110ae565b9392505050565b6000610b2781610b72565b600280546001600160a01b0319166001600160a01b0384169081179091556040517f91d5bf4f9053246e98cdc0e5c39126503cfc274823cb7ec41f5c943cf09b7bc390600090a25050565b6109f48133610d88565b610b868282610a0c565b610567576000828152602081815260408083206001600160a01b03851684529091529020805460ff19166001179055610bbc3390565b6001600160a01b0316816001600160a01b0316837f2f8788117e7eff1d82e926ec794901d17c78024a50270940304540a733656f0d60405160405180910390a45050565b610c0a8282610a0c565b15610567576000828152602081815260408083206001600160a01b0385168085529252808320805460ff1916905551339285917ff6391f5c32d9c69d2a47ea670b442974b53935d1edc7fd64eb21e047a839171b9190a45050565b6105678282610b7c565b80471015610cbf5760405162461bcd60e51b815260206004820152601d60248201527f416464726573733a20696e73756666696369656e742062616c616e636500000060448201526064016103bb565b6000826001600160a01b03168260405160006040518083038185875af1925050503d8060008114610d0c576040519150601f19603f3d011682016040523d82523d6000602084013e610d11565b606091505b50509050806104c35760405162461bcd60e51b815260206004820152603a60248201527f416464726573733a20756e61626c6520746f2073656e642076616c75652c207260448201527f6563697069656e74206d6179206861766520726576657274656400000000000060648201526084016103bb565b610d928282610a0c565b61056757610daa816001600160a01b03166014610dec565b610db5836020610dec565b604051602001610dc6929190611151565b60408051601f198184030181529082905262461bcd60e51b82526103bb916004016111c6565b60606000610dfb836002611211565b610e069060026111f9565b67ffffffffffffffff811115610e2c57634e487b7160e01b600052604160045260246000fd5b6040519080825280601f01601f191660200182016040528015610e56576020820181803683370190505b509050600360fc1b81600081518110610e7f57634e487b7160e01b600052603260045260246000fd5b60200101906001600160f81b031916908160001a905350600f60fb1b81600181518110610ebc57634e487b7160e01b600052603260045260246000fd5b60200101906001600160f81b031916908160001a9053506000610ee0846002611211565b610eeb9060016111f9565b90505b6001811115610f7f576f181899199a1a9b1b9c1cb0b131b232b360811b85600f1660108110610f2d57634e487b7160e01b600052603260045260246000fd5b1a60f81b828281518110610f5157634e487b7160e01b600052603260045260246000fd5b60200101906001600160f81b031916908160001a90535060049490941c93610f7881611260565b9050610eee565b508315610b155760405162461bcd60e51b815260206004820181905260248201527f537472696e67733a20686578206c656e67746820696e73756666696369656e7460448201526064016103bb565b80356001600160a01b03811681146102f657600080fd5b600060208284031215610ff6578081fd5b610b1582610fce565b60008060008060008060008060006101208a8c03121561101d578485fd5b6110268a610fce565b985061103460208b01610fce565b975060408a0135965060608a0135955060808a0135945060a08a0135935060c08a013560ff81168114611065578384fd5b8093505060e08a013591506101008a013590509295985092959850929598565b60008060408385031215611097578182fd5b6110a083610fce565b946020939093013593505050565b6000602082840312156110bf578081fd5b81518015158114610b15578182fd5b6000602082840312156110df578081fd5b5035919050565b600080604083850312156110f8578182fd5b8235915061110860208401610fce565b90509250929050565b600060208284031215611122578081fd5b81356001600160e01b031981168114610b15578182fd5b60006020828403121561114a578081fd5b5051919050565b60007f416363657373436f6e74726f6c3a206163636f756e742000000000000000000082528351611189816017850160208801611230565b7001034b99036b4b9b9b4b733903937b6329607d1b60179184019182015283516111ba816028840160208801611230565b01602801949350505050565b60006020825282518060208401526111e5816040850160208701611230565b601f01601f19169190910160400192915050565b6000821982111561120c5761120c611277565b500190565b600081600019048311821515161561122b5761122b611277565b500290565b60005b8381101561124b578181015183820152602001611233565b8381111561125a576000848401525b50505050565b60008161126f5761126f611277565b506000190190565b634e487b7160e01b600052601160045260246000fdfea2646970667358221220d99d8cfefb510fb249ef495b3aea412114651c665194168d7c44b6ee385a221f64736f6c63430008020033",
  "linkReferences": {},
  "deployedLinkReferences": {}
}