{
  "_format": "hh-sol-artifact-1",
  "contractName": "DonorBadges",
  "sourceName": "contracts/Badges.sol",
  "abi": [
    {
      "inputs": [],
      "stateMutability": "nonpayable",
      "type": "constructor"
    },
    {
      "anonymous": false,
      "inputs": [
        {
          "indexed": true,
          "internalType": "address",
          "name": "account",
          "type": "address"
        },
        {
          "indexed": true,
          "internalType": "address",
          "name": "operator",
          "type": "address"
        },
        {
          "indexed": false,
          "internalType": "bool",
          "name": "approved",
          "type": "bool"
        }
      ],
      "name": "ApprovalForAll",
      "type": "event"
    },
    {
      "anonymous": false,
      "inputs": [
        {
          "indexed": true,
          "internalType": "address",
          "name": "operator",
          "type": "address"
        },
        {
          "indexed": true,
          "internalType": "address",
          "name": "from",
          "type": "address"
        },
        {
          "indexed": true,
          "internalType": "address",
          "name": "to",
          "type": "address"
        },
        {
          "indexed": false,
          "internalType": "uint256[]",
          "name": "ids",
          "type": "uint256[]"
        },
        {
          "indexed": false,
          "internalType": "uint256[]",
          "name": "values",
          "type": "uint256[]"
        }
      ],
      "name": "TransferBatch",
      "type": "event"
    },
    {
      "anonymous": false,
      "inputs": [
        {
          "indexed": true,
          "internalType": "address",
          "name": "operator",
          "type": "address"
        },
        {
          "indexed": true,
          "internalType": "address",
          "name": "from",
          "type": "address"
        },
        {
          "indexed": true,
          "internalType": "address",
          "name": "to",
          "type": "address"
        },
        {
          "indexed": false,
          "internalType": "uint256",
          "name": "id",
          "type": "uint256"
        },
        {
          "indexed": false,
          "internalType": "uint256",
          "name": "value",
          "type": "uint256"
        }
      ],
      "name": "TransferSingle",
      "type": "event"
    },
    {
      "anonymous": false,
      "inputs": [
        {
          "indexed": false,
          "internalType": "string",
          "name": "value",
          "type": "string"
        },
        {
          "indexed": true,
          "internalType": "uint256",
          "name": "id",
          "type": "uint256"
        }
      ],
      "name": "URI",
      "type": "event"
    },
    {
      "inputs": [
        {
          "internalType": "address",
          "name": "account",
          "type": "address"
        },
        {
          "internalType": "uint256",
          "name": "id",
          "type": "uint256"
        }
      ],
      "name": "balanceOf",
      "outputs": [
        {
          "internalType": "uint256",
          "name": "",
          "type": "uint256"
        }
      ],
      "stateMutability": "view",
      "type": "function"
    },
    {
      "inputs": [
        {
          "internalType": "address[]",
          "name": "accounts",
          "type": "address[]"
        },
        {
          "internalType": "uint256[]",
          "name": "ids",
          "type": "uint256[]"
        }
      ],
      "name": "balanceOfBatch",
      "outputs": [
        {
          "internalType": "uint256[]",
          "name": "",
          "type": "uint256[]"
        }
      ],
      "stateMutability": "view",
      "type": "function"
    },
    {
      "inputs": [
        {
          "internalType": "address",
          "name": "account",
          "type": "address"
        },
        {
          "internalType": "address",
          "name": "operator",
          "type": "address"
        }
      ],
      "name": "isApprovedForAll",
      "outputs": [
        {
          "internalType": "bool",
          "name": "",
          "type": "bool"
        }
      ],
      "stateMutability": "view",
      "type": "function"
    },
    {
      "inputs": [
        {
          "internalType": "uint256",
          "name": "id",
          "type": "uint256"
        },
        {
          "internalType": "address",
          "name": "to",
          "type": "address"
        },
        {
          "internalType": "uint256",
          "name": "amount",
          "type": "uint256"
        }
      ],
      "name": "mintBadge",
      "outputs": [],
      "stateMutability": "nonpayable",
      "type": "function"
    },
    {
      "inputs": [
        {
          "internalType": "address",
          "name": "from",
          "type": "address"
        },
        {
          "internalType": "address",
          "name": "to",
          "type": "address"
        },
        {
          "internalType": "uint256[]",
          "name": "ids",
          "type": "uint256[]"
        },
        {
          "internalType": "uint256[]",
          "name": "amounts",
          "type": "uint256[]"
        },
        {
          "internalType": "bytes",
          "name": "data",
          "type": "bytes"
        }
      ],
      "name": "safeBatchTransferFrom",
      "outputs": [],
      "stateMutability": "nonpayable",
      "type": "function"
    },
    {
      "inputs": [
        {
          "internalType": "address",
          "name": "from",
          "type": "address"
        },
        {
          "internalType": "address",
          "name": "to",
          "type": "address"
        },
        {
          "internalType": "uint256",
          "name": "id",
          "type": "uint256"
        },
        {
          "internalType": "uint256",
          "name": "amount",
          "type": "uint256"
        },
        {
          "internalType": "bytes",
          "name": "data",
          "type": "bytes"
        }
      ],
      "name": "safeTransferFrom",
      "outputs": [],
      "stateMutability": "nonpayable",
      "type": "function"
    },
    {
      "inputs": [
        {
          "internalType": "address",
          "name": "operator",
          "type": "address"
        },
        {
          "internalType": "bool",
          "name": "approved",
          "type": "bool"
        }
      ],
      "name": "setApprovalForAll",
      "outputs": [],
      "stateMutability": "nonpayable",
      "type": "function"
    },
    {
      "inputs": [
        {
          "internalType": "bytes4",
          "name": "interfaceId",
          "type": "bytes4"
        }
      ],
      "name": "supportsInterface",
      "outputs": [
        {
          "internalType": "bool",
          "name": "",
          "type": "bool"
        }
      ],
      "stateMutability": "view",
      "type": "function"
    },
    {
      "inputs": [
        {
          "internalType": "uint256",
          "name": "",
          "type": "uint256"
        }
      ],
      "name": "uri",
      "outputs": [
        {
          "internalType": "string",
          "name": "",
          "type": "string"
        }
      ],
      "stateMutability": "view",
      "type": "function"
    }
  ],
  "bytecode": "0x60806040523480156200001157600080fd5b50604051806080016040528060438152602001620016fa6043913962000037816200003e565b506200013a565b80516200005390600290602084019062000057565b5050565b8280546200006590620000fd565b90600052602060002090601f016020900481019282620000895760008555620000d4565b82601f10620000a457805160ff1916838001178555620000d4565b82800160010185558215620000d4579182015b82811115620000d4578251825591602001919060010190620000b7565b50620000e2929150620000e6565b5090565b5b80821115620000e25760008155600101620000e7565b6002810460018216806200011257607f821691505b602082108114156200013457634e487b7160e01b600052602260045260246000fd5b50919050565b6115b0806200014a6000396000f3fe608060405234801561001057600080fd5b50600436106100925760003560e01c80632eb2c2d6116100665780632eb2c2d6146101155780634e1273f414610128578063a22cb46514610148578063e985e9c51461015b578063f242432a1461019757610092565b8062fdd58e14610097578063013ba988146100bd57806301ffc9a7146100d25780630e89341c146100f5575b600080fd5b6100aa6100a5366004610fae565b6101aa565b6040519081526020015b60405180910390f35b6100d06100cb3660046110f7565b610240565b005b6100e56100e03660046110a0565b610260565b60405190151581526020016100b4565b6101086101033660046110df565b6102b4565b6040516100b49190611294565b6100d0610123366004610e6b565b610348565b61013b610136366004610fd7565b6103a6565b6040516100b49190611253565b6100d0610156366004610f74565b610508565b6100e5610169366004610e39565b6001600160a01b03918216600090815260016020908152604080832093909416825291909152205460ff1690565b6100d06101a5366004610f11565b61051e565b60006001600160a01b03831661021a5760405162461bcd60e51b815260206004820152602a60248201527f455243313135353a2061646472657373207a65726f206973206e6f742061207660448201526930b634b21037bbb732b960b11b60648201526084015b60405180910390fd5b506000908152602081815260408083206001600160a01b03949094168352929052205490565b61025b82848360405180602001604052806000815250610575565b505050565b60006001600160e01b03198216636cdb3d1360e11b148061029157506001600160e01b031982166303a24d0760e21b145b806102ac57506301ffc9a760e01b6001600160e01b03198316145b90505b919050565b6060600280546102c390611409565b80601f01602080910402602001604051908101604052809291908181526020018280546102ef90611409565b801561033c5780601f106103115761010080835404028352916020019161033c565b820191906000526020600020905b81548152906001019060200180831161031f57829003601f168201915b50505050509050919050565b610350610694565b6001600160a01b0316856001600160a01b03161480610376575061037685610169610694565b6103925760405162461bcd60e51b8152600401610211906112a7565b61039f8585858585610699565b5050505050565b6060815183511461040b5760405162461bcd60e51b815260206004820152602960248201527f455243313135353a206163636f756e747320616e6420696473206c656e677468604482015268040dad2e6dac2e8c6d60bb1b6064820152608401610211565b6000835167ffffffffffffffff81111561043557634e487b7160e01b600052604160045260246000fd5b60405190808252806020026020018201604052801561045e578160200160208202803683370190505b50905060005b8451811015610500576104c585828151811061049057634e487b7160e01b600052603260045260246000fd5b60200260200101518583815181106104b857634e487b7160e01b600052603260045260246000fd5b60200260200101516101aa565b8282815181106104e557634e487b7160e01b600052603260045260246000fd5b60209081029190910101526104f981611471565b9050610464565b509392505050565b61051a610513610694565b838361089d565b5050565b610526610694565b6001600160a01b0316856001600160a01b0316148061054c575061054c85610169610694565b6105685760405162461bcd60e51b8152600401610211906112a7565b61039f858585858561097e565b6001600160a01b0384166105d55760405162461bcd60e51b815260206004820152602160248201527f455243313135353a206d696e7420746f20746865207a65726f206164647265736044820152607360f81b6064820152608401610211565b60006105df610694565b905060006105ec85610ab3565b905060006105f985610ab3565b90506000868152602081815260408083206001600160a01b038b1684529091528120805487929061062b9084906113f1565b909155505060408051878152602081018790526001600160a01b03808a1692600092918716917fc3d58168c5ae7397731d063d5bbf3d657854427343f4c083240f7aacaa2d0f62910160405180910390a461068b83600089898989610b0c565b50505050505050565b335b90565b81518351146106fb5760405162461bcd60e51b815260206004820152602860248201527f455243313135353a2069647320616e6420616d6f756e7473206c656e677468206044820152670dad2e6dac2e8c6d60c31b6064820152608401610211565b6001600160a01b0384166107215760405162461bcd60e51b81526004016102119061133e565b600061072b610694565b905060005b845181101561082f57600085828151811061075b57634e487b7160e01b600052603260045260246000fd5b60200260200101519050600085838151811061078757634e487b7160e01b600052603260045260246000fd5b602090810291909101810151600084815280835260408082206001600160a01b038e1683529093529190912054909150818110156107d75760405162461bcd60e51b815260040161021190611383565b6000838152602081815260408083206001600160a01b038e8116855292528083208585039055908b168252812080548492906108149084906113f1565b925050819055505050508061082890611471565b9050610730565b50846001600160a01b0316866001600160a01b0316826001600160a01b03167f4a39dc06d4c0dbc64b70af90fd698a233a518aa5d07e595d983b8c0526c8f7fb878760405161087f929190611266565b60405180910390a4610895818787878787610c77565b505050505050565b816001600160a01b0316836001600160a01b031614156109115760405162461bcd60e51b815260206004820152602960248201527f455243313135353a2073657474696e6720617070726f76616c20737461747573604482015268103337b91039b2b63360b91b6064820152608401610211565b6001600160a01b03838116600081815260016020908152604080832094871680845294825291829020805460ff191686151590811790915591519182527f17307eab39ab6107e8899845ad3d59bd9653f200f220920489ca2b5937696c31910160405180910390a3505050565b6001600160a01b0384166109a45760405162461bcd60e51b81526004016102119061133e565b60006109ae610694565b905060006109bb85610ab3565b905060006109c885610ab3565b90506000868152602081815260408083206001600160a01b038c16845290915290205485811015610a0b5760405162461bcd60e51b815260040161021190611383565b6000878152602081815260408083206001600160a01b038d8116855292528083208985039055908a16825281208054889290610a489084906113f1565b909155505060408051888152602081018890526001600160a01b03808b16928c821692918816917fc3d58168c5ae7397731d063d5bbf3d657854427343f4c083240f7aacaa2d0f62910160405180910390a4610aa8848a8a8a8a8a610b0c565b505050505050505050565b60408051600180825281830190925260609160009190602080830190803683370190505090508281600081518110610afb57634e487b7160e01b600052603260045260246000fd5b602090810291909101015292915050565b6001600160a01b0384163b156108955760405163f23a6e6160e01b81526001600160a01b0385169063f23a6e6190610b50908990899088908890889060040161120e565b602060405180830381600087803b158015610b6a57600080fd5b505af1925050508015610b9a575060408051601f3d908101601f19168201909252610b97918101906110c3565b60015b610c4757610ba66114b8565b806308c379a01415610be05750610bbb6114cf565b80610bc65750610be2565b8060405162461bcd60e51b81526004016102119190611294565b505b60405162461bcd60e51b815260206004820152603460248201527f455243313135353a207472616e7366657220746f206e6f6e20455243313135356044820152732932b1b2b4bb32b91034b6b83632b6b2b73a32b960611b6064820152608401610211565b6001600160e01b0319811663f23a6e6160e01b1461068b5760405162461bcd60e51b8152600401610211906112f6565b6001600160a01b0384163b156108955760405163bc197c8160e01b81526001600160a01b0385169063bc197c8190610cbb90899089908890889088906004016111b0565b602060405180830381600087803b158015610cd557600080fd5b505af1925050508015610d05575060408051601f3d908101601f19168201909252610d02918101906110c3565b60015b610d1157610ba66114b8565b6001600160e01b0319811663bc197c8160e01b1461068b5760405162461bcd60e51b8152600401610211906112f6565b80356001600160a01b03811681146102af57600080fd5b600082601f830112610d68578081fd5b81356020610d75826113cd565b604051610d828282611444565b838152828101915085830183850287018401881015610d9f578586fd5b855b85811015610dbd57813584529284019290840190600101610da1565b5090979650505050505050565b600082601f830112610dda578081fd5b813567ffffffffffffffff811115610df457610df46114a2565b604051610e0b601f8301601f191660200182611444565b818152846020838601011115610e1f578283fd5b816020850160208301379081016020019190915292915050565b60008060408385031215610e4b578182fd5b610e5483610d41565b9150610e6260208401610d41565b90509250929050565b600080600080600060a08688031215610e82578081fd5b610e8b86610d41565b9450610e9960208701610d41565b9350604086013567ffffffffffffffff80821115610eb5578283fd5b610ec189838a01610d58565b94506060880135915080821115610ed6578283fd5b610ee289838a01610d58565b93506080880135915080821115610ef7578283fd5b50610f0488828901610dca565b9150509295509295909350565b600080600080600060a08688031215610f28578081fd5b610f3186610d41565b9450610f3f60208701610d41565b93506040860135925060608601359150608086013567ffffffffffffffff811115610f68578182fd5b610f0488828901610dca565b60008060408385031215610f86578182fd5b610f8f83610d41565b915060208301358015158114610fa3578182fd5b809150509250929050565b60008060408385031215610fc0578182fd5b610fc983610d41565b946020939093013593505050565b60008060408385031215610fe9578182fd5b823567ffffffffffffffff80821115611000578384fd5b818501915085601f830112611013578384fd5b81356020611020826113cd565b60405161102d8282611444565b8381528281019150858301838502870184018b101561104a578889fd5b8896505b848710156110735761105f81610d41565b83526001969096019591830191830161104e565b5096505086013592505080821115611089578283fd5b5061109685828601610d58565b9150509250929050565b6000602082840312156110b1578081fd5b81356110bc81611561565b9392505050565b6000602082840312156110d4578081fd5b81516110bc81611561565b6000602082840312156110f0578081fd5b5035919050565b60008060006060848603121561110b578283fd5b8335925061111b60208501610d41565b9150604084013590509250925092565b6000815180845260208085019450808401835b8381101561115a5781518752958201959082019060010161113e565b509495945050505050565b60008151808452815b8181101561118a5760208185018101518683018201520161116e565b8181111561119b5782602083870101525b50601f01601f19169290920160200192915050565b6001600160a01b0386811682528516602082015260a0604082018190526000906111dc9083018661112b565b82810360608401526111ee818661112b565b905082810360808401526112028185611165565b98975050505050505050565b6001600160a01b03868116825285166020820152604081018490526060810183905260a06080820181905260009061124890830184611165565b979650505050505050565b6000602082526110bc602083018461112b565b600060408252611279604083018561112b565b828103602084015261128b818561112b565b95945050505050565b6000602082526110bc6020830184611165565b6020808252602f908201527f455243313135353a2063616c6c6572206973206e6f7420746f6b656e206f776e60408201526e195c881b9bdc88185c1c1c9bdd9959608a1b606082015260800190565b60208082526028908201527f455243313135353a204552433131353552656365697665722072656a656374656040820152676420746f6b656e7360c01b606082015260800190565b60208082526025908201527f455243313135353a207472616e7366657220746f20746865207a65726f206164604082015264647265737360d81b606082015260800190565b6020808252602a908201527f455243313135353a20696e73756666696369656e742062616c616e636520666f60408201526939103a3930b739b332b960b11b606082015260800190565b600067ffffffffffffffff8211156113e7576113e76114a2565b5060209081020190565b600082198211156114045761140461148c565b500190565b60028104600182168061141d57607f821691505b6020821081141561143e57634e487b7160e01b600052602260045260246000fd5b50919050565b601f8201601f1916810167ffffffffffffffff8111828210171561146a5761146a6114a2565b6040525050565b60006000198214156114855761148561148c565b5060010190565b634e487b7160e01b600052601160045260246000fd5b634e487b7160e01b600052604160045260246000fd5b600060033d111561069657600481823e5160e01c90565b600060443d10156114df57610696565b6040516003193d81016004833e81513d67ffffffffffffffff8160248401118184111715611511575050505050610696565b828501915081518181111561152b57505050505050610696565b843d870101602082850101111561154757505050505050610696565b61155660208286010187611444565b509094505050505090565b6001600160e01b03198116811461157757600080fd5b5056fea26469706673582212205c1d4bc84a8a89cd1963ac740b3377f996c47d9467f7e4dae65047558c8756bb64736f6c6343000802003368747470733a2f2f6170692e6166726f617065732e636f6d2f76312f636f6c6c656374696f6e732f6166726f2d617065732d636f6c6c65637469626c65732f7b69647d",
  "linkReferences": {},
  "deployedLinkReferences": {}
}